{
	"staking.sol": {
		"EcioStaking": {
			"abi": [
				{
					"inputs": [
						{
							"internalType": "address",
							"name": "_lpToken",
							"type": "address"
						},
						{
							"internalType": "address",
							"name": "_rewardToken",
							"type": "address"
						}
					],
					"stateMutability": "nonpayable",
					"type": "constructor"
				},
				{
					"anonymous": false,
					"inputs": [
						{
							"indexed": true,
							"internalType": "address",
							"name": "user",
							"type": "address"
						},
						{
							"indexed": false,
							"internalType": "uint256",
							"name": "amount",
							"type": "uint256"
						}
					],
					"name": "Deposit",
					"type": "event"
				},
				{
					"anonymous": false,
					"inputs": [
						{
							"indexed": true,
							"internalType": "address",
							"name": "previousOwner",
							"type": "address"
						},
						{
							"indexed": true,
							"internalType": "address",
							"name": "newOwner",
							"type": "address"
						}
					],
					"name": "OwnershipTransferred",
					"type": "event"
				},
				{
					"anonymous": false,
					"inputs": [
						{
							"indexed": true,
							"internalType": "address",
							"name": "user",
							"type": "address"
						},
						{
							"indexed": false,
							"internalType": "uint256",
							"name": "amount",
							"type": "uint256"
						}
					],
					"name": "Reward",
					"type": "event"
				},
				{
					"anonymous": false,
					"inputs": [
						{
							"indexed": true,
							"internalType": "address",
							"name": "user",
							"type": "address"
						},
						{
							"indexed": false,
							"internalType": "uint256",
							"name": "amount",
							"type": "uint256"
						}
					],
					"name": "Withdraw",
					"type": "event"
				},
				{
					"inputs": [],
					"name": "adminAddress",
					"outputs": [
						{
							"internalType": "address",
							"name": "",
							"type": "address"
						}
					],
					"stateMutability": "view",
					"type": "function"
				},
				{
					"inputs": [],
					"name": "claim",
					"outputs": [],
					"stateMutability": "nonpayable",
					"type": "function"
				},
				{
					"inputs": [
						{
							"internalType": "address",
							"name": "_useraddress",
							"type": "address"
						}
					],
					"name": "ecioClaimPossible",
					"outputs": [
						{
							"internalType": "uint256",
							"name": "",
							"type": "uint256"
						}
					],
					"stateMutability": "view",
					"type": "function"
				},
				{
					"inputs": [],
					"name": "lastRewardTimeStamp",
					"outputs": [
						{
							"internalType": "uint256",
							"name": "",
							"type": "uint256"
						}
					],
					"stateMutability": "view",
					"type": "function"
				},
				{
					"inputs": [],
					"name": "lockedTime",
					"outputs": [
						{
							"internalType": "uint256",
							"name": "",
							"type": "uint256"
						}
					],
					"stateMutability": "view",
					"type": "function"
				},
				{
					"inputs": [],
					"name": "lpToken",
					"outputs": [
						{
							"internalType": "address",
							"name": "",
							"type": "address"
						}
					],
					"stateMutability": "view",
					"type": "function"
				},
				{
					"inputs": [],
					"name": "owner",
					"outputs": [
						{
							"internalType": "address",
							"name": "",
							"type": "address"
						}
					],
					"stateMutability": "view",
					"type": "function"
				},
				{
					"inputs": [],
					"name": "renounceOwnership",
					"outputs": [],
					"stateMutability": "nonpayable",
					"type": "function"
				},
				{
					"inputs": [],
					"name": "rewardToken",
					"outputs": [
						{
							"internalType": "address",
							"name": "",
							"type": "address"
						}
					],
					"stateMutability": "view",
					"type": "function"
				},
				{
					"inputs": [
						{
							"internalType": "uint256",
							"name": "amount",
							"type": "uint256"
						}
					],
					"name": "stake",
					"outputs": [],
					"stateMutability": "nonpayable",
					"type": "function"
				},
				{
					"inputs": [],
					"name": "totalAmount",
					"outputs": [
						{
							"internalType": "uint256",
							"name": "",
							"type": "uint256"
						}
					],
					"stateMutability": "view",
					"type": "function"
				},
				{
					"inputs": [],
					"name": "totalLpTokenAmount",
					"outputs": [
						{
							"internalType": "uint256",
							"name": "",
							"type": "uint256"
						}
					],
					"stateMutability": "view",
					"type": "function"
				},
				{
					"inputs": [
						{
							"internalType": "address",
							"name": "newOwner",
							"type": "address"
						}
					],
					"name": "transferOwnership",
					"outputs": [],
					"stateMutability": "nonpayable",
					"type": "function"
				},
				{
					"inputs": [
						{
							"internalType": "address",
							"name": "_contractAddress",
							"type": "address"
						},
						{
							"internalType": "address",
							"name": "_to",
							"type": "address"
						},
						{
							"internalType": "uint256",
							"name": "_amount",
							"type": "uint256"
						}
					],
					"name": "transferToken",
					"outputs": [],
					"stateMutability": "nonpayable",
					"type": "function"
				},
				{
					"inputs": [
						{
							"internalType": "address",
							"name": "_address",
							"type": "address"
						}
					],
					"name": "updateLpTokenAddress",
					"outputs": [],
					"stateMutability": "nonpayable",
					"type": "function"
				},
				{
					"inputs": [
						{
							"internalType": "address",
							"name": "_address",
							"type": "address"
						}
					],
					"name": "updateRewardTokenAddress",
					"outputs": [],
					"stateMutability": "nonpayable",
					"type": "function"
				},
				{
					"inputs": [
						{
							"internalType": "uint256",
							"name": "userNum",
							"type": "uint256"
						}
					],
					"name": "userAddress",
					"outputs": [
						{
							"internalType": "address",
							"name": "",
							"type": "address"
						}
					],
					"stateMutability": "view",
					"type": "function"
				},
				{
					"inputs": [],
					"name": "userCounter",
					"outputs": [
						{
							"internalType": "uint256",
							"name": "",
							"type": "uint256"
						}
					],
					"stateMutability": "view",
					"type": "function"
				},
				{
					"inputs": [
						{
							"internalType": "address",
							"name": "",
							"type": "address"
						}
					],
					"name": "userInfo",
					"outputs": [
						{
							"internalType": "uint256",
							"name": "amount",
							"type": "uint256"
						},
						{
							"internalType": "uint256",
							"name": "rewarded",
							"type": "uint256"
						},
						{
							"internalType": "uint256",
							"name": "rewardDebt",
							"type": "uint256"
						},
						{
							"internalType": "uint256",
							"name": "lastCalculatedTimeStamp",
							"type": "uint256"
						},
						{
							"internalType": "uint256",
							"name": "lastDepositTimeStamp",
							"type": "uint256"
						}
					],
					"stateMutability": "view",
					"type": "function"
				},
				{
					"inputs": [
						{
							"internalType": "uint256",
							"name": "",
							"type": "uint256"
						}
					],
					"name": "userList",
					"outputs": [
						{
							"internalType": "address",
							"name": "",
							"type": "address"
						}
					],
					"stateMutability": "view",
					"type": "function"
				},
				{
					"inputs": [
						{
							"internalType": "uint256",
							"name": "userNum",
							"type": "uint256"
						}
					],
					"name": "userStakedLpAmount",
					"outputs": [
						{
							"internalType": "uint256",
							"name": "",
							"type": "uint256"
						}
					],
					"stateMutability": "view",
					"type": "function"
				},
				{
					"inputs": [],
					"name": "withdraw",
					"outputs": [],
					"stateMutability": "nonpayable",
					"type": "function"
				}
			],
			"devdoc": {
				"kind": "dev",
				"methods": {
					"owner()": {
						"details": "Returns the address of the current owner."
					},
					"renounceOwnership()": {
						"details": "Leaves the contract without owner. It will not be possible to call `onlyOwner` functions anymore. Can only be called by the current owner. NOTE: Renouncing ownership will leave the contract without an owner, thereby removing any functionality that is only available to the owner."
					},
					"transferOwnership(address)": {
						"details": "Transfers ownership of the contract to a new account (`newOwner`). Can only be called by the current owner."
					}
				},
				"version": 1
			},
			"evm": {
				"assembly": "    /* \"staking.sol\":169:5795  contract EcioStaking is Ownable {\r... */\n  mstore(0x40, 0x80)\n    /* \"staking.sol\":591:605  1 * 1e6 * 1e18 */\n  0xd3c21bcecceda1000000\n    /* \"staking.sol\":558:605  uint256 private REWARD_PER_DAY = 1 * 1e6 * 1e18 */\n  0x04\n  sstore\n    /* \"staking.sol\":916:930  60 * 24 * 3600 */\n  0x4f1a00\n    /* \"staking.sol\":888:930  uint256 public lockedTime = 60 * 24 * 3600 */\n  0x09\n  sstore\n    /* \"staking.sol\":971:972  1 */\n  0x01\n    /* \"staking.sol\":947:972  uint private unlocked = 1 */\n  0x0a\n  sstore\n    /* \"staking.sol\":1157:1418  constructor(\r... */\n  callvalue\n  dup1\n  iszero\n  tag_1\n  jumpi\n  0x00\n  dup1\n  revert\ntag_1:\n  pop\n  mload(0x40)\n  sub(codesize, bytecodeSize)\n  dup1\n  bytecodeSize\n  dup4\n  codecopy\n  dup2\n  add\n  0x40\n  dup2\n  swap1\n  mstore\n  tag_2\n  swap2\n  tag_3\n  jump\t// in\ntag_2:\n    /* \"Ownable.sol\":942:974  _transferOwnership(_msgSender()) */\n  tag_7\n    /* \"Context.sol\":736:746  msg.sender */\n  caller\n    /* \"Ownable.sol\":942:960  _transferOwnership */\n  tag_10\n    /* \"Ownable.sol\":942:974  _transferOwnership(_msgSender()) */\n  jump\t// in\ntag_7:\n    /* \"staking.sol\":1252:1264  adminAddress */\n  0x06\n    /* \"staking.sol\":1252:1277  adminAddress = msg.sender */\n  dup1\n  sload\n    /* \"staking.sol\":1267:1277  msg.sender */\n  caller\n  not(sub(shl(0xa0, 0x01), 0x01))\n    /* \"staking.sol\":1252:1277  adminAddress = msg.sender */\n  swap2\n  dup3\n  and\n  dup2\n  or\n  swap1\n  swap3\n  sstore\n  0x01\n    /* \"staking.sol\":1288:1306  lpToken = _lpToken */\n  dup1\n  sload\n  dup3\n  and\n  sub(shl(0xa0, 0x01), 0x01)\n  dup7\n  dup2\n  and\n  swap2\n  swap1\n  swap2\n  or\n  swap1\n  swap2\n  sstore\n  0x05\n    /* \"staking.sol\":1317:1343  rewardToken = _rewardToken */\n  dup1\n  sload\n  swap1\n  swap3\n  and\n  swap1\n  dup5\n  and\n  or\n  swap1\n  sstore\n  0x00\n    /* \"staking.sol\":1354:1365  totalAmount */\n  0x02\n    /* \"staking.sol\":1354:1369  totalAmount = 0 */\n  sstore\n    /* \"staking.sol\":1380:1410  _transferOwnership(msg.sender) */\n  tag_12\n  swap1\n    /* \"staking.sol\":1380:1398  _transferOwnership */\n  tag_10\n    /* \"staking.sol\":1380:1410  _transferOwnership(msg.sender) */\n  jump\t// in\ntag_12:\n    /* \"staking.sol\":1157:1418  constructor(\r... */\n  pop\n  pop\n    /* \"staking.sol\":169:5795  contract EcioStaking is Ownable {\r... */\n  jump(tag_16)\n    /* \"Ownable.sol\":2333:2524  function _transferOwnership(address newOwner) internal virtual {\r... */\ntag_10:\n    /* \"Ownable.sol\":2407:2423  address oldOwner */\n  0x00\n    /* \"Ownable.sol\":2426:2432  _owner */\n  dup1\n  sload\n  sub(shl(0xa0, 0x01), 0x01)\n    /* \"Ownable.sol\":2443:2460  _owner = newOwner */\n  dup4\n  dup2\n  and\n  not(sub(shl(0xa0, 0x01), 0x01))\n  dup4\n  and\n  dup2\n  or\n  dup5\n  sstore\n    /* \"Ownable.sol\":2476:2516  OwnershipTransferred(oldOwner, newOwner) */\n  mload(0x40)\n    /* \"Ownable.sol\":2426:2432  _owner */\n  swap2\n  swap1\n  swap3\n  and\n  swap3\n  dup4\n  swap2\n    /* \"Ownable.sol\":2476:2516  OwnershipTransferred(oldOwner, newOwner) */\n  0x8be0079c531659141344cd1fd0a4f28419497f9722a3daafe3b4186f6b6457e0\n  swap2\n    /* \"Ownable.sol\":2407:2423  address oldOwner */\n  swap1\n    /* \"Ownable.sol\":2476:2516  OwnershipTransferred(oldOwner, newOwner) */\n  log3\n    /* \"Ownable.sol\":2333:2524  function _transferOwnership(address newOwner) internal virtual {\r... */\n  pop\n  pop\n  jump\t// out\n    /* \"#utility.yul\":14:191   */\ntag_17:\n    /* \"#utility.yul\":93:106   */\n  dup1\n  mload\n  sub(shl(0xa0, 0x01), 0x01)\n    /* \"#utility.yul\":135:166   */\n  dup2\n  and\n    /* \"#utility.yul\":125:167   */\n  dup2\n  eq\n    /* \"#utility.yul\":115:117   */\n  tag_19\n  jumpi\n    /* \"#utility.yul\":181:182   */\n  0x00\n    /* \"#utility.yul\":178:179   */\n  dup1\n    /* \"#utility.yul\":171:183   */\n  revert\n    /* \"#utility.yul\":115:117   */\ntag_19:\n    /* \"#utility.yul\":74:191   */\n  swap2\n  swap1\n  pop\n  jump\t// out\n    /* \"#utility.yul\":196:499   */\ntag_3:\n    /* \"#utility.yul\":275:281   */\n  0x00\n    /* \"#utility.yul\":283:289   */\n  dup1\n    /* \"#utility.yul\":336:338   */\n  0x40\n    /* \"#utility.yul\":324:333   */\n  dup4\n    /* \"#utility.yul\":315:322   */\n  dup6\n    /* \"#utility.yul\":311:334   */\n  sub\n    /* \"#utility.yul\":307:339   */\n  slt\n    /* \"#utility.yul\":304:306   */\n  iszero\n  tag_21\n  jumpi\n    /* \"#utility.yul\":357:363   */\n  dup2\n    /* \"#utility.yul\":349:355   */\n  dup3\n    /* \"#utility.yul\":342:364   */\n  revert\n    /* \"#utility.yul\":304:306   */\ntag_21:\n    /* \"#utility.yul\":385:425   */\n  tag_22\n    /* \"#utility.yul\":415:424   */\n  dup4\n    /* \"#utility.yul\":385:425   */\n  tag_17\n  jump\t// in\ntag_22:\n    /* \"#utility.yul\":375:425   */\n  swap2\n  pop\n    /* \"#utility.yul\":444:493   */\n  tag_23\n    /* \"#utility.yul\":489:491   */\n  0x20\n    /* \"#utility.yul\":478:487   */\n  dup5\n    /* \"#utility.yul\":474:492   */\n  add\n    /* \"#utility.yul\":444:493   */\n  tag_17\n  jump\t// in\ntag_23:\n    /* \"#utility.yul\":434:493   */\n  swap1\n  pop\n    /* \"#utility.yul\":294:499   */\n  swap3\n  pop\n  swap3\n  swap1\n  pop\n  jump\t// out\ntag_16:\n    /* \"staking.sol\":169:5795  contract EcioStaking is Ownable {\r... */\n  dataSize(sub_0)\n  dup1\n  dataOffset(sub_0)\n  0x00\n  codecopy\n  0x00\n  return\nstop\n\nsub_0: assembly {\n        /* \"staking.sol\":169:5795  contract EcioStaking is Ownable {\r... */\n      mstore(0x40, 0x80)\n      callvalue\n      dup1\n      iszero\n      tag_1\n      jumpi\n      0x00\n      dup1\n      revert\n    tag_1:\n      pop\n      jumpi(tag_2, lt(calldatasize, 0x04))\n      shr(0xe0, calldataload(0x00))\n      dup1\n      0x9674a0ac\n      gt\n      tag_25\n      jumpi\n      dup1\n      0xf0c37a59\n      gt\n      tag_26\n      jumpi\n      dup1\n      0xf0c37a59\n      eq\n      tag_19\n      jumpi\n      dup1\n      0xf2fde38b\n      eq\n      tag_20\n      jumpi\n      dup1\n      0xf5537ede\n      eq\n      tag_21\n      jumpi\n      dup1\n      0xf7c618c1\n      eq\n      tag_22\n      jumpi\n      dup1\n      0xfc6f9468\n      eq\n      tag_23\n      jumpi\n      dup1\n      0xfd1a2397\n      eq\n      tag_24\n      jumpi\n      0x00\n      dup1\n      revert\n    tag_26:\n      dup1\n      0x9674a0ac\n      eq\n      tag_14\n      jumpi\n      dup1\n      0x9f4216e8\n      eq\n      tag_15\n      jumpi\n      dup1\n      0xa694fc3a\n      eq\n      tag_16\n      jumpi\n      dup1\n      0xa8b38205\n      eq\n      tag_17\n      jumpi\n      dup1\n      0xbce4f054\n      eq\n      tag_18\n      jumpi\n      0x00\n      dup1\n      revert\n    tag_25:\n      dup1\n      0x5fcbd285\n      gt\n      tag_27\n      jumpi\n      dup1\n      0x5fcbd285\n      eq\n      tag_8\n      jumpi\n      dup1\n      0x5fd595c0\n      eq\n      tag_9\n      jumpi\n      dup1\n      0x6a9db411\n      eq\n      tag_10\n      jumpi\n      dup1\n      0x6e26a967\n      eq\n      tag_11\n      jumpi\n      dup1\n      0x715018a6\n      eq\n      tag_12\n      jumpi\n      dup1\n      0x8da5cb5b\n      eq\n      tag_13\n      jumpi\n      0x00\n      dup1\n      revert\n    tag_27:\n      dup1\n      0x1959a002\n      eq\n      tag_3\n      jumpi\n      dup1\n      0x1a39d8ef\n      eq\n      tag_4\n      jumpi\n      dup1\n      0x356c7284\n      eq\n      tag_5\n      jumpi\n      dup1\n      0x3ccfd60b\n      eq\n      tag_6\n      jumpi\n      dup1\n      0x4e71d92d\n      eq\n      tag_7\n      jumpi\n    tag_2:\n      0x00\n      dup1\n      revert\n        /* \"staking.sol\":804:849  mapping (address => UserInfo) public userInfo */\n    tag_3:\n      tag_28\n      tag_29\n      calldatasize\n      0x04\n      tag_30\n      jump\t// in\n    tag_29:\n      mstore(0x20, 0x07)\n      0x00\n      swap1\n      dup2\n      mstore\n      0x40\n      swap1\n      keccak256\n      dup1\n      sload\n      0x01\n      dup3\n      add\n      sload\n      0x02\n      dup4\n      add\n      sload\n      0x03\n      dup5\n      add\n      sload\n      0x04\n      swap1\n      swap5\n      add\n      sload\n      swap3\n      swap4\n      swap2\n      swap3\n      swap1\n      swap2\n      swap1\n      dup6\n      jump\n    tag_28:\n      0x40\n      dup1\n      mload\n        /* \"#utility.yul\":6303:6328   */\n      swap6\n      dup7\n      mstore\n        /* \"#utility.yul\":6359:6361   */\n      0x20\n        /* \"#utility.yul\":6344:6362   */\n      dup7\n      add\n        /* \"#utility.yul\":6337:6371   */\n      swap5\n      swap1\n      swap5\n      mstore\n        /* \"#utility.yul\":6387:6405   */\n      swap3\n      dup5\n      add\n        /* \"#utility.yul\":6380:6414   */\n      swap2\n      swap1\n      swap2\n      mstore\n        /* \"#utility.yul\":6445:6447   */\n      0x60\n        /* \"#utility.yul\":6430:6448   */\n      dup4\n      add\n        /* \"#utility.yul\":6423:6457   */\n      mstore\n        /* \"#utility.yul\":6488:6491   */\n      0x80\n        /* \"#utility.yul\":6473:6492   */\n      dup3\n      add\n        /* \"#utility.yul\":6466:6501   */\n      mstore\n        /* \"#utility.yul\":6290:6293   */\n      0xa0\n        /* \"#utility.yul\":6275:6294   */\n      add\n        /* \"staking.sol\":804:849  mapping (address => UserInfo) public userInfo */\n    tag_32:\n      mload(0x40)\n      dup1\n      swap2\n      sub\n      swap1\n      return\n        /* \"staking.sol\":482:508  uint256 public totalAmount */\n    tag_4:\n      tag_34\n      sload(0x02)\n      dup2\n      jump\n    tag_34:\n      mload(0x40)\n        /* \"#utility.yul\":6008:6033   */\n      swap1\n      dup2\n      mstore\n        /* \"#utility.yul\":5996:5998   */\n      0x20\n        /* \"#utility.yul\":5981:5999   */\n      add\n        /* \"staking.sol\":482:508  uint256 public totalAmount */\n      tag_32\n        /* \"#utility.yul\":5963:6039   */\n      jump\n        /* \"staking.sol\":515:549  uint256 public lastRewardTimeStamp */\n    tag_5:\n      tag_34\n      sload(0x03)\n      dup2\n      jump\n        /* \"staking.sol\":4655:5179  function withdraw() public {\r... */\n    tag_6:\n      tag_41\n      tag_42\n      jump\t// in\n    tag_41:\n      stop\n        /* \"staking.sol\":5187:5587  function claim() public {\r... */\n    tag_7:\n      tag_41\n      tag_44\n      jump\t// in\n        /* \"staking.sol\":453:475  address public lpToken */\n    tag_8:\n      sload(0x01)\n      tag_45\n      swap1\n      sub(shl(0xa0, 0x01), 0x01)\n      and\n      dup2\n      jump\n    tag_45:\n      mload(0x40)\n      sub(shl(0xa0, 0x01), 0x01)\n        /* \"#utility.yul\":1832:1864   */\n      swap1\n      swap2\n      and\n        /* \"#utility.yul\":1814:1865   */\n      dup2\n      mstore\n        /* \"#utility.yul\":1802:1804   */\n      0x20\n        /* \"#utility.yul\":1787:1805   */\n      add\n        /* \"staking.sol\":453:475  address public lpToken */\n      tag_32\n        /* \"#utility.yul\":1769:1871   */\n      jump\n        /* \"staking.sol\":1548:1650  function updateLpTokenAddress(address _address) public onlyOwner {\r... */\n    tag_9:\n      tag_41\n      tag_50\n      calldatasize\n      0x04\n      tag_30\n      jump\t// in\n    tag_50:\n      tag_51\n      jump\t// in\n        /* \"staking.sol\":1879:2053  function userStakedLpAmount(uint256 userNum) public view returns (uint256) {\r... */\n    tag_10:\n      tag_34\n      tag_53\n      calldatasize\n      0x04\n      tag_54\n      jump\t// in\n    tag_53:\n      tag_55\n      jump\t// in\n        /* \"staking.sol\":2061:2525  function ecioClaimPossible(address _useraddress) public view returns (uint256) {\r... */\n    tag_11:\n      tag_34\n      tag_58\n      calldatasize\n      0x04\n      tag_30\n      jump\t// in\n    tag_58:\n      tag_59\n      jump\t// in\n        /* \"Ownable.sol\":1714:1817  function renounceOwnership() public virtual onlyOwner {\r... */\n    tag_12:\n      tag_41\n      tag_62\n      jump\t// in\n        /* \"Ownable.sol\":1063:1150  function owner() public view virtual returns (address) {\r... */\n    tag_13:\n        /* \"Ownable.sol\":1109:1116  address */\n      0x00\n        /* \"Ownable.sol\":1136:1142  _owner */\n      sload\n      sub(shl(0xa0, 0x01), 0x01)\n      and\n        /* \"Ownable.sol\":1063:1150  function owner() public view virtual returns (address) {\r... */\n      jump(tag_45)\n        /* \"staking.sol\":1760:1871  function userAddress(uint256 userNum) public view returns (address) {\r... */\n    tag_14:\n      tag_45\n      tag_67\n      calldatasize\n      0x04\n      tag_54\n      jump\t// in\n    tag_67:\n      tag_68\n      jump\t// in\n        /* \"staking.sol\":856:881  address[] public userList */\n    tag_15:\n      tag_45\n      tag_71\n      calldatasize\n      0x04\n      tag_54\n      jump\t// in\n    tag_71:\n      tag_72\n      jump\t// in\n        /* \"staking.sol\":3203:4232  function stake(uint256 amount) public {\r... */\n    tag_16:\n      tag_41\n      tag_75\n      calldatasize\n      0x04\n      tag_54\n      jump\t// in\n    tag_75:\n      tag_76\n      jump\t// in\n        /* \"staking.sol\":888:930  uint256 public lockedTime = 60 * 24 * 3600 */\n    tag_17:\n      tag_34\n      sload(0x09)\n      dup2\n      jump\n        /* \"staking.sol\":2533:2630  function totalLpTokenAmount() public view returns (uint256) {\r... */\n    tag_18:\n        /* \"staking.sol\":2611:2622  totalAmount */\n      sload(0x02)\n        /* \"staking.sol\":2533:2630  function totalLpTokenAmount() public view returns (uint256) {\r... */\n      jump(tag_34)\n        /* \"staking.sol\":1658:1752  function userCounter() public view returns (uint256) {\r... */\n    tag_19:\n        /* \"staking.sol\":1729:1737  userList */\n      0x08\n        /* \"staking.sol\":1729:1744  userList.length */\n      sload\n        /* \"staking.sol\":1658:1752  function userCounter() public view returns (uint256) {\r... */\n      jump(tag_34)\n        /* \"Ownable.sol\":1972:2173  function transferOwnership(address newOwner) public virtual onlyOwner {\r... */\n    tag_20:\n      tag_41\n      tag_87\n      calldatasize\n      0x04\n      tag_30\n      jump\t// in\n    tag_87:\n      tag_88\n      jump\t// in\n        /* \"staking.sol\":5595:5792  function transferToken(address _contractAddress, address _to, uint256 _amount) external onlyOwner {\r... */\n    tag_21:\n      tag_41\n      tag_90\n      calldatasize\n      0x04\n      tag_91\n      jump\t// in\n    tag_90:\n      tag_92\n      jump\t// in\n        /* \"staking.sol\":643:669  address public rewardToken */\n    tag_22:\n      sload(0x05)\n      tag_45\n      swap1\n      sub(shl(0xa0, 0x01), 0x01)\n      and\n      dup2\n      jump\n        /* \"staking.sol\":676:703  address public adminAddress */\n    tag_23:\n      sload(0x06)\n      tag_45\n      swap1\n      sub(shl(0xa0, 0x01), 0x01)\n      and\n      dup2\n      jump\n        /* \"staking.sol\":1426:1536  function updateRewardTokenAddress(address _address) public onlyOwner {\r... */\n    tag_24:\n      tag_41\n      tag_100\n      calldatasize\n      0x04\n      tag_30\n      jump\t// in\n    tag_100:\n      tag_101\n      jump\t// in\n        /* \"staking.sol\":4655:5179  function withdraw() public {\r... */\n    tag_42:\n        /* \"staking.sol\":4726:4736  msg.sender */\n      caller\n        /* \"staking.sol\":4693:4714  UserInfo storage user */\n      0x00\n        /* \"staking.sol\":4717:4737  userInfo[msg.sender] */\n      swap1\n      dup2\n      mstore\n        /* \"staking.sol\":4717:4725  userInfo */\n      0x07\n        /* \"staking.sol\":4717:4737  userInfo[msg.sender] */\n      0x20\n      mstore\n      0x40\n      swap1\n      keccak256\n        /* \"staking.sol\":4756:4781  user.lastDepositTimeStamp */\n      0x04\n      dup2\n      add\n      sload\n        /* \"staking.sol\":4748:4802  require(user.lastDepositTimeStamp > 0, \"invalid user\") */\n      tag_103\n      jumpi\n      mload(0x40)\n      shl(0xe5, 0x461bcd)\n      dup2\n      mstore\n        /* \"#utility.yul\":5372:5374   */\n      0x20\n        /* \"staking.sol\":4748:4802  require(user.lastDepositTimeStamp > 0, \"invalid user\") */\n      0x04\n      dup3\n      add\n        /* \"#utility.yul\":5354:5375   */\n      mstore\n        /* \"#utility.yul\":5411:5413   */\n      0x0c\n        /* \"#utility.yul\":5391:5409   */\n      0x24\n      dup3\n      add\n        /* \"#utility.yul\":5384:5414   */\n      mstore\n      shl(0xa1, 0x34b73b30b634b2103ab9b2b9)\n        /* \"#utility.yul\":5430:5448   */\n      0x44\n      dup3\n      add\n        /* \"#utility.yul\":5423:5465   */\n      mstore\n        /* \"#utility.yul\":5482:5500   */\n      0x64\n      add\n        /* \"staking.sol\":4748:4802  require(user.lastDepositTimeStamp > 0, \"invalid user\") */\n    tag_104:\n      mload(0x40)\n      dup1\n      swap2\n      sub\n      swap1\n      revert\n    tag_103:\n        /* \"staking.sol\":4821:4832  user.amount */\n      dup1\n      sload\n        /* \"staking.sol\":4813:4851  require(user.amount > 0, \"not staked\") */\n      tag_106\n      jumpi\n      mload(0x40)\n      shl(0xe5, 0x461bcd)\n      dup2\n      mstore\n        /* \"#utility.yul\":3905:3907   */\n      0x20\n        /* \"staking.sol\":4813:4851  require(user.amount > 0, \"not staked\") */\n      0x04\n      dup3\n      add\n        /* \"#utility.yul\":3887:3908   */\n      mstore\n        /* \"#utility.yul\":3944:3946   */\n      0x0a\n        /* \"#utility.yul\":3924:3942   */\n      0x24\n      dup3\n      add\n        /* \"#utility.yul\":3917:3947   */\n      mstore\n      shl(0xb2, 0x1b9bdd081cdd185ad959)\n        /* \"#utility.yul\":3963:3981   */\n      0x44\n      dup3\n      add\n        /* \"#utility.yul\":3956:3996   */\n      mstore\n        /* \"#utility.yul\":4013:4031   */\n      0x64\n      add\n        /* \"staking.sol\":4813:4851  require(user.amount > 0, \"not staked\") */\n      tag_104\n        /* \"#utility.yul\":3877:4037   */\n      jump\n        /* \"staking.sol\":4813:4851  require(user.amount > 0, \"not staked\") */\n    tag_106:\n        /* \"staking.sol\":4911:4926  block.timestamp */\n      timestamp\n        /* \"staking.sol\":4898:4908  lockedTime */\n      sload(0x09)\n        /* \"staking.sol\":4870:4874  user */\n      dup3\n        /* \"staking.sol\":4870:4895  user.lastDepositTimeStamp */\n      0x04\n      add\n      sload\n        /* \"staking.sol\":4870:4908  user.lastDepositTimeStamp + lockedTime */\n      tag_109\n      swap2\n      swap1\n      tag_110\n      jump\t// in\n    tag_109:\n        /* \"staking.sol\":4870:4926  user.lastDepositTimeStamp + lockedTime < block.timestamp */\n      lt\n        /* \"staking.sol\":4862:4953  require(user.lastDepositTimeStamp + lockedTime < block.timestamp, \"you are in lockedTime.\") */\n      tag_111\n      jumpi\n      mload(0x40)\n      shl(0xe5, 0x461bcd)\n      dup2\n      mstore\n        /* \"#utility.yul\":5713:5715   */\n      0x20\n        /* \"staking.sol\":4862:4953  require(user.lastDepositTimeStamp + lockedTime < block.timestamp, \"you are in lockedTime.\") */\n      0x04\n      dup3\n      add\n        /* \"#utility.yul\":5695:5716   */\n      mstore\n        /* \"#utility.yul\":5752:5754   */\n      0x16\n        /* \"#utility.yul\":5732:5750   */\n      0x24\n      dup3\n      add\n        /* \"#utility.yul\":5725:5755   */\n      mstore\n      shl(0x51, 0x3cb7ba9030b9329034b7103637b1b5b2b22a34b6b297)\n        /* \"#utility.yul\":5771:5789   */\n      0x44\n      dup3\n      add\n        /* \"#utility.yul\":5764:5816   */\n      mstore\n        /* \"#utility.yul\":5833:5851   */\n      0x64\n      add\n        /* \"staking.sol\":4862:4953  require(user.lastDepositTimeStamp + lockedTime < block.timestamp, \"you are in lockedTime.\") */\n      tag_104\n        /* \"#utility.yul\":5685:5857   */\n      jump\n        /* \"staking.sol\":4862:4953  require(user.lastDepositTimeStamp + lockedTime < block.timestamp, \"you are in lockedTime.\") */\n    tag_111:\n        /* \"staking.sol\":4964:4976  updatePool() */\n      tag_114\n        /* \"staking.sol\":4964:4974  updatePool */\n      tag_115\n        /* \"staking.sol\":4964:4976  updatePool() */\n      jump\t// in\n    tag_114:\n        /* \"staking.sol\":5015:5022  lpToken */\n      sload(0x01)\n        /* \"staking.sol\":5036:5047  user.amount */\n      dup2\n      sload\n        /* \"staking.sol\":4987:5048  TransferHelper.safeTransfer(lpToken, msg.sender, user.amount) */\n      tag_116\n      swap2\n      sub(shl(0xa0, 0x01), 0x01)\n        /* \"staking.sol\":5015:5022  lpToken */\n      and\n      swap1\n        /* \"staking.sol\":5024:5034  msg.sender */\n      caller\n      swap1\n        /* \"staking.sol\":4987:5014  TransferHelper.safeTransfer */\n      tag_117\n        /* \"staking.sol\":4987:5048  TransferHelper.safeTransfer(lpToken, msg.sender, user.amount) */\n      jump\t// in\n    tag_116:\n        /* \"staking.sol\":5087:5098  user.amount */\n      dup1\n      sload\n        /* \"staking.sol\":5073:5084  totalAmount */\n      sload(0x02)\n        /* \"staking.sol\":5073:5098  totalAmount - user.amount */\n      tag_118\n      swap2\n        /* \"staking.sol\":5087:5098  user.amount */\n      swap1\n        /* \"staking.sol\":5073:5098  totalAmount - user.amount */\n      tag_119\n      jump\t// in\n    tag_118:\n        /* \"staking.sol\":5059:5070  totalAmount */\n      0x02\n        /* \"staking.sol\":5059:5098  totalAmount = totalAmount - user.amount */\n      sstore\n        /* \"staking.sol\":5109:5122  deleteBlock() */\n      tag_120\n        /* \"staking.sol\":5109:5120  deleteBlock */\n      tag_121\n        /* \"staking.sol\":5109:5122  deleteBlock() */\n      jump\t// in\n    tag_120:\n        /* \"staking.sol\":5159:5170  user.amount */\n      dup1\n      sload\n        /* \"staking.sol\":5138:5171  Withdraw(msg.sender, user.amount) */\n      mload(0x40)\n        /* \"#utility.yul\":6008:6033   */\n      swap1\n      dup2\n      mstore\n        /* \"staking.sol\":5147:5157  msg.sender */\n      caller\n      swap1\n        /* \"staking.sol\":5138:5171  Withdraw(msg.sender, user.amount) */\n      0x884edad9ce6fa2440d8a54cc123490eb96d2768479d49ff9c7366125a9424364\n      swap1\n        /* \"#utility.yul\":5996:5998   */\n      0x20\n        /* \"#utility.yul\":5981:5999   */\n      add\n        /* \"staking.sol\":5138:5171  Withdraw(msg.sender, user.amount) */\n      mload(0x40)\n      dup1\n      swap2\n      sub\n      swap1\n      log2\n        /* \"staking.sol\":4655:5179  function withdraw() public {\r... */\n      pop\n      jump\t// out\n        /* \"staking.sol\":5187:5587  function claim() public {\r... */\n    tag_44:\n        /* \"staking.sol\":5255:5265  msg.sender */\n      caller\n        /* \"staking.sol\":5222:5243  UserInfo storage user */\n      0x00\n        /* \"staking.sol\":5246:5266  userInfo[msg.sender] */\n      swap1\n      dup2\n      mstore\n        /* \"staking.sol\":5246:5254  userInfo */\n      0x07\n        /* \"staking.sol\":5246:5266  userInfo[msg.sender] */\n      0x20\n      mstore\n      0x40\n      swap1\n      keccak256\n        /* \"staking.sol\":5277:5289  updatePool() */\n      tag_124\n        /* \"staking.sol\":5277:5287  updatePool */\n      tag_115\n        /* \"staking.sol\":5277:5289  updatePool() */\n      jump\t// in\n    tag_124:\n        /* \"staking.sol\":5314:5329  user.rewardDebt */\n      0x02\n      dup2\n      add\n      sload\n        /* \"staking.sol\":5348:5358  amount > 0 */\n      dup1\n        /* \"staking.sol\":5340:5387  require(amount > 0, \"not enough reward amount\") */\n      tag_125\n      jumpi\n      mload(0x40)\n      shl(0xe5, 0x461bcd)\n      dup2\n      mstore\n        /* \"#utility.yul\":4605:4607   */\n      0x20\n        /* \"staking.sol\":5340:5387  require(amount > 0, \"not enough reward amount\") */\n      0x04\n      dup3\n      add\n        /* \"#utility.yul\":4587:4608   */\n      mstore\n        /* \"#utility.yul\":4644:4646   */\n      0x18\n        /* \"#utility.yul\":4624:4642   */\n      0x24\n      dup3\n      add\n        /* \"#utility.yul\":4617:4647   */\n      mstore\n        /* \"#utility.yul\":4683:4709   */\n      0x6e6f7420656e6f7567682072657761726420616d6f756e740000000000000000\n        /* \"#utility.yul\":4663:4681   */\n      0x44\n      dup3\n      add\n        /* \"#utility.yul\":4656:4710   */\n      mstore\n        /* \"#utility.yul\":4727:4745   */\n      0x64\n      add\n        /* \"staking.sol\":5340:5387  require(amount > 0, \"not enough reward amount\") */\n      tag_104\n        /* \"#utility.yul\":4577:4751   */\n      jump\n        /* \"staking.sol\":5340:5387  require(amount > 0, \"not enough reward amount\") */\n    tag_125:\n        /* \"staking.sol\":5430:5436  amount */\n      dup1\n        /* \"staking.sol\":5414:5418  user */\n      dup3\n        /* \"staking.sol\":5414:5427  user.rewarded */\n      0x01\n      add\n      sload\n        /* \"staking.sol\":5414:5436  user.rewarded + amount */\n      tag_128\n      swap2\n      swap1\n      tag_110\n      jump\t// in\n    tag_128:\n        /* \"staking.sol\":5398:5411  user.rewarded */\n      0x01\n      dup4\n      add\n        /* \"staking.sol\":5398:5436  user.rewarded = user.rewarded + amount */\n      sstore\n        /* \"staking.sol\":5465:5466  0 */\n      0x00\n        /* \"staking.sol\":5447:5462  user.rewardDebt */\n      0x02\n      dup4\n      add\n        /* \"staking.sol\":5447:5466  user.rewardDebt = 0 */\n      sstore\n        /* \"staking.sol\":5505:5516  rewardToken */\n      sload(0x05)\n        /* \"staking.sol\":5477:5537  TransferHelper.safeTransfer(rewardToken, msg.sender, amount) */\n      tag_129\n      swap1\n      sub(shl(0xa0, 0x01), 0x01)\n        /* \"staking.sol\":5505:5516  rewardToken */\n      and\n        /* \"staking.sol\":5518:5528  msg.sender */\n      caller\n        /* \"staking.sol\":5530:5536  amount */\n      dup4\n        /* \"staking.sol\":5477:5504  TransferHelper.safeTransfer */\n      tag_117\n        /* \"staking.sol\":5477:5537  TransferHelper.safeTransfer(rewardToken, msg.sender, amount) */\n      jump\t// in\n    tag_129:\n        /* \"staking.sol\":5553:5579  Reward(msg.sender, amount) */\n      mload(0x40)\n        /* \"#utility.yul\":6008:6033   */\n      dup2\n      dup2\n      mstore\n        /* \"staking.sol\":5560:5570  msg.sender */\n      caller\n      swap1\n        /* \"staking.sol\":5553:5579  Reward(msg.sender, amount) */\n      0x619caafabdd75649b302ba8419e48cccf64f37f1983ac4727cfb38b57703ffc9\n      swap1\n        /* \"#utility.yul\":5996:5998   */\n      0x20\n        /* \"#utility.yul\":5981:5999   */\n      add\n        /* \"staking.sol\":5553:5579  Reward(msg.sender, amount) */\n      mload(0x40)\n      dup1\n      swap2\n      sub\n      swap1\n      log2\n        /* \"staking.sol\":5187:5587  function claim() public {\r... */\n      pop\n      pop\n      jump\t// out\n        /* \"staking.sol\":1548:1650  function updateLpTokenAddress(address _address) public onlyOwner {\r... */\n    tag_51:\n        /* \"Ownable.sol\":1109:1116  address */\n      0x00\n        /* \"Ownable.sol\":1136:1142  _owner */\n      sload\n      sub(shl(0xa0, 0x01), 0x01)\n      and\n        /* \"Context.sol\":736:746  msg.sender */\n      caller\n        /* \"Ownable.sol\":1283:1306  owner() == _msgSender() */\n      eq\n        /* \"Ownable.sol\":1275:1343  require(owner() == _msgSender(), \"Ownable: caller is not the owner\") */\n      tag_135\n      jumpi\n      mload(0x40)\n      shl(0xe5, 0x461bcd)\n      dup2\n      mstore\n      0x04\n      add\n      tag_104\n      swap1\n      tag_137\n      jump\t// in\n    tag_135:\n        /* \"staking.sol\":1624:1631  lpToken */\n      0x01\n        /* \"staking.sol\":1624:1642  lpToken = _address */\n      dup1\n      sload\n      not(sub(shl(0xa0, 0x01), 0x01))\n      and\n      sub(shl(0xa0, 0x01), 0x01)\n      swap3\n      swap1\n      swap3\n      and\n      swap2\n      swap1\n      swap2\n      or\n      swap1\n      sstore\n        /* \"staking.sol\":1548:1650  function updateLpTokenAddress(address _address) public onlyOwner {\r... */\n      jump\t// out\n        /* \"staking.sol\":1879:2053  function userStakedLpAmount(uint256 userNum) public view returns (uint256) {\r... */\n    tag_55:\n        /* \"staking.sol\":1945:1952  uint256 */\n      0x00\n        /* \"staking.sol\":1965:1986  UserInfo storage user */\n      dup1\n        /* \"staking.sol\":1989:1997  userInfo */\n      0x07\n        /* \"staking.sol\":1989:2016  userInfo[userList[userNum]] */\n      0x00\n        /* \"staking.sol\":1998:2006  userList */\n      0x08\n        /* \"staking.sol\":2007:2014  userNum */\n      dup6\n        /* \"staking.sol\":1998:2015  userList[userNum] */\n      dup2\n      sload\n      dup2\n      lt\n      tag_140\n      jumpi\n      mstore(0x00, shl(0xe0, 0x4e487b71))\n      mstore(0x04, 0x32)\n      revert(0x00, 0x24)\n    tag_140:\n      0x00\n      swap2\n      dup3\n      mstore\n      0x20\n      dup1\n      dup4\n      keccak256\n      swap1\n      swap2\n      add\n      sload\n      sub(shl(0xa0, 0x01), 0x01)\n      and\n        /* \"staking.sol\":1989:2016  userInfo[userList[userNum]] */\n      dup4\n      mstore\n      dup3\n      add\n      swap3\n      swap1\n      swap3\n      mstore\n      0x40\n      add\n      swap1\n      keccak256\n        /* \"staking.sol\":2034:2045  user.amount */\n      sload\n      swap4\n        /* \"staking.sol\":1879:2053  function userStakedLpAmount(uint256 userNum) public view returns (uint256) {\r... */\n      swap3\n      pop\n      pop\n      pop\n      jump\t// out\n        /* \"staking.sol\":2061:2525  function ecioClaimPossible(address _useraddress) public view returns (uint256) {\r... */\n    tag_59:\n      sub(shl(0xa0, 0x01), 0x01)\n        /* \"staking.sol\":2175:2197  userInfo[_useraddress] */\n      dup2\n      and\n        /* \"staking.sol\":2131:2138  uint256 */\n      0x00\n        /* \"staking.sol\":2175:2197  userInfo[_useraddress] */\n      swap1\n      dup2\n      mstore\n        /* \"staking.sol\":2175:2183  userInfo */\n      0x07\n        /* \"staking.sol\":2175:2197  userInfo[_useraddress] */\n      0x20\n      mstore\n      0x40\n      dup2\n      keccak256\n        /* \"staking.sol\":2344:2372  user.lastCalculatedTimeStamp */\n      0x03\n      dup2\n      add\n      sload\n        /* \"staking.sol\":2232:2247  block.timestamp */\n      timestamp\n      swap1\n        /* \"staking.sol\":2131:2138  uint256 */\n      dup4\n      swap1\n      dup2\n      swap1\n        /* \"staking.sol\":2377:2383  1 days */\n      0x015180\n      swap1\n        /* \"staking.sol\":2328:2372  lastTimeStamp - user.lastCalculatedTimeStamp */\n      tag_143\n      swap1\n        /* \"staking.sol\":2232:2247  block.timestamp */\n      dup6\n        /* \"staking.sol\":2328:2372  lastTimeStamp - user.lastCalculatedTimeStamp */\n      tag_119\n      jump\t// in\n    tag_143:\n        /* \"staking.sol\":2327:2384  (lastTimeStamp - user.lastCalculatedTimeStamp) / (1 days) */\n      tag_144\n      swap2\n      swap1\n      tag_145\n      jump\t// in\n    tag_144:\n        /* \"staking.sol\":2300:2384  uint256 virtualActiveDay = (lastTimeStamp - user.lastCalculatedTimeStamp) / (1 days) */\n      swap1\n      pop\n        /* \"staking.sol\":2469:2480  totalAmount */\n      sload(0x02)\n        /* \"staking.sol\":2451:2465  REWARD_PER_DAY */\n      sload(0x04)\n        /* \"staking.sol\":2437:2441  user */\n      dup6\n        /* \"staking.sol\":2437:2448  user.amount */\n      0x00\n      add\n      sload\n        /* \"staking.sol\":2418:2434  virtualActiveDay */\n      dup4\n        /* \"staking.sol\":2418:2448  virtualActiveDay * user.amount */\n      tag_146\n      swap2\n      swap1\n      tag_147\n      jump\t// in\n    tag_146:\n        /* \"staking.sol\":2418:2465  virtualActiveDay * user.amount * REWARD_PER_DAY */\n      tag_148\n      swap2\n      swap1\n      tag_147\n      jump\t// in\n    tag_148:\n        /* \"staking.sol\":2417:2480  (virtualActiveDay * user.amount * REWARD_PER_DAY) / totalAmount */\n      tag_149\n      swap2\n      swap1\n      tag_145\n      jump\t// in\n    tag_149:\n        /* \"staking.sol\":2395:2480  virtualRewardAmount = (virtualActiveDay * user.amount * REWARD_PER_DAY) / totalAmount */\n      swap7\n        /* \"staking.sol\":2061:2525  function ecioClaimPossible(address _useraddress) public view returns (uint256) {\r... */\n      swap6\n      pop\n      pop\n      pop\n      pop\n      pop\n      pop\n      jump\t// out\n        /* \"Ownable.sol\":1714:1817  function renounceOwnership() public virtual onlyOwner {\r... */\n    tag_62:\n        /* \"Ownable.sol\":1109:1116  address */\n      0x00\n        /* \"Ownable.sol\":1136:1142  _owner */\n      sload\n      sub(shl(0xa0, 0x01), 0x01)\n      and\n        /* \"Context.sol\":736:746  msg.sender */\n      caller\n        /* \"Ownable.sol\":1283:1306  owner() == _msgSender() */\n      eq\n        /* \"Ownable.sol\":1275:1343  require(owner() == _msgSender(), \"Ownable: caller is not the owner\") */\n      tag_153\n      jumpi\n      mload(0x40)\n      shl(0xe5, 0x461bcd)\n      dup2\n      mstore\n      0x04\n      add\n      tag_104\n      swap1\n      tag_137\n      jump\t// in\n    tag_153:\n        /* \"Ownable.sol\":1779:1809  _transferOwnership(address(0)) */\n      tag_156\n        /* \"Ownable.sol\":1806:1807  0 */\n      0x00\n        /* \"Ownable.sol\":1779:1797  _transferOwnership */\n      tag_157\n        /* \"Ownable.sol\":1779:1809  _transferOwnership(address(0)) */\n      jump\t// in\n    tag_156:\n        /* \"Ownable.sol\":1714:1817  function renounceOwnership() public virtual onlyOwner {\r... */\n      jump\t// out\n        /* \"staking.sol\":1760:1871  function userAddress(uint256 userNum) public view returns (address) {\r... */\n    tag_68:\n        /* \"staking.sol\":1819:1826  address */\n      0x00\n        /* \"staking.sol\":1846:1854  userList */\n      0x08\n        /* \"staking.sol\":1855:1862  userNum */\n      dup3\n        /* \"staking.sol\":1846:1863  userList[userNum] */\n      dup2\n      sload\n      dup2\n      lt\n      tag_160\n      jumpi\n      mstore(0x00, shl(0xe0, 0x4e487b71))\n      mstore(0x04, 0x32)\n      revert(0x00, 0x24)\n    tag_160:\n      0x00\n      swap2\n      dup3\n      mstore\n      0x20\n      swap1\n      swap2\n      keccak256\n      add\n      sload\n      sub(shl(0xa0, 0x01), 0x01)\n      and\n      swap3\n        /* \"staking.sol\":1760:1871  function userAddress(uint256 userNum) public view returns (address) {\r... */\n      swap2\n      pop\n      pop\n      jump\t// out\n        /* \"staking.sol\":856:881  address[] public userList */\n    tag_72:\n      0x08\n      dup2\n      dup2\n      sload\n      dup2\n      lt\n      tag_162\n      jumpi\n      0x00\n      dup1\n      revert\n    tag_162:\n      0x00\n      swap2\n      dup3\n      mstore\n      0x20\n      swap1\n      swap2\n      keccak256\n      add\n      sload\n      sub(shl(0xa0, 0x01), 0x01)\n      and\n      swap1\n      pop\n      dup2\n      jump\t// out\n        /* \"staking.sol\":3203:4232  function stake(uint256 amount) public {\r... */\n    tag_76:\n        /* \"staking.sol\":3269:3270  0 */\n      0x00\n        /* \"staking.sol\":3260:3266  amount */\n      dup2\n        /* \"staking.sol\":3260:3270  amount > 0 */\n      gt\n        /* \"staking.sol\":3252:3289  require(amount > 0, \"invaild amount\") */\n      tag_165\n      jumpi\n      mload(0x40)\n      shl(0xe5, 0x461bcd)\n      dup2\n      mstore\n        /* \"#utility.yul\":2737:2739   */\n      0x20\n        /* \"staking.sol\":3252:3289  require(amount > 0, \"invaild amount\") */\n      0x04\n      dup3\n      add\n        /* \"#utility.yul\":2719:2740   */\n      mstore\n        /* \"#utility.yul\":2776:2778   */\n      0x0e\n        /* \"#utility.yul\":2756:2774   */\n      0x24\n      dup3\n      add\n        /* \"#utility.yul\":2749:2779   */\n      mstore\n      shl(0x92, 0x1a5b9d985a5b1908185b5bdd5b9d)\n        /* \"#utility.yul\":2795:2813   */\n      0x44\n      dup3\n      add\n        /* \"#utility.yul\":2788:2832   */\n      mstore\n        /* \"#utility.yul\":2849:2867   */\n      0x64\n      add\n        /* \"staking.sol\":3252:3289  require(amount > 0, \"invaild amount\") */\n      tag_104\n        /* \"#utility.yul\":2709:2873   */\n      jump\n        /* \"staking.sol\":3252:3289  require(amount > 0, \"invaild amount\") */\n    tag_165:\n        /* \"staking.sol\":3332:3339  lpToken */\n      sload(0x01)\n        /* \"staking.sol\":3300:3375  TransferHelper.safeTransferFrom(lpToken, msg.sender, address(this), amount) */\n      tag_168\n      swap1\n      sub(shl(0xa0, 0x01), 0x01)\n        /* \"staking.sol\":3332:3339  lpToken */\n      and\n        /* \"staking.sol\":3341:3351  msg.sender */\n      caller\n        /* \"staking.sol\":3361:3365  this */\n      address\n        /* \"staking.sol\":3368:3374  amount */\n      dup5\n        /* \"staking.sol\":3300:3331  TransferHelper.safeTransferFrom */\n      tag_169\n        /* \"staking.sol\":3300:3375  TransferHelper.safeTransferFrom(lpToken, msg.sender, address(this), amount) */\n      jump\t// in\n    tag_168:\n        /* \"staking.sol\":3419:3429  msg.sender */\n      caller\n        /* \"staking.sol\":3386:3407  UserInfo storage user */\n      0x00\n        /* \"staking.sol\":3410:3430  userInfo[msg.sender] */\n      swap1\n      dup2\n      mstore\n        /* \"staking.sol\":3410:3418  userInfo */\n      0x07\n        /* \"staking.sol\":3410:3430  userInfo[msg.sender] */\n      0x20\n      mstore\n      0x40\n      dup2\n      keccak256\n      swap1\n        /* \"staking.sol\":3456:3460  true */\n      0x01\n      swap1\n        /* \"staking.sol\":3471:3621  for (uint i = 0; i < userList.length; i++) {\r... */\n    tag_170:\n        /* \"staking.sol\":3492:3500  userList */\n      0x08\n        /* \"staking.sol\":3492:3507  userList.length */\n      sload\n        /* \"staking.sol\":3488:3507  i < userList.length */\n      dup2\n      lt\n        /* \"staking.sol\":3471:3621  for (uint i = 0; i < userList.length; i++) {\r... */\n      iszero\n      tag_171\n      jumpi\n        /* \"staking.sol\":3548:3558  msg.sender */\n      caller\n      sub(shl(0xa0, 0x01), 0x01)\n        /* \"staking.sol\":3533:3558  userList[i] == msg.sender */\n      and\n        /* \"staking.sol\":3533:3541  userList */\n      0x08\n        /* \"staking.sol\":3542:3543  i */\n      dup3\n        /* \"staking.sol\":3533:3544  userList[i] */\n      dup2\n      sload\n      dup2\n      lt\n      tag_173\n      jumpi\n      mstore(0x00, shl(0xe0, 0x4e487b71))\n      mstore(0x04, 0x32)\n      revert(0x00, 0x24)\n    tag_173:\n      0x00\n      swap2\n      dup3\n      mstore\n      0x20\n      swap1\n      swap2\n      keccak256\n      add\n      sload\n      sub(shl(0xa0, 0x01), 0x01)\n      and\n        /* \"staking.sol\":3533:3558  userList[i] == msg.sender */\n      eq\n        /* \"staking.sol\":3529:3610  if (userList[i] == msg.sender) {\r... */\n      iszero\n      tag_175\n      jumpi\n        /* \"staking.sol\":3589:3594  false */\n      0x00\n        /* \"staking.sol\":3579:3594  isFirst = false */\n      swap2\n      pop\n        /* \"staking.sol\":3529:3610  if (userList[i] == msg.sender) {\r... */\n    tag_175:\n        /* \"staking.sol\":3509:3512  i++ */\n      dup1\n      tag_176\n      dup2\n      tag_177\n      jump\t// in\n    tag_176:\n      swap2\n      pop\n      pop\n        /* \"staking.sol\":3471:3621  for (uint i = 0; i < userList.length; i++) {\r... */\n      jump(tag_170)\n    tag_171:\n      pop\n        /* \"staking.sol\":3631:3643  updatePool() */\n      tag_178\n        /* \"staking.sol\":3631:3641  updatePool */\n      tag_115\n        /* \"staking.sol\":3631:3643  updatePool() */\n      jump\t// in\n    tag_178:\n        /* \"staking.sol\":3658:3665  isFirst */\n      dup1\n        /* \"staking.sol\":3654:4137  if (isFirst) {\r... */\n      iszero\n      tag_179\n      jumpi\n        /* \"staking.sol\":3682:3690  userList */\n      0x08\n        /* \"staking.sol\":3682:3707  userList.push(msg.sender) */\n      dup1\n      sload\n      0x01\n      dup2\n      dup2\n      add\n      dup4\n      sstore\n      0x00\n      swap3\n      dup4\n      mstore\n      0xf3f7a9fe364faab93b216da50a3214154f22a0a2b415b23a84c8169e8b636ee3\n      swap1\n      swap2\n      add\n      dup1\n      sload\n      not(sub(shl(0xa0, 0x01), 0x01))\n      and\n        /* \"staking.sol\":3696:3706  msg.sender */\n      caller\n        /* \"staking.sol\":3682:3707  userList.push(msg.sender) */\n      or\n      swap1\n      sstore\n        /* \"staking.sol\":3722:3742  user.amount = amount */\n      dup5\n      dup5\n      sstore\n        /* \"staking.sol\":3757:3770  user.rewarded */\n      dup4\n      add\n        /* \"staking.sol\":3757:3774  user.rewarded = 0 */\n      dup2\n      swap1\n      sstore\n        /* \"staking.sol\":3789:3804  user.rewardDebt */\n      0x02\n      dup4\n      add\n        /* \"staking.sol\":3789:3808  user.rewardDebt = 0 */\n      sstore\n        /* \"staking.sol\":3851:3866  block.timestamp */\n      timestamp\n        /* \"staking.sol\":3823:3848  user.lastDepositTimeStamp */\n      0x04\n      dup4\n      add\n        /* \"staking.sol\":3823:3866  user.lastDepositTimeStamp = block.timestamp */\n      dup2\n      swap1\n      sstore\n        /* \"staking.sol\":3881:3909  user.lastCalculatedTimeStamp */\n      0x03\n      dup4\n      add\n        /* \"staking.sol\":3881:3927  user.lastCalculatedTimeStamp = block.timestamp */\n      sstore\n        /* \"staking.sol\":3654:4137  if (isFirst) {\r... */\n      jump(tag_181)\n    tag_179:\n        /* \"staking.sol\":3986:3997  user.amount */\n      dup2\n      sload\n        /* \"staking.sol\":3986:4006  user.amount + amount */\n      tag_182\n      swap1\n        /* \"staking.sol\":4000:4006  amount */\n      dup5\n      swap1\n        /* \"staking.sol\":3986:4006  user.amount + amount */\n      tag_110\n      jump\t// in\n    tag_182:\n        /* \"staking.sol\":3972:4006  user.amount = user.amount + amount */\n      dup3\n      sstore\n        /* \"staking.sol\":4049:4064  block.timestamp */\n      timestamp\n        /* \"staking.sol\":4021:4046  user.lastDepositTimeStamp */\n      0x04\n      dup4\n      add\n        /* \"staking.sol\":4021:4064  user.lastDepositTimeStamp = block.timestamp */\n      dup2\n      swap1\n      sstore\n        /* \"staking.sol\":4079:4107  user.lastCalculatedTimeStamp */\n      0x03\n      dup4\n      add\n        /* \"staking.sol\":4079:4125  user.lastCalculatedTimeStamp = block.timestamp */\n      sstore\n        /* \"staking.sol\":3654:4137  if (isFirst) {\r... */\n    tag_181:\n        /* \"staking.sol\":4175:4181  amount */\n      dup3\n        /* \"staking.sol\":4161:4172  totalAmount */\n      sload(0x02)\n        /* \"staking.sol\":4161:4181  totalAmount + amount */\n      tag_183\n      swap2\n      swap1\n      tag_110\n      jump\t// in\n    tag_183:\n        /* \"staking.sol\":4147:4158  totalAmount */\n      0x02\n        /* \"staking.sol\":4147:4181  totalAmount = totalAmount + amount */\n      sstore\n        /* \"staking.sol\":4197:4224  Deposit(msg.sender, amount) */\n      mload(0x40)\n        /* \"#utility.yul\":6008:6033   */\n      dup4\n      dup2\n      mstore\n        /* \"staking.sol\":4205:4215  msg.sender */\n      caller\n      swap1\n        /* \"staking.sol\":4197:4224  Deposit(msg.sender, amount) */\n      0xe1fffcc4923d04b559f4d29a8bfc6cda04eb5b0d3c460751c2402c5c5cc9109c\n      swap1\n        /* \"#utility.yul\":5996:5998   */\n      0x20\n        /* \"#utility.yul\":5981:5999   */\n      add\n        /* \"staking.sol\":4197:4224  Deposit(msg.sender, amount) */\n      mload(0x40)\n      dup1\n      swap2\n      sub\n      swap1\n      log2\n        /* \"staking.sol\":3203:4232  function stake(uint256 amount) public {\r... */\n      pop\n      pop\n      pop\n      jump\t// out\n        /* \"Ownable.sol\":1972:2173  function transferOwnership(address newOwner) public virtual onlyOwner {\r... */\n    tag_88:\n        /* \"Ownable.sol\":1109:1116  address */\n      0x00\n        /* \"Ownable.sol\":1136:1142  _owner */\n      sload\n      sub(shl(0xa0, 0x01), 0x01)\n      and\n        /* \"Context.sol\":736:746  msg.sender */\n      caller\n        /* \"Ownable.sol\":1283:1306  owner() == _msgSender() */\n      eq\n        /* \"Ownable.sol\":1275:1343  require(owner() == _msgSender(), \"Ownable: caller is not the owner\") */\n      tag_190\n      jumpi\n      mload(0x40)\n      shl(0xe5, 0x461bcd)\n      dup2\n      mstore\n      0x04\n      add\n      tag_104\n      swap1\n      tag_137\n      jump\t// in\n    tag_190:\n      sub(shl(0xa0, 0x01), 0x01)\n        /* \"Ownable.sol\":2061:2083  newOwner != address(0) */\n      dup2\n      and\n        /* \"Ownable.sol\":2053:2126  require(newOwner != address(0), \"Ownable: new owner is the zero address\") */\n      tag_193\n      jumpi\n      mload(0x40)\n      shl(0xe5, 0x461bcd)\n      dup2\n      mstore\n        /* \"#utility.yul\":3080:3082   */\n      0x20\n        /* \"Ownable.sol\":2053:2126  require(newOwner != address(0), \"Ownable: new owner is the zero address\") */\n      0x04\n      dup3\n      add\n        /* \"#utility.yul\":3062:3083   */\n      mstore\n        /* \"#utility.yul\":3119:3121   */\n      0x26\n        /* \"#utility.yul\":3099:3117   */\n      0x24\n      dup3\n      add\n        /* \"#utility.yul\":3092:3122   */\n      mstore\n        /* \"#utility.yul\":3158:3192   */\n      0x4f776e61626c653a206e6577206f776e657220697320746865207a65726f2061\n        /* \"#utility.yul\":3138:3156   */\n      0x44\n      dup3\n      add\n        /* \"#utility.yul\":3131:3193   */\n      mstore\n      shl(0xd0, 0x646472657373)\n        /* \"#utility.yul\":3209:3227   */\n      0x64\n      dup3\n      add\n        /* \"#utility.yul\":3202:3238   */\n      mstore\n        /* \"#utility.yul\":3255:3274   */\n      0x84\n      add\n        /* \"Ownable.sol\":2053:2126  require(newOwner != address(0), \"Ownable: new owner is the zero address\") */\n      tag_104\n        /* \"#utility.yul\":3052:3280   */\n      jump\n        /* \"Ownable.sol\":2053:2126  require(newOwner != address(0), \"Ownable: new owner is the zero address\") */\n    tag_193:\n        /* \"Ownable.sol\":2137:2165  _transferOwnership(newOwner) */\n      tag_196\n        /* \"Ownable.sol\":2156:2164  newOwner */\n      dup2\n        /* \"Ownable.sol\":2137:2155  _transferOwnership */\n      tag_157\n        /* \"Ownable.sol\":2137:2165  _transferOwnership(newOwner) */\n      jump\t// in\n    tag_196:\n        /* \"Ownable.sol\":1972:2173  function transferOwnership(address newOwner) public virtual onlyOwner {\r... */\n      pop\n      jump\t// out\n        /* \"staking.sol\":5595:5792  function transferToken(address _contractAddress, address _to, uint256 _amount) external onlyOwner {\r... */\n    tag_92:\n        /* \"Ownable.sol\":1109:1116  address */\n      0x00\n        /* \"Ownable.sol\":1136:1142  _owner */\n      sload\n      sub(shl(0xa0, 0x01), 0x01)\n      and\n        /* \"Context.sol\":736:746  msg.sender */\n      caller\n        /* \"Ownable.sol\":1283:1306  owner() == _msgSender() */\n      eq\n        /* \"Ownable.sol\":1275:1343  require(owner() == _msgSender(), \"Ownable: caller is not the owner\") */\n      tag_200\n      jumpi\n      mload(0x40)\n      shl(0xe5, 0x461bcd)\n      dup2\n      mstore\n      0x04\n      add\n      tag_104\n      swap1\n      tag_137\n      jump\t// in\n    tag_200:\n        /* \"staking.sol\":5755:5784  _token.transfer(_to, _amount) */\n      mload(0x40)\n      shl(0xe0, 0xa9059cbb)\n      dup2\n      mstore\n      sub(shl(0xa0, 0x01), 0x01)\n        /* \"#utility.yul\":2448:2480   */\n      dup4\n      dup2\n      and\n        /* \"staking.sol\":5755:5784  _token.transfer(_to, _amount) */\n      0x04\n      dup4\n      add\n        /* \"#utility.yul\":2430:2481   */\n      mstore\n        /* \"#utility.yul\":2497:2515   */\n      0x24\n      dup3\n      add\n        /* \"#utility.yul\":2490:2524   */\n      dup4\n      swap1\n      mstore\n        /* \"staking.sol\":5727:5743  _contractAddress */\n      dup5\n      swap2\n        /* \"staking.sol\":5755:5770  _token.transfer */\n      swap1\n      dup3\n      and\n      swap1\n      0xa9059cbb\n      swap1\n        /* \"#utility.yul\":2403:2421   */\n      0x44\n      add\n        /* \"staking.sol\":5755:5784  _token.transfer(_to, _amount) */\n      0x20\n      mload(0x40)\n      dup1\n      dup4\n      sub\n      dup2\n      0x00\n      dup8\n      dup1\n      extcodesize\n      iszero\n      dup1\n      iszero\n      tag_205\n      jumpi\n      0x00\n      dup1\n      revert\n    tag_205:\n      pop\n      gas\n      call\n      iszero\n      dup1\n      iszero\n      tag_207\n      jumpi\n      returndatasize\n      0x00\n      dup1\n      returndatacopy\n      revert(0x00, returndatasize)\n    tag_207:\n      pop\n      pop\n      pop\n      pop\n      mload(0x40)\n      returndatasize\n      not(0x1f)\n      0x1f\n      dup3\n      add\n      and\n      dup3\n      add\n      dup1\n      0x40\n      mstore\n      pop\n      dup2\n      add\n      swap1\n      tag_208\n      swap2\n      swap1\n      tag_209\n      jump\t// in\n    tag_208:\n      pop\n        /* \"Ownable.sol\":1354:1355  _ */\n      pop\n        /* \"staking.sol\":5595:5792  function transferToken(address _contractAddress, address _to, uint256 _amount) external onlyOwner {\r... */\n      pop\n      pop\n      pop\n      jump\t// out\n        /* \"staking.sol\":1426:1536  function updateRewardTokenAddress(address _address) public onlyOwner {\r... */\n    tag_101:\n        /* \"Ownable.sol\":1109:1116  address */\n      0x00\n        /* \"Ownable.sol\":1136:1142  _owner */\n      sload\n      sub(shl(0xa0, 0x01), 0x01)\n      and\n        /* \"Context.sol\":736:746  msg.sender */\n      caller\n        /* \"Ownable.sol\":1283:1306  owner() == _msgSender() */\n      eq\n        /* \"Ownable.sol\":1275:1343  require(owner() == _msgSender(), \"Ownable: caller is not the owner\") */\n      tag_213\n      jumpi\n      mload(0x40)\n      shl(0xe5, 0x461bcd)\n      dup2\n      mstore\n      0x04\n      add\n      tag_104\n      swap1\n      tag_137\n      jump\t// in\n    tag_213:\n        /* \"staking.sol\":1506:1517  rewardToken */\n      0x05\n        /* \"staking.sol\":1506:1528  rewardToken = _address */\n      dup1\n      sload\n      not(sub(shl(0xa0, 0x01), 0x01))\n      and\n      sub(shl(0xa0, 0x01), 0x01)\n      swap3\n      swap1\n      swap3\n      and\n      swap2\n      swap1\n      swap2\n      or\n      swap1\n      sstore\n        /* \"staking.sol\":1426:1536  function updateRewardTokenAddress(address _address) public onlyOwner {\r... */\n      jump\t// out\n        /* \"staking.sol\":2638:3195  function updatePool() internal {\r... */\n    tag_115:\n        /* \"staking.sol\":2685:2691  uint i */\n      0x00\n        /* \"staking.sol\":2680:3188  for (uint i = 0; i < userList.length; i++) {\r... */\n    tag_217:\n        /* \"staking.sol\":2701:2709  userList */\n      0x08\n        /* \"staking.sol\":2701:2716  userList.length */\n      sload\n        /* \"staking.sol\":2697:2716  i < userList.length */\n      dup2\n      lt\n        /* \"staking.sol\":2680:3188  for (uint i = 0; i < userList.length; i++) {\r... */\n      iszero\n      tag_196\n      jumpi\n        /* \"staking.sol\":2738:2759  UserInfo storage user */\n      0x00\n        /* \"staking.sol\":2762:2770  userInfo */\n      0x07\n        /* \"staking.sol\":2762:2783  userInfo[userList[i]] */\n      0x00\n        /* \"staking.sol\":2771:2779  userList */\n      0x08\n        /* \"staking.sol\":2780:2781  i */\n      dup5\n        /* \"staking.sol\":2771:2782  userList[i] */\n      dup2\n      sload\n      dup2\n      lt\n      tag_220\n      jumpi\n      mstore(0x00, shl(0xe0, 0x4e487b71))\n      mstore(0x04, 0x32)\n      revert(0x00, 0x24)\n    tag_220:\n      0x00\n      swap2\n      dup3\n      mstore\n      0x20\n      dup1\n      dup4\n      keccak256\n      swap1\n      swap2\n      add\n      sload\n      sub(shl(0xa0, 0x01), 0x01)\n      and\n        /* \"staking.sol\":2762:2783  userInfo[userList[i]] */\n      dup4\n      mstore\n      dup3\n      add\n      swap3\n      swap1\n      swap3\n      mstore\n      0x40\n      add\n      dup2\n      keccak256\n        /* \"staking.sol\":2891:2919  user.lastCalculatedTimeStamp */\n      0x03\n      dup2\n      add\n      sload\n        /* \"staking.sol\":2762:2783  userInfo[userList[i]] */\n      swap1\n      swap3\n      pop\n        /* \"staking.sol\":2822:2837  block.timestamp */\n      timestamp\n      swap2\n        /* \"staking.sol\":2771:2782  userList[i] */\n      swap1\n        /* \"staking.sol\":2923:2929  1 days */\n      0x015180\n      swap1\n        /* \"staking.sol\":2875:2919  lastTimeStamp - user.lastCalculatedTimeStamp */\n      tag_222\n      swap1\n        /* \"staking.sol\":2822:2837  block.timestamp */\n      dup5\n        /* \"staking.sol\":2875:2919  lastTimeStamp - user.lastCalculatedTimeStamp */\n      tag_119\n      jump\t// in\n    tag_222:\n        /* \"staking.sol\":2874:2929  (lastTimeStamp - user.lastCalculatedTimeStamp) / 1 days */\n      tag_223\n      swap2\n      swap1\n      tag_145\n      jump\t// in\n    tag_223:\n        /* \"staking.sol\":3007:3018  totalAmount */\n      sload(0x02)\n        /* \"staking.sol\":2993:3004  user.amount */\n      dup5\n      sload\n        /* \"staking.sol\":2976:2990  REWARD_PER_DAY */\n      sload(0x04)\n        /* \"staking.sol\":2852:2929  uint256 rewardedDay = (lastTimeStamp - user.lastCalculatedTimeStamp) / 1 days */\n      swap3\n      swap4\n      pop\n        /* \"staking.sol\":2944:2959  uint256 accDebt */\n      0x00\n      swap3\n        /* \"staking.sol\":2962:2990  rewardedDay * REWARD_PER_DAY */\n      tag_224\n      swap1\n        /* \"staking.sol\":2852:2929  uint256 rewardedDay = (lastTimeStamp - user.lastCalculatedTimeStamp) / 1 days */\n      dup6\n        /* \"staking.sol\":2962:2990  rewardedDay * REWARD_PER_DAY */\n      tag_147\n      jump\t// in\n    tag_224:\n        /* \"staking.sol\":2962:3004  rewardedDay * REWARD_PER_DAY * user.amount */\n      tag_225\n      swap2\n      swap1\n      tag_147\n      jump\t// in\n    tag_225:\n        /* \"staking.sol\":2962:3018  rewardedDay * REWARD_PER_DAY * user.amount / totalAmount */\n      tag_226\n      swap2\n      swap1\n      tag_145\n      jump\t// in\n    tag_226:\n        /* \"staking.sol\":3051:3066  user.rewardDebt */\n      0x02\n      dup6\n      add\n      sload\n        /* \"staking.sol\":2944:3018  uint256 accDebt = rewardedDay * REWARD_PER_DAY * user.amount / totalAmount */\n      swap1\n      swap2\n      pop\n        /* \"staking.sol\":3051:3079  user.rewardDebt.add(accDebt) */\n      tag_227\n      swap1\n        /* \"staking.sol\":2944:3018  uint256 accDebt = rewardedDay * REWARD_PER_DAY * user.amount / totalAmount */\n      dup3\n        /* \"staking.sol\":3051:3070  user.rewardDebt.add */\n      tag_228\n        /* \"staking.sol\":3051:3079  user.rewardDebt.add(accDebt) */\n      jump\t// in\n    tag_227:\n        /* \"staking.sol\":3033:3048  user.rewardDebt */\n      0x02\n      dup6\n      add\n        /* \"staking.sol\":3033:3079  user.rewardDebt = user.rewardDebt.add(accDebt) */\n      sstore\n        /* \"staking.sol\":3156:3176  rewardedDay * 1 days */\n      tag_229\n        /* \"staking.sol\":3156:3167  rewardedDay */\n      dup3\n        /* \"staking.sol\":3170:3176  1 days */\n      0x015180\n        /* \"staking.sol\":3156:3176  rewardedDay * 1 days */\n      tag_147\n      jump\t// in\n    tag_229:\n        /* \"staking.sol\":3125:3129  user */\n      dup5\n        /* \"staking.sol\":3125:3153  user.lastCalculatedTimeStamp */\n      0x03\n      add\n      sload\n        /* \"staking.sol\":3125:3176  user.lastCalculatedTimeStamp + rewardedDay * 1 days */\n      tag_230\n      swap2\n      swap1\n      tag_110\n      jump\t// in\n    tag_230:\n        /* \"staking.sol\":3094:3098  user */\n      dup5\n        /* \"staking.sol\":3094:3122  user.lastCalculatedTimeStamp */\n      0x03\n      add\n        /* \"staking.sol\":3094:3176  user.lastCalculatedTimeStamp = user.lastCalculatedTimeStamp + rewardedDay * 1 days */\n      dup2\n      swap1\n      sstore\n      pop\n        /* \"staking.sol\":2680:3188  for (uint i = 0; i < userList.length; i++) {\r... */\n      pop\n      pop\n      pop\n      pop\n        /* \"staking.sol\":2718:2721  i++ */\n      dup1\n      dup1\n      tag_231\n      swap1\n      tag_177\n      jump\t// in\n    tag_231:\n      swap2\n      pop\n      pop\n        /* \"staking.sol\":2680:3188  for (uint i = 0; i < userList.length; i++) {\r... */\n      jump(tag_217)\n        /* \"TransferHelper.sol\":671:1120  function safeTransfer(\r... */\n    tag_117:\n        /* \"TransferHelper.sol\":903:948  abi.encodeWithSelector(0xa9059cbb, to, value) */\n      0x40\n      dup1\n      mload\n      sub(shl(0xa0, 0x01), 0x01)\n        /* \"#utility.yul\":2448:2480   */\n      dup5\n      dup2\n      and\n        /* \"TransferHelper.sol\":903:948  abi.encodeWithSelector(0xa9059cbb, to, value) */\n      0x24\n      dup4\n      add\n        /* \"#utility.yul\":2430:2481   */\n      mstore\n        /* \"#utility.yul\":2497:2515   */\n      0x44\n      dup1\n      dup4\n      add\n        /* \"#utility.yul\":2490:2524   */\n      dup6\n      swap1\n      mstore\n        /* \"TransferHelper.sol\":903:948  abi.encodeWithSelector(0xa9059cbb, to, value) */\n      dup4\n      mload\n      dup1\n      dup5\n      sub\n      swap1\n      swap2\n      add\n      dup2\n      mstore\n        /* \"#utility.yul\":2403:2421   */\n      0x64\n      swap1\n      swap3\n      add\n        /* \"TransferHelper.sol\":903:948  abi.encodeWithSelector(0xa9059cbb, to, value) */\n      dup4\n      mstore\n      0x20\n      dup3\n      add\n      dup1\n      mload\n      sub(shl(0xe0, 0x01), 0x01)\n      and\n      shl(0xe0, 0xa9059cbb)\n      or\n      swap1\n      mstore\n        /* \"TransferHelper.sol\":892:949  token.call(abi.encodeWithSelector(0xa9059cbb, to, value)) */\n      swap2\n      mload\n      0x00\n      swap3\n      dup4\n      swap3\n        /* \"TransferHelper.sol\":892:902  token.call */\n      swap1\n      dup8\n      and\n      swap2\n        /* \"TransferHelper.sol\":892:949  token.call(abi.encodeWithSelector(0xa9059cbb, to, value)) */\n      tag_234\n      swap2\n        /* \"TransferHelper.sol\":903:948  abi.encodeWithSelector(0xa9059cbb, to, value) */\n      swap1\n        /* \"TransferHelper.sol\":892:949  token.call(abi.encodeWithSelector(0xa9059cbb, to, value)) */\n      tag_235\n      jump\t// in\n    tag_234:\n      0x00\n      mload(0x40)\n      dup1\n      dup4\n      sub\n      dup2\n      0x00\n      dup7\n      gas\n      call\n      swap2\n      pop\n      pop\n      returndatasize\n      dup1\n      0x00\n      dup2\n      eq\n      tag_238\n      jumpi\n      mload(0x40)\n      swap2\n      pop\n      and(add(returndatasize, 0x3f), not(0x1f))\n      dup3\n      add\n      0x40\n      mstore\n      returndatasize\n      dup3\n      mstore\n      returndatasize\n      0x00\n      0x20\n      dup5\n      add\n      returndatacopy\n      jump(tag_237)\n    tag_238:\n      0x60\n      swap2\n      pop\n    tag_237:\n      pop\n        /* \"TransferHelper.sol\":856:949  (bool success, bytes memory data) = token.call(abi.encodeWithSelector(0xa9059cbb, to, value)) */\n      swap2\n      pop\n      swap2\n      pop\n        /* \"TransferHelper.sol\":982:989  success */\n      dup2\n        /* \"TransferHelper.sol\":982:1039  success && (data.length == 0 || abi.decode(data, (bool))) */\n      dup1\n      iszero\n      tag_241\n      jumpi\n      pop\n        /* \"TransferHelper.sol\":994:1005  data.length */\n      dup1\n      mload\n        /* \"TransferHelper.sol\":994:1010  data.length == 0 */\n      iszero\n      dup1\n        /* \"TransferHelper.sol\":994:1038  data.length == 0 || abi.decode(data, (bool)) */\n      tag_241\n      jumpi\n      pop\n        /* \"TransferHelper.sol\":1025:1029  data */\n      dup1\n        /* \"TransferHelper.sol\":1014:1038  abi.decode(data, (bool)) */\n      dup1\n      0x20\n      add\n      swap1\n      mload\n      dup2\n      add\n      swap1\n      tag_241\n      swap2\n      swap1\n      tag_209\n      jump\t// in\n    tag_241:\n        /* \"TransferHelper.sol\":960:1112  require(\r... */\n      tag_208\n      jumpi\n      mload(0x40)\n      shl(0xe5, 0x461bcd)\n      dup2\n      mstore\n        /* \"#utility.yul\":4958:4960   */\n      0x20\n        /* \"TransferHelper.sol\":960:1112  require(\r... */\n      0x04\n      dup3\n      add\n        /* \"#utility.yul\":4940:4961   */\n      mstore\n        /* \"#utility.yul\":4997:4999   */\n      0x2d\n        /* \"#utility.yul\":4977:4995   */\n      0x24\n      dup3\n      add\n        /* \"#utility.yul\":4970:5000   */\n      mstore\n        /* \"#utility.yul\":5036:5070   */\n      0x5472616e7366657248656c7065723a3a736166655472616e736665723a207472\n        /* \"#utility.yul\":5016:5034   */\n      0x44\n      dup3\n      add\n        /* \"#utility.yul\":5009:5071   */\n      mstore\n      shl(0x9a, 0x185b9cd9995c8819985a5b1959)\n        /* \"#utility.yul\":5087:5105   */\n      0x64\n      dup3\n      add\n        /* \"#utility.yul\":5080:5123   */\n      mstore\n        /* \"#utility.yul\":5140:5159   */\n      0x84\n      add\n        /* \"TransferHelper.sol\":960:1112  require(\r... */\n      tag_104\n        /* \"#utility.yul\":4930:5165   */\n      jump\n        /* \"staking.sol\":4240:4647  function deleteBlock() internal {\r... */\n    tag_121:\n        /* \"staking.sol\":4283:4294  bool isUser */\n      0x00\n        /* \"staking.sol\":4317:4326  uint256 i */\n      dup1\n        /* \"staking.sol\":4313:4615  for(uint256 i = 0 ; i < userList.length - 1 ; i ++){\r... */\n    tag_246:\n        /* \"staking.sol\":4337:4345  userList */\n      0x08\n        /* \"staking.sol\":4337:4352  userList.length */\n      sload\n        /* \"staking.sol\":4337:4356  userList.length - 1 */\n      tag_249\n      swap1\n        /* \"staking.sol\":4355:4356  1 */\n      0x01\n      swap1\n        /* \"staking.sol\":4337:4356  userList.length - 1 */\n      tag_119\n      jump\t// in\n    tag_249:\n        /* \"staking.sol\":4333:4334  i */\n      dup2\n        /* \"staking.sol\":4333:4356  i < userList.length - 1 */\n      lt\n        /* \"staking.sol\":4313:4615  for(uint256 i = 0 ; i < userList.length - 1 ; i ++){\r... */\n      iszero\n      tag_247\n      jumpi\n        /* \"staking.sol\":4397:4407  msg.sender */\n      caller\n      sub(shl(0xa0, 0x01), 0x01)\n        /* \"staking.sol\":4382:4407  userList[i] == msg.sender */\n      and\n        /* \"staking.sol\":4382:4390  userList */\n      0x08\n        /* \"staking.sol\":4391:4392  i */\n      dup3\n        /* \"staking.sol\":4382:4393  userList[i] */\n      dup2\n      sload\n      dup2\n      lt\n      tag_250\n      jumpi\n      mstore(0x00, shl(0xe0, 0x4e487b71))\n      mstore(0x04, 0x32)\n      revert(0x00, 0x24)\n    tag_250:\n      0x00\n      swap2\n      dup3\n      mstore\n      0x20\n      swap1\n      swap2\n      keccak256\n      add\n      sload\n      sub(shl(0xa0, 0x01), 0x01)\n      and\n        /* \"staking.sol\":4382:4407  userList[i] == msg.sender */\n      eq\n        /* \"staking.sol\":4379:4483  if(userList[i] == msg.sender){\r... */\n      iszero\n      tag_252\n      jumpi\n        /* \"staking.sol\":4436:4440  true */\n      0x01\n        /* \"staking.sol\":4427:4440  isUser = true */\n      swap2\n      pop\n        /* \"staking.sol\":4459:4467  continue */\n      jump(tag_248)\n        /* \"staking.sol\":4379:4483  if(userList[i] == msg.sender){\r... */\n    tag_252:\n        /* \"staking.sol\":4500:4515  isUser == false */\n      dup2\n        /* \"staking.sol\":4497:4560  if(isUser == false) {\r... */\n      tag_253\n      jumpi\n        /* \"staking.sol\":4536:4544  continue */\n      jump(tag_248)\n        /* \"staking.sol\":4497:4560  if(isUser == false) {\r... */\n    tag_253:\n        /* \"staking.sol\":4588:4596  userList */\n      0x08\n        /* \"staking.sol\":4597:4602  i + 1 */\n      tag_254\n        /* \"staking.sol\":4597:4598  i */\n      dup3\n        /* \"staking.sol\":4601:4602  1 */\n      0x01\n        /* \"staking.sol\":4597:4602  i + 1 */\n      tag_110\n      jump\t// in\n    tag_254:\n        /* \"staking.sol\":4588:4603  userList[i + 1] */\n      dup2\n      sload\n      dup2\n      lt\n      tag_255\n      jumpi\n      mstore(0x00, shl(0xe0, 0x4e487b71))\n      mstore(0x04, 0x32)\n      revert(0x00, 0x24)\n    tag_255:\n      0x00\n      swap2\n      dup3\n      mstore\n      0x20\n      swap1\n      swap2\n      keccak256\n      add\n      sload\n        /* \"staking.sol\":4574:4582  userList */\n      0x08\n        /* \"staking.sol\":4574:4585  userList[i] */\n      dup1\n      sload\n      sub(shl(0xa0, 0x01), 0x01)\n        /* \"staking.sol\":4588:4603  userList[i + 1] */\n      swap1\n      swap3\n      and\n      swap2\n        /* \"staking.sol\":4583:4584  i */\n      dup4\n      swap1\n        /* \"staking.sol\":4574:4585  userList[i] */\n      dup2\n      lt\n      tag_257\n      jumpi\n      mstore(0x00, shl(0xe0, 0x4e487b71))\n      mstore(0x04, 0x32)\n      revert(0x00, 0x24)\n    tag_257:\n      swap1\n      0x00\n      mstore\n      keccak256(0x00, 0x20)\n      add\n      0x00\n        /* \"staking.sol\":4574:4603  userList[i] = userList[i + 1] */\n      0x0100\n      exp\n      dup2\n      sload\n      dup2\n      sub(shl(0xa0, 0x01), 0x01)\n      mul\n      not\n      and\n      swap1\n      dup4\n      sub(shl(0xa0, 0x01), 0x01)\n      and\n      mul\n      or\n      swap1\n      sstore\n      pop\n        /* \"staking.sol\":4313:4615  for(uint256 i = 0 ; i < userList.length - 1 ; i ++){\r... */\n    tag_248:\n        /* \"staking.sol\":4359:4363  i ++ */\n      dup1\n      tag_259\n      dup2\n      tag_177\n      jump\t// in\n    tag_259:\n      swap2\n      pop\n      pop\n        /* \"staking.sol\":4313:4615  for(uint256 i = 0 ; i < userList.length - 1 ; i ++){\r... */\n      jump(tag_246)\n    tag_247:\n      pop\n        /* \"staking.sol\":4625:4633  userList */\n      0x08\n        /* \"staking.sol\":4625:4639  userList.pop() */\n      dup1\n      sload\n      dup1\n      tag_260\n      jumpi\n      mstore(0x00, shl(0xe0, 0x4e487b71))\n      mstore(0x04, 0x31)\n      revert(0x00, 0x24)\n    tag_260:\n      0x00\n      dup3\n      dup2\n      mstore\n      0x20\n      swap1\n      keccak256\n      dup2\n      add\n      not(0x00)\n      swap1\n      dup2\n      add\n      dup1\n      sload\n      not(sub(shl(0xa0, 0x01), 0x01))\n      and\n      swap1\n      sstore\n      add\n      swap1\n      sstore\n      pop\n        /* \"staking.sol\":4240:4647  function deleteBlock() internal {\r... */\n      jump\t// out\n        /* \"Ownable.sol\":2333:2524  function _transferOwnership(address newOwner) internal virtual {\r... */\n    tag_157:\n        /* \"Ownable.sol\":2407:2423  address oldOwner */\n      0x00\n        /* \"Ownable.sol\":2426:2432  _owner */\n      dup1\n      sload\n      sub(shl(0xa0, 0x01), 0x01)\n        /* \"Ownable.sol\":2443:2460  _owner = newOwner */\n      dup4\n      dup2\n      and\n      not(sub(shl(0xa0, 0x01), 0x01))\n      dup4\n      and\n      dup2\n      or\n      dup5\n      sstore\n        /* \"Ownable.sol\":2476:2516  OwnershipTransferred(oldOwner, newOwner) */\n      mload(0x40)\n        /* \"Ownable.sol\":2426:2432  _owner */\n      swap2\n      swap1\n      swap3\n      and\n      swap3\n      dup4\n      swap2\n        /* \"Ownable.sol\":2476:2516  OwnershipTransferred(oldOwner, newOwner) */\n      0x8be0079c531659141344cd1fd0a4f28419497f9722a3daafe3b4186f6b6457e0\n      swap2\n        /* \"Ownable.sol\":2407:2423  address oldOwner */\n      swap1\n        /* \"Ownable.sol\":2476:2516  OwnershipTransferred(oldOwner, newOwner) */\n      log3\n        /* \"Ownable.sol\":2333:2524  function _transferOwnership(address newOwner) internal virtual {\r... */\n      pop\n      pop\n      jump\t// out\n        /* \"TransferHelper.sol\":1128:1626  function safeTransferFrom(\r... */\n    tag_169:\n        /* \"TransferHelper.sol\":1399:1450  abi.encodeWithSelector(0x23b872dd, from, to, value) */\n      0x40\n      dup1\n      mload\n      sub(shl(0xa0, 0x01), 0x01)\n        /* \"#utility.yul\":2134:2149   */\n      dup6\n      dup2\n      and\n        /* \"TransferHelper.sol\":1399:1450  abi.encodeWithSelector(0x23b872dd, from, to, value) */\n      0x24\n      dup4\n      add\n        /* \"#utility.yul\":2116:2150   */\n      mstore\n        /* \"#utility.yul\":2186:2201   */\n      dup5\n      dup2\n      and\n        /* \"#utility.yul\":2166:2184   */\n      0x44\n      dup4\n      add\n        /* \"#utility.yul\":2159:2202   */\n      mstore\n        /* \"#utility.yul\":2218:2236   */\n      0x64\n      dup1\n      dup4\n      add\n        /* \"#utility.yul\":2211:2245   */\n      dup6\n      swap1\n      mstore\n        /* \"TransferHelper.sol\":1399:1450  abi.encodeWithSelector(0x23b872dd, from, to, value) */\n      dup4\n      mload\n      dup1\n      dup5\n      sub\n      swap1\n      swap2\n      add\n      dup2\n      mstore\n        /* \"#utility.yul\":2051:2069   */\n      0x84\n      swap1\n      swap3\n      add\n        /* \"TransferHelper.sol\":1399:1450  abi.encodeWithSelector(0x23b872dd, from, to, value) */\n      dup4\n      mstore\n      0x20\n      dup3\n      add\n      dup1\n      mload\n      sub(shl(0xe0, 0x01), 0x01)\n      and\n      shl(0xe0, 0x23b872dd)\n      or\n      swap1\n      mstore\n        /* \"TransferHelper.sol\":1388:1451  token.call(abi.encodeWithSelector(0x23b872dd, from, to, value)) */\n      swap2\n      mload\n      0x00\n      swap3\n      dup4\n      swap3\n        /* \"TransferHelper.sol\":1388:1398  token.call */\n      swap1\n      dup9\n      and\n      swap2\n        /* \"TransferHelper.sol\":1388:1451  token.call(abi.encodeWithSelector(0x23b872dd, from, to, value)) */\n      tag_267\n      swap2\n        /* \"TransferHelper.sol\":1399:1450  abi.encodeWithSelector(0x23b872dd, from, to, value) */\n      swap1\n        /* \"TransferHelper.sol\":1388:1451  token.call(abi.encodeWithSelector(0x23b872dd, from, to, value)) */\n      tag_235\n      jump\t// in\n    tag_267:\n      0x00\n      mload(0x40)\n      dup1\n      dup4\n      sub\n      dup2\n      0x00\n      dup7\n      gas\n      call\n      swap2\n      pop\n      pop\n      returndatasize\n      dup1\n      0x00\n      dup2\n      eq\n      tag_270\n      jumpi\n      mload(0x40)\n      swap2\n      pop\n      and(add(returndatasize, 0x3f), not(0x1f))\n      dup3\n      add\n      0x40\n      mstore\n      returndatasize\n      dup3\n      mstore\n      returndatasize\n      0x00\n      0x20\n      dup5\n      add\n      returndatacopy\n      jump(tag_269)\n    tag_270:\n      0x60\n      swap2\n      pop\n    tag_269:\n      pop\n        /* \"TransferHelper.sol\":1352:1451  (bool success, bytes memory data) = token.call(abi.encodeWithSelector(0x23b872dd, from, to, value)) */\n      swap2\n      pop\n      swap2\n      pop\n        /* \"TransferHelper.sol\":1484:1491  success */\n      dup2\n        /* \"TransferHelper.sol\":1484:1541  success && (data.length == 0 || abi.decode(data, (bool))) */\n      dup1\n      iszero\n      tag_273\n      jumpi\n      pop\n        /* \"TransferHelper.sol\":1496:1507  data.length */\n      dup1\n      mload\n        /* \"TransferHelper.sol\":1496:1512  data.length == 0 */\n      iszero\n      dup1\n        /* \"TransferHelper.sol\":1496:1540  data.length == 0 || abi.decode(data, (bool)) */\n      tag_273\n      jumpi\n      pop\n        /* \"TransferHelper.sol\":1527:1531  data */\n      dup1\n        /* \"TransferHelper.sol\":1516:1540  abi.decode(data, (bool)) */\n      dup1\n      0x20\n      add\n      swap1\n      mload\n      dup2\n      add\n      swap1\n      tag_273\n      swap2\n      swap1\n      tag_209\n      jump\t// in\n    tag_273:\n        /* \"TransferHelper.sol\":1462:1618  require(\r... */\n      tag_274\n      jumpi\n      mload(0x40)\n      shl(0xe5, 0x461bcd)\n      dup2\n      mstore\n        /* \"#utility.yul\":3487:3489   */\n      0x20\n        /* \"TransferHelper.sol\":1462:1618  require(\r... */\n      0x04\n      dup3\n      add\n        /* \"#utility.yul\":3469:3490   */\n      mstore\n        /* \"#utility.yul\":3526:3528   */\n      0x31\n        /* \"#utility.yul\":3506:3524   */\n      0x24\n      dup3\n      add\n        /* \"#utility.yul\":3499:3529   */\n      mstore\n        /* \"#utility.yul\":3565:3599   */\n      0x5472616e7366657248656c7065723a3a7472616e7366657246726f6d3a207472\n        /* \"#utility.yul\":3545:3563   */\n      0x44\n      dup3\n      add\n        /* \"#utility.yul\":3538:3600   */\n      mstore\n      shl(0x7a, 0x185b9cd9995c919c9bdb4819985a5b1959)\n        /* \"#utility.yul\":3616:3634   */\n      0x64\n      dup3\n      add\n        /* \"#utility.yul\":3609:3656   */\n      mstore\n        /* \"#utility.yul\":3673:3692   */\n      0x84\n      add\n        /* \"TransferHelper.sol\":1462:1618  require(\r... */\n      tag_104\n        /* \"#utility.yul\":3459:3698   */\n      jump\n        /* \"TransferHelper.sol\":1462:1618  require(\r... */\n    tag_274:\n        /* \"TransferHelper.sol\":1128:1626  function safeTransferFrom(\r... */\n      pop\n      pop\n      pop\n      pop\n      pop\n      pop\n      jump\t// out\n        /* \"SafeMath.sol\":2847:2945  function add(uint256 a, uint256 b) internal pure returns (uint256) {\r... */\n    tag_228:\n        /* \"SafeMath.sol\":2905:2912  uint256 */\n      0x00\n        /* \"SafeMath.sol\":2932:2937  a + b */\n      tag_278\n        /* \"SafeMath.sol\":2936:2937  b */\n      dup3\n        /* \"SafeMath.sol\":2932:2933  a */\n      dup5\n        /* \"SafeMath.sol\":2932:2937  a + b */\n      tag_110\n      jump\t// in\n    tag_278:\n        /* \"SafeMath.sol\":2925:2937  return a + b */\n      swap4\n        /* \"SafeMath.sol\":2847:2945  function add(uint256 a, uint256 b) internal pure returns (uint256) {\r... */\n      swap3\n      pop\n      pop\n      pop\n      jump\t// out\n        /* \"#utility.yul\":14:187   */\n    tag_280:\n        /* \"#utility.yul\":82:102   */\n      dup1\n      calldataload\n      sub(shl(0xa0, 0x01), 0x01)\n        /* \"#utility.yul\":131:162   */\n      dup2\n      and\n        /* \"#utility.yul\":121:163   */\n      dup2\n      eq\n        /* \"#utility.yul\":111:113   */\n      tag_282\n      jumpi\n        /* \"#utility.yul\":177:178   */\n      0x00\n        /* \"#utility.yul\":174:175   */\n      dup1\n        /* \"#utility.yul\":167:179   */\n      revert\n        /* \"#utility.yul\":111:113   */\n    tag_282:\n        /* \"#utility.yul\":63:187   */\n      swap2\n      swap1\n      pop\n      jump\t// out\n        /* \"#utility.yul\":192:388   */\n    tag_30:\n        /* \"#utility.yul\":251:257   */\n      0x00\n        /* \"#utility.yul\":304:306   */\n      0x20\n        /* \"#utility.yul\":292:301   */\n      dup3\n        /* \"#utility.yul\":283:290   */\n      dup5\n        /* \"#utility.yul\":279:302   */\n      sub\n        /* \"#utility.yul\":275:307   */\n      slt\n        /* \"#utility.yul\":272:274   */\n      iszero\n      tag_284\n      jumpi\n        /* \"#utility.yul\":325:331   */\n      dup1\n        /* \"#utility.yul\":317:323   */\n      dup2\n        /* \"#utility.yul\":310:332   */\n      revert\n        /* \"#utility.yul\":272:274   */\n    tag_284:\n        /* \"#utility.yul\":353:382   */\n      tag_278\n        /* \"#utility.yul\":372:381   */\n      dup3\n        /* \"#utility.yul\":353:382   */\n      tag_280\n      jump\t// in\n        /* \"#utility.yul\":393:731   */\n    tag_91:\n        /* \"#utility.yul\":470:476   */\n      0x00\n        /* \"#utility.yul\":478:484   */\n      dup1\n        /* \"#utility.yul\":486:492   */\n      0x00\n        /* \"#utility.yul\":539:541   */\n      0x60\n        /* \"#utility.yul\":527:536   */\n      dup5\n        /* \"#utility.yul\":518:525   */\n      dup7\n        /* \"#utility.yul\":514:537   */\n      sub\n        /* \"#utility.yul\":510:542   */\n      slt\n        /* \"#utility.yul\":507:509   */\n      iszero\n      tag_287\n      jumpi\n        /* \"#utility.yul\":560:566   */\n      dup2\n        /* \"#utility.yul\":552:558   */\n      dup3\n        /* \"#utility.yul\":545:567   */\n      revert\n        /* \"#utility.yul\":507:509   */\n    tag_287:\n        /* \"#utility.yul\":588:617   */\n      tag_288\n        /* \"#utility.yul\":607:616   */\n      dup5\n        /* \"#utility.yul\":588:617   */\n      tag_280\n      jump\t// in\n    tag_288:\n        /* \"#utility.yul\":578:617   */\n      swap3\n      pop\n        /* \"#utility.yul\":636:674   */\n      tag_289\n        /* \"#utility.yul\":670:672   */\n      0x20\n        /* \"#utility.yul\":659:668   */\n      dup6\n        /* \"#utility.yul\":655:673   */\n      add\n        /* \"#utility.yul\":636:674   */\n      tag_280\n      jump\t// in\n    tag_289:\n        /* \"#utility.yul\":626:674   */\n      swap2\n      pop\n        /* \"#utility.yul\":721:723   */\n      0x40\n        /* \"#utility.yul\":710:719   */\n      dup5\n        /* \"#utility.yul\":706:724   */\n      add\n        /* \"#utility.yul\":693:725   */\n      calldataload\n        /* \"#utility.yul\":683:725   */\n      swap1\n      pop\n        /* \"#utility.yul\":497:731   */\n      swap3\n      pop\n      swap3\n      pop\n      swap3\n      jump\t// out\n        /* \"#utility.yul\":736:1033   */\n    tag_209:\n        /* \"#utility.yul\":803:809   */\n      0x00\n        /* \"#utility.yul\":856:858   */\n      0x20\n        /* \"#utility.yul\":844:853   */\n      dup3\n        /* \"#utility.yul\":835:842   */\n      dup5\n        /* \"#utility.yul\":831:854   */\n      sub\n        /* \"#utility.yul\":827:859   */\n      slt\n        /* \"#utility.yul\":824:826   */\n      iszero\n      tag_291\n      jumpi\n        /* \"#utility.yul\":877:883   */\n      dup1\n        /* \"#utility.yul\":869:875   */\n      dup2\n        /* \"#utility.yul\":862:884   */\n      revert\n        /* \"#utility.yul\":824:826   */\n    tag_291:\n        /* \"#utility.yul\":914:923   */\n      dup2\n        /* \"#utility.yul\":908:924   */\n      mload\n        /* \"#utility.yul\":967:972   */\n      dup1\n        /* \"#utility.yul\":960:973   */\n      iszero\n        /* \"#utility.yul\":953:974   */\n      iszero\n        /* \"#utility.yul\":946:951   */\n      dup2\n        /* \"#utility.yul\":943:975   */\n      eq\n        /* \"#utility.yul\":933:935   */\n      tag_278\n      jumpi\n        /* \"#utility.yul\":994:1000   */\n      dup2\n        /* \"#utility.yul\":986:992   */\n      dup3\n        /* \"#utility.yul\":979:1001   */\n      revert\n        /* \"#utility.yul\":1038:1228   */\n    tag_54:\n        /* \"#utility.yul\":1097:1103   */\n      0x00\n        /* \"#utility.yul\":1150:1152   */\n      0x20\n        /* \"#utility.yul\":1138:1147   */\n      dup3\n        /* \"#utility.yul\":1129:1136   */\n      dup5\n        /* \"#utility.yul\":1125:1148   */\n      sub\n        /* \"#utility.yul\":1121:1153   */\n      slt\n        /* \"#utility.yul\":1118:1120   */\n      iszero\n      tag_294\n      jumpi\n        /* \"#utility.yul\":1171:1177   */\n      dup1\n        /* \"#utility.yul\":1163:1169   */\n      dup2\n        /* \"#utility.yul\":1156:1178   */\n      revert\n        /* \"#utility.yul\":1118:1120   */\n    tag_294:\n      pop\n        /* \"#utility.yul\":1199:1222   */\n      calldataload\n      swap2\n        /* \"#utility.yul\":1108:1228   */\n      swap1\n      pop\n      jump\t// out\n        /* \"#utility.yul\":1233:1663   */\n    tag_235:\n        /* \"#utility.yul\":1362:1365   */\n      0x00\n        /* \"#utility.yul\":1400:1406   */\n      dup3\n        /* \"#utility.yul\":1394:1407   */\n      mload\n        /* \"#utility.yul\":1425:1428   */\n      dup2\n        /* \"#utility.yul\":1437:1566   */\n    tag_296:\n        /* \"#utility.yul\":1451:1457   */\n      dup2\n        /* \"#utility.yul\":1448:1449   */\n      dup2\n        /* \"#utility.yul\":1445:1458   */\n      lt\n        /* \"#utility.yul\":1437:1566   */\n      iszero\n      tag_298\n      jumpi\n        /* \"#utility.yul\":1549:1553   */\n      0x20\n        /* \"#utility.yul\":1533:1547   */\n      dup2\n      dup7\n      add\n        /* \"#utility.yul\":1529:1554   */\n      dup2\n      add\n        /* \"#utility.yul\":1523:1555   */\n      mload\n        /* \"#utility.yul\":1510:1521   */\n      dup6\n      dup4\n      add\n        /* \"#utility.yul\":1503:1556   */\n      mstore\n        /* \"#utility.yul\":1466:1478   */\n      add\n        /* \"#utility.yul\":1437:1566   */\n      jump(tag_296)\n    tag_298:\n        /* \"#utility.yul\":1584:1590   */\n      dup2\n        /* \"#utility.yul\":1581:1582   */\n      dup2\n        /* \"#utility.yul\":1578:1591   */\n      gt\n        /* \"#utility.yul\":1575:1577   */\n      iszero\n      tag_299\n      jumpi\n        /* \"#utility.yul\":1619:1622   */\n      dup3\n        /* \"#utility.yul\":1610:1616   */\n      dup3\n        /* \"#utility.yul\":1605:1608   */\n      dup6\n        /* \"#utility.yul\":1601:1617   */\n      add\n        /* \"#utility.yul\":1594:1623   */\n      mstore\n        /* \"#utility.yul\":1575:1577   */\n    tag_299:\n      pop\n        /* \"#utility.yul\":1641:1657   */\n      swap2\n      swap1\n      swap2\n      add\n      swap3\n        /* \"#utility.yul\":1370:1663   */\n      swap2\n      pop\n      pop\n      jump\t// out\n        /* \"#utility.yul\":4042:4398   */\n    tag_137:\n        /* \"#utility.yul\":4244:4246   */\n      0x20\n        /* \"#utility.yul\":4226:4247   */\n      dup1\n      dup3\n      mstore\n        /* \"#utility.yul\":4263:4281   */\n      dup2\n      dup2\n      add\n        /* \"#utility.yul\":4256:4286   */\n      mstore\n        /* \"#utility.yul\":4322:4356   */\n      0x4f776e61626c653a2063616c6c6572206973206e6f7420746865206f776e6572\n        /* \"#utility.yul\":4317:4319   */\n      0x40\n        /* \"#utility.yul\":4302:4320   */\n      dup3\n      add\n        /* \"#utility.yul\":4295:4357   */\n      mstore\n        /* \"#utility.yul\":4389:4391   */\n      0x60\n        /* \"#utility.yul\":4374:4392   */\n      add\n      swap1\n        /* \"#utility.yul\":4216:4398   */\n      jump\t// out\n        /* \"#utility.yul\":6512:6640   */\n    tag_110:\n        /* \"#utility.yul\":6552:6555   */\n      0x00\n        /* \"#utility.yul\":6583:6584   */\n      dup3\n        /* \"#utility.yul\":6579:6585   */\n      not\n        /* \"#utility.yul\":6576:6577   */\n      dup3\n        /* \"#utility.yul\":6573:6586   */\n      gt\n        /* \"#utility.yul\":6570:6572   */\n      iszero\n      tag_316\n      jumpi\n        /* \"#utility.yul\":6589:6607   */\n      tag_316\n      tag_317\n      jump\t// in\n    tag_316:\n      pop\n        /* \"#utility.yul\":6625:6634   */\n      add\n      swap1\n        /* \"#utility.yul\":6560:6640   */\n      jump\t// out\n        /* \"#utility.yul\":6645:6862   */\n    tag_145:\n        /* \"#utility.yul\":6685:6686   */\n      0x00\n        /* \"#utility.yul\":6711:6712   */\n      dup3\n        /* \"#utility.yul\":6701:6703   */\n      tag_319\n      jumpi\n      shl(0xe0, 0x4e487b71)\n        /* \"#utility.yul\":6736:6767   */\n      dup2\n      mstore\n        /* \"#utility.yul\":6790:6794   */\n      0x12\n        /* \"#utility.yul\":6787:6788   */\n      0x04\n        /* \"#utility.yul\":6780:6795   */\n      mstore\n        /* \"#utility.yul\":6818:6822   */\n      0x24\n        /* \"#utility.yul\":6743:6744   */\n      dup2\n        /* \"#utility.yul\":6808:6823   */\n      revert\n        /* \"#utility.yul\":6701:6703   */\n    tag_319:\n      pop\n        /* \"#utility.yul\":6847:6856   */\n      div\n      swap1\n        /* \"#utility.yul\":6691:6862   */\n      jump\t// out\n        /* \"#utility.yul\":6867:7035   */\n    tag_147:\n        /* \"#utility.yul\":6907:6914   */\n      0x00\n        /* \"#utility.yul\":6973:6974   */\n      dup2\n        /* \"#utility.yul\":6969:6970   */\n      0x00\n        /* \"#utility.yul\":6965:6971   */\n      not\n        /* \"#utility.yul\":6961:6975   */\n      div\n        /* \"#utility.yul\":6958:6959   */\n      dup4\n        /* \"#utility.yul\":6955:6976   */\n      gt\n        /* \"#utility.yul\":6950:6951   */\n      dup3\n        /* \"#utility.yul\":6943:6952   */\n      iszero\n        /* \"#utility.yul\":6936:6953   */\n      iszero\n        /* \"#utility.yul\":6932:6977   */\n      and\n        /* \"#utility.yul\":6929:6931   */\n      iszero\n      tag_322\n      jumpi\n        /* \"#utility.yul\":6980:6998   */\n      tag_322\n      tag_317\n      jump\t// in\n    tag_322:\n      pop\n        /* \"#utility.yul\":7020:7029   */\n      mul\n      swap1\n        /* \"#utility.yul\":6919:7035   */\n      jump\t// out\n        /* \"#utility.yul\":7040:7165   */\n    tag_119:\n        /* \"#utility.yul\":7080:7084   */\n      0x00\n        /* \"#utility.yul\":7108:7109   */\n      dup3\n        /* \"#utility.yul\":7105:7106   */\n      dup3\n        /* \"#utility.yul\":7102:7110   */\n      lt\n        /* \"#utility.yul\":7099:7101   */\n      iszero\n      tag_325\n      jumpi\n        /* \"#utility.yul\":7113:7131   */\n      tag_325\n      tag_317\n      jump\t// in\n    tag_325:\n      pop\n        /* \"#utility.yul\":7150:7159   */\n      sub\n      swap1\n        /* \"#utility.yul\":7089:7165   */\n      jump\t// out\n        /* \"#utility.yul\":7170:7305   */\n    tag_177:\n        /* \"#utility.yul\":7209:7212   */\n      0x00\n      not(0x00)\n        /* \"#utility.yul\":7230:7247   */\n      dup3\n      eq\n        /* \"#utility.yul\":7227:7229   */\n      iszero\n      tag_328\n      jumpi\n        /* \"#utility.yul\":7250:7268   */\n      tag_328\n      tag_317\n      jump\t// in\n    tag_328:\n      pop\n        /* \"#utility.yul\":7297:7298   */\n      0x01\n        /* \"#utility.yul\":7286:7299   */\n      add\n      swap1\n        /* \"#utility.yul\":7217:7305   */\n      jump\t// out\n        /* \"#utility.yul\":7310:7437   */\n    tag_317:\n        /* \"#utility.yul\":7371:7381   */\n      0x4e487b71\n        /* \"#utility.yul\":7366:7369   */\n      0xe0\n        /* \"#utility.yul\":7362:7382   */\n      shl\n        /* \"#utility.yul\":7359:7360   */\n      0x00\n        /* \"#utility.yul\":7352:7383   */\n      mstore\n        /* \"#utility.yul\":7402:7406   */\n      0x11\n        /* \"#utility.yul\":7399:7400   */\n      0x04\n        /* \"#utility.yul\":7392:7407   */\n      mstore\n        /* \"#utility.yul\":7426:7430   */\n      0x24\n        /* \"#utility.yul\":7423:7424   */\n      0x00\n        /* \"#utility.yul\":7416:7431   */\n      revert\n\n    auxdata: 0xa2646970667358221220318168315ec279809740bd259d5f30399395bd5231492090e62487c909e388df64736f6c63430008040033\n}\n",
				"bytecode": {
					"linkReferences": {},
					"object": "608060405269d3c21bcecceda1000000600455624f1a006009556001600a553480156200002b57600080fd5b50604051620012ae380380620012ae8339810160408190526200004e9162000119565b6200005933620000ac565b60068054336001600160a01b031991821681179092556001805482166001600160a01b0386811691909117909155600580549092169084161790556000600255620000a490620000ac565b505062000150565b600080546001600160a01b038381166001600160a01b0319831681178455604051919092169283917f8be0079c531659141344cd1fd0a4f28419497f9722a3daafe3b4186f6b6457e09190a35050565b80516001600160a01b03811681146200011457600080fd5b919050565b600080604083850312156200012c578182fd5b6200013783620000fc565b91506200014760208401620000fc565b90509250929050565b61114e80620001606000396000f3fe608060405234801561001057600080fd5b50600436106101425760003560e01c80639674a0ac116100b8578063f0c37a591161007c578063f0c37a59146102aa578063f2fde38b146102b2578063f5537ede146102c5578063f7c618c1146102d8578063fc6f9468146102eb578063fd1a2397146102fe57600080fd5b80639674a0ac146102605780639f4216e814610273578063a694fc3a14610286578063a8b3820514610299578063bce4f054146102a257600080fd5b80635fcbd2851161010a5780635fcbd285146101e35780635fd595c01461020e5780636a9db411146102215780636e26a96714610234578063715018a6146102475780638da5cb5b1461024f57600080fd5b80631959a002146101475780631a39d8ef146101b1578063356c7284146101c85780633ccfd60b146101d15780634e71d92d146101db575b600080fd5b610184610155366004610f7e565b600760205260009081526040902080546001820154600283015460038401546004909401549293919290919085565b604080519586526020860194909452928401919091526060830152608082015260a0015b60405180910390f35b6101ba60025481565b6040519081526020016101a8565b6101ba60035481565b6101d9610311565b005b6101d961046f565b6001546101f6906001600160a01b031681565b6040516001600160a01b0390911681526020016101a8565b6101d961021c366004610f7e565b610544565b6101ba61022f366004610ff3565b610590565b6101ba610242366004610f7e565b6105e4565b6101d9610656565b6000546001600160a01b03166101f6565b6101f661026e366004610ff3565b61068c565b6101f6610281366004610ff3565b6106ca565b6101d9610294366004610ff3565b6106f4565b6101ba60095481565b6002546101ba565b6008546101ba565b6101d96102c0366004610f7e565b6108a2565b6101d96102d3366004610f98565b61093d565b6005546101f6906001600160a01b031681565b6006546101f6906001600160a01b031681565b6101d961030c366004610f7e565b6109f3565b33600090815260076020526040902060048101546103655760405162461bcd60e51b815260206004820152600c60248201526b34b73b30b634b2103ab9b2b960a11b60448201526064015b60405180910390fd5b80546103a05760405162461bcd60e51b815260206004820152600a6024820152691b9bdd081cdd185ad95960b21b604482015260640161035c565b4260095482600401546103b39190611079565b106103f95760405162461bcd60e51b81526020600482015260166024820152753cb7ba9030b9329034b7103637b1b5b2b22a34b6b29760511b604482015260640161035c565b610401610a3f565b600154815461041b916001600160a01b0316903390610b39565b805460025461042a91906110d0565b600255610435610c63565b805460405190815233907f884edad9ce6fa2440d8a54cc123490eb96d2768479d49ff9c7366125a94243649060200160405180910390a250565b336000908152600760205260409020610486610a3f565b6002810154806104d85760405162461bcd60e51b815260206004820152601860248201527f6e6f7420656e6f7567682072657761726420616d6f756e740000000000000000604482015260640161035c565b8082600101546104e89190611079565b60018301556000600283015560055461050b906001600160a01b03163383610b39565b60405181815233907f619caafabdd75649b302ba8419e48cccf64f37f1983ac4727cfb38b57703ffc99060200160405180910390a25050565b6000546001600160a01b0316331461056e5760405162461bcd60e51b815260040161035c90611044565b600180546001600160a01b0319166001600160a01b0392909216919091179055565b60008060076000600885815481106105b857634e487b7160e01b600052603260045260246000fd5b60009182526020808320909101546001600160a01b031683528201929092526040019020549392505050565b6001600160a01b03811660009081526007602052604081206003810154429083908190620151809061061690856110d0565b6106209190611091565b905060025460045485600001548361063891906110b1565b61064291906110b1565b61064c9190611091565b9695505050505050565b6000546001600160a01b031633146106805760405162461bcd60e51b815260040161035c90611044565b61068a6000610dc1565b565b6000600882815481106106af57634e487b7160e01b600052603260045260246000fd5b6000918252602090912001546001600160a01b031692915050565b600881815481106106da57600080fd5b6000918252602090912001546001600160a01b0316905081565b600081116107355760405162461bcd60e51b815260206004820152600e60248201526d1a5b9d985a5b1908185b5bdd5b9d60921b604482015260640161035c565b60015461074d906001600160a01b0316333084610e11565b336000908152600760205260408120906001905b6008548110156107c857336001600160a01b03166008828154811061079657634e487b7160e01b600052603260045260246000fd5b6000918252602090912001546001600160a01b031614156107b657600091505b806107c0816110e7565b915050610761565b506107d1610a3f565b801561083a57600880546001818101835560009283527ff3f7a9fe364faab93b216da50a3214154f22a0a2b415b23a84c8169e8b636ee390910180546001600160a01b031916331790558484558301819055600283015542600483018190556003830155610857565b8154610847908490611079565b8255426004830181905560038301555b826002546108659190611079565b60025560405183815233907fe1fffcc4923d04b559f4d29a8bfc6cda04eb5b0d3c460751c2402c5c5cc9109c9060200160405180910390a2505050565b6000546001600160a01b031633146108cc5760405162461bcd60e51b815260040161035c90611044565b6001600160a01b0381166109315760405162461bcd60e51b815260206004820152602660248201527f4f776e61626c653a206e6577206f776e657220697320746865207a65726f206160448201526564647265737360d01b606482015260840161035c565b61093a81610dc1565b50565b6000546001600160a01b031633146109675760405162461bcd60e51b815260040161035c90611044565b60405163a9059cbb60e01b81526001600160a01b0383811660048301526024820183905284919082169063a9059cbb90604401602060405180830381600087803b1580156109b457600080fd5b505af11580156109c8573d6000803e3d6000fd5b505050506040513d601f19601f820116820180604052508101906109ec9190610fd3565b5050505050565b6000546001600160a01b03163314610a1d5760405162461bcd60e51b815260040161035c90611044565b600580546001600160a01b0319166001600160a01b0392909216919091179055565b60005b60085481101561093a5760006007600060088481548110610a7357634e487b7160e01b600052603260045260246000fd5b60009182526020808320909101546001600160a01b03168352820192909252604001812060038101549092504291906201518090610ab190846110d0565b610abb9190611091565b6002548454600454929350600092610ad390856110b1565b610add91906110b1565b610ae79190611091565b6002850154909150610af99082610f4f565b6002850155610b0b82620151806110b1565b8460030154610b1a9190611079565b8460030181905550505050508080610b31906110e7565b915050610a42565b604080516001600160a01b038481166024830152604480830185905283518084039091018152606490920183526020820180516001600160e01b031663a9059cbb60e01b1790529151600092839290871691610b95919061100b565b6000604051808303816000865af19150503d8060008114610bd2576040519150601f19603f3d011682016040523d82523d6000602084013e610bd7565b606091505b5091509150818015610c01575080511580610c01575080806020019051810190610c019190610fd3565b6109ec5760405162461bcd60e51b815260206004820152602d60248201527f5472616e7366657248656c7065723a3a736166655472616e736665723a20747260448201526c185b9cd9995c8819985a5b1959609a1b606482015260840161035c565b6000805b600854610c76906001906110d0565b811015610d7c57336001600160a01b031660088281548110610ca857634e487b7160e01b600052603260045260246000fd5b6000918252602090912001546001600160a01b03161415610ccc5760019150610d6a565b81610cd657610d6a565b6008610ce3826001611079565b81548110610d0157634e487b7160e01b600052603260045260246000fd5b600091825260209091200154600880546001600160a01b039092169183908110610d3b57634e487b7160e01b600052603260045260246000fd5b9060005260206000200160006101000a8154816001600160a01b0302191690836001600160a01b031602179055505b80610d74816110e7565b915050610c67565b506008805480610d9c57634e487b7160e01b600052603160045260246000fd5b600082815260209020810160001990810180546001600160a01b031916905501905550565b600080546001600160a01b038381166001600160a01b0319831681178455604051919092169283917f8be0079c531659141344cd1fd0a4f28419497f9722a3daafe3b4186f6b6457e09190a35050565b604080516001600160a01b0385811660248301528481166044830152606480830185905283518084039091018152608490920183526020820180516001600160e01b03166323b872dd60e01b1790529151600092839290881691610e75919061100b565b6000604051808303816000865af19150503d8060008114610eb2576040519150601f19603f3d011682016040523d82523d6000602084013e610eb7565b606091505b5091509150818015610ee1575080511580610ee1575080806020019051810190610ee19190610fd3565b610f475760405162461bcd60e51b815260206004820152603160248201527f5472616e7366657248656c7065723a3a7472616e7366657246726f6d3a207472604482015270185b9cd9995c919c9bdb4819985a5b1959607a1b606482015260840161035c565b505050505050565b6000610f5b8284611079565b9392505050565b80356001600160a01b0381168114610f7957600080fd5b919050565b600060208284031215610f8f578081fd5b610f5b82610f62565b600080600060608486031215610fac578182fd5b610fb584610f62565b9250610fc360208501610f62565b9150604084013590509250925092565b600060208284031215610fe4578081fd5b81518015158114610f5b578182fd5b600060208284031215611004578081fd5b5035919050565b60008251815b8181101561102b5760208186018101518583015201611011565b818111156110395782828501525b509190910192915050565b6020808252818101527f4f776e61626c653a2063616c6c6572206973206e6f7420746865206f776e6572604082015260600190565b6000821982111561108c5761108c611102565b500190565b6000826110ac57634e487b7160e01b81526012600452602481fd5b500490565b60008160001904831182151516156110cb576110cb611102565b500290565b6000828210156110e2576110e2611102565b500390565b60006000198214156110fb576110fb611102565b5060010190565b634e487b7160e01b600052601160045260246000fdfea2646970667358221220318168315ec279809740bd259d5f30399395bd5231492090e62487c909e388df64736f6c63430008040033",
					"opcodes": "PUSH1 0x80 PUSH1 0x40 MSTORE PUSH10 0xD3C21BCECCEDA1000000 PUSH1 0x4 SSTORE PUSH3 0x4F1A00 PUSH1 0x9 SSTORE PUSH1 0x1 PUSH1 0xA SSTORE CALLVALUE DUP1 ISZERO PUSH3 0x2B JUMPI PUSH1 0x0 DUP1 REVERT JUMPDEST POP PUSH1 0x40 MLOAD PUSH3 0x12AE CODESIZE SUB DUP1 PUSH3 0x12AE DUP4 CODECOPY DUP2 ADD PUSH1 0x40 DUP2 SWAP1 MSTORE PUSH3 0x4E SWAP2 PUSH3 0x119 JUMP JUMPDEST PUSH3 0x59 CALLER PUSH3 0xAC JUMP JUMPDEST PUSH1 0x6 DUP1 SLOAD CALLER PUSH1 0x1 PUSH1 0x1 PUSH1 0xA0 SHL SUB NOT SWAP2 DUP3 AND DUP2 OR SWAP1 SWAP3 SSTORE PUSH1 0x1 DUP1 SLOAD DUP3 AND PUSH1 0x1 PUSH1 0x1 PUSH1 0xA0 SHL SUB DUP7 DUP2 AND SWAP2 SWAP1 SWAP2 OR SWAP1 SWAP2 SSTORE PUSH1 0x5 DUP1 SLOAD SWAP1 SWAP3 AND SWAP1 DUP5 AND OR SWAP1 SSTORE PUSH1 0x0 PUSH1 0x2 SSTORE PUSH3 0xA4 SWAP1 PUSH3 0xAC JUMP JUMPDEST POP POP PUSH3 0x150 JUMP JUMPDEST PUSH1 0x0 DUP1 SLOAD PUSH1 0x1 PUSH1 0x1 PUSH1 0xA0 SHL SUB DUP4 DUP2 AND PUSH1 0x1 PUSH1 0x1 PUSH1 0xA0 SHL SUB NOT DUP4 AND DUP2 OR DUP5 SSTORE PUSH1 0x40 MLOAD SWAP2 SWAP1 SWAP3 AND SWAP3 DUP4 SWAP2 PUSH32 0x8BE0079C531659141344CD1FD0A4F28419497F9722A3DAAFE3B4186F6B6457E0 SWAP2 SWAP1 LOG3 POP POP JUMP JUMPDEST DUP1 MLOAD PUSH1 0x1 PUSH1 0x1 PUSH1 0xA0 SHL SUB DUP2 AND DUP2 EQ PUSH3 0x114 JUMPI PUSH1 0x0 DUP1 REVERT JUMPDEST SWAP2 SWAP1 POP JUMP JUMPDEST PUSH1 0x0 DUP1 PUSH1 0x40 DUP4 DUP6 SUB SLT ISZERO PUSH3 0x12C JUMPI DUP2 DUP3 REVERT JUMPDEST PUSH3 0x137 DUP4 PUSH3 0xFC JUMP JUMPDEST SWAP2 POP PUSH3 0x147 PUSH1 0x20 DUP5 ADD PUSH3 0xFC JUMP JUMPDEST SWAP1 POP SWAP3 POP SWAP3 SWAP1 POP JUMP JUMPDEST PUSH2 0x114E DUP1 PUSH3 0x160 PUSH1 0x0 CODECOPY PUSH1 0x0 RETURN INVALID PUSH1 0x80 PUSH1 0x40 MSTORE CALLVALUE DUP1 ISZERO PUSH2 0x10 JUMPI PUSH1 0x0 DUP1 REVERT JUMPDEST POP PUSH1 0x4 CALLDATASIZE LT PUSH2 0x142 JUMPI PUSH1 0x0 CALLDATALOAD PUSH1 0xE0 SHR DUP1 PUSH4 0x9674A0AC GT PUSH2 0xB8 JUMPI DUP1 PUSH4 0xF0C37A59 GT PUSH2 0x7C JUMPI DUP1 PUSH4 0xF0C37A59 EQ PUSH2 0x2AA JUMPI DUP1 PUSH4 0xF2FDE38B EQ PUSH2 0x2B2 JUMPI DUP1 PUSH4 0xF5537EDE EQ PUSH2 0x2C5 JUMPI DUP1 PUSH4 0xF7C618C1 EQ PUSH2 0x2D8 JUMPI DUP1 PUSH4 0xFC6F9468 EQ PUSH2 0x2EB JUMPI DUP1 PUSH4 0xFD1A2397 EQ PUSH2 0x2FE JUMPI PUSH1 0x0 DUP1 REVERT JUMPDEST DUP1 PUSH4 0x9674A0AC EQ PUSH2 0x260 JUMPI DUP1 PUSH4 0x9F4216E8 EQ PUSH2 0x273 JUMPI DUP1 PUSH4 0xA694FC3A EQ PUSH2 0x286 JUMPI DUP1 PUSH4 0xA8B38205 EQ PUSH2 0x299 JUMPI DUP1 PUSH4 0xBCE4F054 EQ PUSH2 0x2A2 JUMPI PUSH1 0x0 DUP1 REVERT JUMPDEST DUP1 PUSH4 0x5FCBD285 GT PUSH2 0x10A JUMPI DUP1 PUSH4 0x5FCBD285 EQ PUSH2 0x1E3 JUMPI DUP1 PUSH4 0x5FD595C0 EQ PUSH2 0x20E JUMPI DUP1 PUSH4 0x6A9DB411 EQ PUSH2 0x221 JUMPI DUP1 PUSH4 0x6E26A967 EQ PUSH2 0x234 JUMPI DUP1 PUSH4 0x715018A6 EQ PUSH2 0x247 JUMPI DUP1 PUSH4 0x8DA5CB5B EQ PUSH2 0x24F JUMPI PUSH1 0x0 DUP1 REVERT JUMPDEST DUP1 PUSH4 0x1959A002 EQ PUSH2 0x147 JUMPI DUP1 PUSH4 0x1A39D8EF EQ PUSH2 0x1B1 JUMPI DUP1 PUSH4 0x356C7284 EQ PUSH2 0x1C8 JUMPI DUP1 PUSH4 0x3CCFD60B EQ PUSH2 0x1D1 JUMPI DUP1 PUSH4 0x4E71D92D EQ PUSH2 0x1DB JUMPI JUMPDEST PUSH1 0x0 DUP1 REVERT JUMPDEST PUSH2 0x184 PUSH2 0x155 CALLDATASIZE PUSH1 0x4 PUSH2 0xF7E JUMP JUMPDEST PUSH1 0x7 PUSH1 0x20 MSTORE PUSH1 0x0 SWAP1 DUP2 MSTORE PUSH1 0x40 SWAP1 KECCAK256 DUP1 SLOAD PUSH1 0x1 DUP3 ADD SLOAD PUSH1 0x2 DUP4 ADD SLOAD PUSH1 0x3 DUP5 ADD SLOAD PUSH1 0x4 SWAP1 SWAP5 ADD SLOAD SWAP3 SWAP4 SWAP2 SWAP3 SWAP1 SWAP2 SWAP1 DUP6 JUMP JUMPDEST PUSH1 0x40 DUP1 MLOAD SWAP6 DUP7 MSTORE PUSH1 0x20 DUP7 ADD SWAP5 SWAP1 SWAP5 MSTORE SWAP3 DUP5 ADD SWAP2 SWAP1 SWAP2 MSTORE PUSH1 0x60 DUP4 ADD MSTORE PUSH1 0x80 DUP3 ADD MSTORE PUSH1 0xA0 ADD JUMPDEST PUSH1 0x40 MLOAD DUP1 SWAP2 SUB SWAP1 RETURN JUMPDEST PUSH2 0x1BA PUSH1 0x2 SLOAD DUP2 JUMP JUMPDEST PUSH1 0x40 MLOAD SWAP1 DUP2 MSTORE PUSH1 0x20 ADD PUSH2 0x1A8 JUMP JUMPDEST PUSH2 0x1BA PUSH1 0x3 SLOAD DUP2 JUMP JUMPDEST PUSH2 0x1D9 PUSH2 0x311 JUMP JUMPDEST STOP JUMPDEST PUSH2 0x1D9 PUSH2 0x46F JUMP JUMPDEST PUSH1 0x1 SLOAD PUSH2 0x1F6 SWAP1 PUSH1 0x1 PUSH1 0x1 PUSH1 0xA0 SHL SUB AND DUP2 JUMP JUMPDEST PUSH1 0x40 MLOAD PUSH1 0x1 PUSH1 0x1 PUSH1 0xA0 SHL SUB SWAP1 SWAP2 AND DUP2 MSTORE PUSH1 0x20 ADD PUSH2 0x1A8 JUMP JUMPDEST PUSH2 0x1D9 PUSH2 0x21C CALLDATASIZE PUSH1 0x4 PUSH2 0xF7E JUMP JUMPDEST PUSH2 0x544 JUMP JUMPDEST PUSH2 0x1BA PUSH2 0x22F CALLDATASIZE PUSH1 0x4 PUSH2 0xFF3 JUMP JUMPDEST PUSH2 0x590 JUMP JUMPDEST PUSH2 0x1BA PUSH2 0x242 CALLDATASIZE PUSH1 0x4 PUSH2 0xF7E JUMP JUMPDEST PUSH2 0x5E4 JUMP JUMPDEST PUSH2 0x1D9 PUSH2 0x656 JUMP JUMPDEST PUSH1 0x0 SLOAD PUSH1 0x1 PUSH1 0x1 PUSH1 0xA0 SHL SUB AND PUSH2 0x1F6 JUMP JUMPDEST PUSH2 0x1F6 PUSH2 0x26E CALLDATASIZE PUSH1 0x4 PUSH2 0xFF3 JUMP JUMPDEST PUSH2 0x68C JUMP JUMPDEST PUSH2 0x1F6 PUSH2 0x281 CALLDATASIZE PUSH1 0x4 PUSH2 0xFF3 JUMP JUMPDEST PUSH2 0x6CA JUMP JUMPDEST PUSH2 0x1D9 PUSH2 0x294 CALLDATASIZE PUSH1 0x4 PUSH2 0xFF3 JUMP JUMPDEST PUSH2 0x6F4 JUMP JUMPDEST PUSH2 0x1BA PUSH1 0x9 SLOAD DUP2 JUMP JUMPDEST PUSH1 0x2 SLOAD PUSH2 0x1BA JUMP JUMPDEST PUSH1 0x8 SLOAD PUSH2 0x1BA JUMP JUMPDEST PUSH2 0x1D9 PUSH2 0x2C0 CALLDATASIZE PUSH1 0x4 PUSH2 0xF7E JUMP JUMPDEST PUSH2 0x8A2 JUMP JUMPDEST PUSH2 0x1D9 PUSH2 0x2D3 CALLDATASIZE PUSH1 0x4 PUSH2 0xF98 JUMP JUMPDEST PUSH2 0x93D JUMP JUMPDEST PUSH1 0x5 SLOAD PUSH2 0x1F6 SWAP1 PUSH1 0x1 PUSH1 0x1 PUSH1 0xA0 SHL SUB AND DUP2 JUMP JUMPDEST PUSH1 0x6 SLOAD PUSH2 0x1F6 SWAP1 PUSH1 0x1 PUSH1 0x1 PUSH1 0xA0 SHL SUB AND DUP2 JUMP JUMPDEST PUSH2 0x1D9 PUSH2 0x30C CALLDATASIZE PUSH1 0x4 PUSH2 0xF7E JUMP JUMPDEST PUSH2 0x9F3 JUMP JUMPDEST CALLER PUSH1 0x0 SWAP1 DUP2 MSTORE PUSH1 0x7 PUSH1 0x20 MSTORE PUSH1 0x40 SWAP1 KECCAK256 PUSH1 0x4 DUP2 ADD SLOAD PUSH2 0x365 JUMPI PUSH1 0x40 MLOAD PUSH3 0x461BCD PUSH1 0xE5 SHL DUP2 MSTORE PUSH1 0x20 PUSH1 0x4 DUP3 ADD MSTORE PUSH1 0xC PUSH1 0x24 DUP3 ADD MSTORE PUSH12 0x34B73B30B634B2103AB9B2B9 PUSH1 0xA1 SHL PUSH1 0x44 DUP3 ADD MSTORE PUSH1 0x64 ADD JUMPDEST PUSH1 0x40 MLOAD DUP1 SWAP2 SUB SWAP1 REVERT JUMPDEST DUP1 SLOAD PUSH2 0x3A0 JUMPI PUSH1 0x40 MLOAD PUSH3 0x461BCD PUSH1 0xE5 SHL DUP2 MSTORE PUSH1 0x20 PUSH1 0x4 DUP3 ADD MSTORE PUSH1 0xA PUSH1 0x24 DUP3 ADD MSTORE PUSH10 0x1B9BDD081CDD185AD959 PUSH1 0xB2 SHL PUSH1 0x44 DUP3 ADD MSTORE PUSH1 0x64 ADD PUSH2 0x35C JUMP JUMPDEST TIMESTAMP PUSH1 0x9 SLOAD DUP3 PUSH1 0x4 ADD SLOAD PUSH2 0x3B3 SWAP2 SWAP1 PUSH2 0x1079 JUMP JUMPDEST LT PUSH2 0x3F9 JUMPI PUSH1 0x40 MLOAD PUSH3 0x461BCD PUSH1 0xE5 SHL DUP2 MSTORE PUSH1 0x20 PUSH1 0x4 DUP3 ADD MSTORE PUSH1 0x16 PUSH1 0x24 DUP3 ADD MSTORE PUSH22 0x3CB7BA9030B9329034B7103637B1B5B2B22A34B6B297 PUSH1 0x51 SHL PUSH1 0x44 DUP3 ADD MSTORE PUSH1 0x64 ADD PUSH2 0x35C JUMP JUMPDEST PUSH2 0x401 PUSH2 0xA3F JUMP JUMPDEST PUSH1 0x1 SLOAD DUP2 SLOAD PUSH2 0x41B SWAP2 PUSH1 0x1 PUSH1 0x1 PUSH1 0xA0 SHL SUB AND SWAP1 CALLER SWAP1 PUSH2 0xB39 JUMP JUMPDEST DUP1 SLOAD PUSH1 0x2 SLOAD PUSH2 0x42A SWAP2 SWAP1 PUSH2 0x10D0 JUMP JUMPDEST PUSH1 0x2 SSTORE PUSH2 0x435 PUSH2 0xC63 JUMP JUMPDEST DUP1 SLOAD PUSH1 0x40 MLOAD SWAP1 DUP2 MSTORE CALLER SWAP1 PUSH32 0x884EDAD9CE6FA2440D8A54CC123490EB96D2768479D49FF9C7366125A9424364 SWAP1 PUSH1 0x20 ADD PUSH1 0x40 MLOAD DUP1 SWAP2 SUB SWAP1 LOG2 POP JUMP JUMPDEST CALLER PUSH1 0x0 SWAP1 DUP2 MSTORE PUSH1 0x7 PUSH1 0x20 MSTORE PUSH1 0x40 SWAP1 KECCAK256 PUSH2 0x486 PUSH2 0xA3F JUMP JUMPDEST PUSH1 0x2 DUP2 ADD SLOAD DUP1 PUSH2 0x4D8 JUMPI PUSH1 0x40 MLOAD PUSH3 0x461BCD PUSH1 0xE5 SHL DUP2 MSTORE PUSH1 0x20 PUSH1 0x4 DUP3 ADD MSTORE PUSH1 0x18 PUSH1 0x24 DUP3 ADD MSTORE PUSH32 0x6E6F7420656E6F7567682072657761726420616D6F756E740000000000000000 PUSH1 0x44 DUP3 ADD MSTORE PUSH1 0x64 ADD PUSH2 0x35C JUMP JUMPDEST DUP1 DUP3 PUSH1 0x1 ADD SLOAD PUSH2 0x4E8 SWAP2 SWAP1 PUSH2 0x1079 JUMP JUMPDEST PUSH1 0x1 DUP4 ADD SSTORE PUSH1 0x0 PUSH1 0x2 DUP4 ADD SSTORE PUSH1 0x5 SLOAD PUSH2 0x50B SWAP1 PUSH1 0x1 PUSH1 0x1 PUSH1 0xA0 SHL SUB AND CALLER DUP4 PUSH2 0xB39 JUMP JUMPDEST PUSH1 0x40 MLOAD DUP2 DUP2 MSTORE CALLER SWAP1 PUSH32 0x619CAAFABDD75649B302BA8419E48CCCF64F37F1983AC4727CFB38B57703FFC9 SWAP1 PUSH1 0x20 ADD PUSH1 0x40 MLOAD DUP1 SWAP2 SUB SWAP1 LOG2 POP POP JUMP JUMPDEST PUSH1 0x0 SLOAD PUSH1 0x1 PUSH1 0x1 PUSH1 0xA0 SHL SUB AND CALLER EQ PUSH2 0x56E JUMPI PUSH1 0x40 MLOAD PUSH3 0x461BCD PUSH1 0xE5 SHL DUP2 MSTORE PUSH1 0x4 ADD PUSH2 0x35C SWAP1 PUSH2 0x1044 JUMP JUMPDEST PUSH1 0x1 DUP1 SLOAD PUSH1 0x1 PUSH1 0x1 PUSH1 0xA0 SHL SUB NOT AND PUSH1 0x1 PUSH1 0x1 PUSH1 0xA0 SHL SUB SWAP3 SWAP1 SWAP3 AND SWAP2 SWAP1 SWAP2 OR SWAP1 SSTORE JUMP JUMPDEST PUSH1 0x0 DUP1 PUSH1 0x7 PUSH1 0x0 PUSH1 0x8 DUP6 DUP2 SLOAD DUP2 LT PUSH2 0x5B8 JUMPI PUSH4 0x4E487B71 PUSH1 0xE0 SHL PUSH1 0x0 MSTORE PUSH1 0x32 PUSH1 0x4 MSTORE PUSH1 0x24 PUSH1 0x0 REVERT JUMPDEST PUSH1 0x0 SWAP2 DUP3 MSTORE PUSH1 0x20 DUP1 DUP4 KECCAK256 SWAP1 SWAP2 ADD SLOAD PUSH1 0x1 PUSH1 0x1 PUSH1 0xA0 SHL SUB AND DUP4 MSTORE DUP3 ADD SWAP3 SWAP1 SWAP3 MSTORE PUSH1 0x40 ADD SWAP1 KECCAK256 SLOAD SWAP4 SWAP3 POP POP POP JUMP JUMPDEST PUSH1 0x1 PUSH1 0x1 PUSH1 0xA0 SHL SUB DUP2 AND PUSH1 0x0 SWAP1 DUP2 MSTORE PUSH1 0x7 PUSH1 0x20 MSTORE PUSH1 0x40 DUP2 KECCAK256 PUSH1 0x3 DUP2 ADD SLOAD TIMESTAMP SWAP1 DUP4 SWAP1 DUP2 SWAP1 PUSH3 0x15180 SWAP1 PUSH2 0x616 SWAP1 DUP6 PUSH2 0x10D0 JUMP JUMPDEST PUSH2 0x620 SWAP2 SWAP1 PUSH2 0x1091 JUMP JUMPDEST SWAP1 POP PUSH1 0x2 SLOAD PUSH1 0x4 SLOAD DUP6 PUSH1 0x0 ADD SLOAD DUP4 PUSH2 0x638 SWAP2 SWAP1 PUSH2 0x10B1 JUMP JUMPDEST PUSH2 0x642 SWAP2 SWAP1 PUSH2 0x10B1 JUMP JUMPDEST PUSH2 0x64C SWAP2 SWAP1 PUSH2 0x1091 JUMP JUMPDEST SWAP7 SWAP6 POP POP POP POP POP POP JUMP JUMPDEST PUSH1 0x0 SLOAD PUSH1 0x1 PUSH1 0x1 PUSH1 0xA0 SHL SUB AND CALLER EQ PUSH2 0x680 JUMPI PUSH1 0x40 MLOAD PUSH3 0x461BCD PUSH1 0xE5 SHL DUP2 MSTORE PUSH1 0x4 ADD PUSH2 0x35C SWAP1 PUSH2 0x1044 JUMP JUMPDEST PUSH2 0x68A PUSH1 0x0 PUSH2 0xDC1 JUMP JUMPDEST JUMP JUMPDEST PUSH1 0x0 PUSH1 0x8 DUP3 DUP2 SLOAD DUP2 LT PUSH2 0x6AF JUMPI PUSH4 0x4E487B71 PUSH1 0xE0 SHL PUSH1 0x0 MSTORE PUSH1 0x32 PUSH1 0x4 MSTORE PUSH1 0x24 PUSH1 0x0 REVERT JUMPDEST PUSH1 0x0 SWAP2 DUP3 MSTORE PUSH1 0x20 SWAP1 SWAP2 KECCAK256 ADD SLOAD PUSH1 0x1 PUSH1 0x1 PUSH1 0xA0 SHL SUB AND SWAP3 SWAP2 POP POP JUMP JUMPDEST PUSH1 0x8 DUP2 DUP2 SLOAD DUP2 LT PUSH2 0x6DA JUMPI PUSH1 0x0 DUP1 REVERT JUMPDEST PUSH1 0x0 SWAP2 DUP3 MSTORE PUSH1 0x20 SWAP1 SWAP2 KECCAK256 ADD SLOAD PUSH1 0x1 PUSH1 0x1 PUSH1 0xA0 SHL SUB AND SWAP1 POP DUP2 JUMP JUMPDEST PUSH1 0x0 DUP2 GT PUSH2 0x735 JUMPI PUSH1 0x40 MLOAD PUSH3 0x461BCD PUSH1 0xE5 SHL DUP2 MSTORE PUSH1 0x20 PUSH1 0x4 DUP3 ADD MSTORE PUSH1 0xE PUSH1 0x24 DUP3 ADD MSTORE PUSH14 0x1A5B9D985A5B1908185B5BDD5B9D PUSH1 0x92 SHL PUSH1 0x44 DUP3 ADD MSTORE PUSH1 0x64 ADD PUSH2 0x35C JUMP JUMPDEST PUSH1 0x1 SLOAD PUSH2 0x74D SWAP1 PUSH1 0x1 PUSH1 0x1 PUSH1 0xA0 SHL SUB AND CALLER ADDRESS DUP5 PUSH2 0xE11 JUMP JUMPDEST CALLER PUSH1 0x0 SWAP1 DUP2 MSTORE PUSH1 0x7 PUSH1 0x20 MSTORE PUSH1 0x40 DUP2 KECCAK256 SWAP1 PUSH1 0x1 SWAP1 JUMPDEST PUSH1 0x8 SLOAD DUP2 LT ISZERO PUSH2 0x7C8 JUMPI CALLER PUSH1 0x1 PUSH1 0x1 PUSH1 0xA0 SHL SUB AND PUSH1 0x8 DUP3 DUP2 SLOAD DUP2 LT PUSH2 0x796 JUMPI PUSH4 0x4E487B71 PUSH1 0xE0 SHL PUSH1 0x0 MSTORE PUSH1 0x32 PUSH1 0x4 MSTORE PUSH1 0x24 PUSH1 0x0 REVERT JUMPDEST PUSH1 0x0 SWAP2 DUP3 MSTORE PUSH1 0x20 SWAP1 SWAP2 KECCAK256 ADD SLOAD PUSH1 0x1 PUSH1 0x1 PUSH1 0xA0 SHL SUB AND EQ ISZERO PUSH2 0x7B6 JUMPI PUSH1 0x0 SWAP2 POP JUMPDEST DUP1 PUSH2 0x7C0 DUP2 PUSH2 0x10E7 JUMP JUMPDEST SWAP2 POP POP PUSH2 0x761 JUMP JUMPDEST POP PUSH2 0x7D1 PUSH2 0xA3F JUMP JUMPDEST DUP1 ISZERO PUSH2 0x83A JUMPI PUSH1 0x8 DUP1 SLOAD PUSH1 0x1 DUP2 DUP2 ADD DUP4 SSTORE PUSH1 0x0 SWAP3 DUP4 MSTORE PUSH32 0xF3F7A9FE364FAAB93B216DA50A3214154F22A0A2B415B23A84C8169E8B636EE3 SWAP1 SWAP2 ADD DUP1 SLOAD PUSH1 0x1 PUSH1 0x1 PUSH1 0xA0 SHL SUB NOT AND CALLER OR SWAP1 SSTORE DUP5 DUP5 SSTORE DUP4 ADD DUP2 SWAP1 SSTORE PUSH1 0x2 DUP4 ADD SSTORE TIMESTAMP PUSH1 0x4 DUP4 ADD DUP2 SWAP1 SSTORE PUSH1 0x3 DUP4 ADD SSTORE PUSH2 0x857 JUMP JUMPDEST DUP2 SLOAD PUSH2 0x847 SWAP1 DUP5 SWAP1 PUSH2 0x1079 JUMP JUMPDEST DUP3 SSTORE TIMESTAMP PUSH1 0x4 DUP4 ADD DUP2 SWAP1 SSTORE PUSH1 0x3 DUP4 ADD SSTORE JUMPDEST DUP3 PUSH1 0x2 SLOAD PUSH2 0x865 SWAP2 SWAP1 PUSH2 0x1079 JUMP JUMPDEST PUSH1 0x2 SSTORE PUSH1 0x40 MLOAD DUP4 DUP2 MSTORE CALLER SWAP1 PUSH32 0xE1FFFCC4923D04B559F4D29A8BFC6CDA04EB5B0D3C460751C2402C5C5CC9109C SWAP1 PUSH1 0x20 ADD PUSH1 0x40 MLOAD DUP1 SWAP2 SUB SWAP1 LOG2 POP POP POP JUMP JUMPDEST PUSH1 0x0 SLOAD PUSH1 0x1 PUSH1 0x1 PUSH1 0xA0 SHL SUB AND CALLER EQ PUSH2 0x8CC JUMPI PUSH1 0x40 MLOAD PUSH3 0x461BCD PUSH1 0xE5 SHL DUP2 MSTORE PUSH1 0x4 ADD PUSH2 0x35C SWAP1 PUSH2 0x1044 JUMP JUMPDEST PUSH1 0x1 PUSH1 0x1 PUSH1 0xA0 SHL SUB DUP2 AND PUSH2 0x931 JUMPI PUSH1 0x40 MLOAD PUSH3 0x461BCD PUSH1 0xE5 SHL DUP2 MSTORE PUSH1 0x20 PUSH1 0x4 DUP3 ADD MSTORE PUSH1 0x26 PUSH1 0x24 DUP3 ADD MSTORE PUSH32 0x4F776E61626C653A206E6577206F776E657220697320746865207A65726F2061 PUSH1 0x44 DUP3 ADD MSTORE PUSH6 0x646472657373 PUSH1 0xD0 SHL PUSH1 0x64 DUP3 ADD MSTORE PUSH1 0x84 ADD PUSH2 0x35C JUMP JUMPDEST PUSH2 0x93A DUP2 PUSH2 0xDC1 JUMP JUMPDEST POP JUMP JUMPDEST PUSH1 0x0 SLOAD PUSH1 0x1 PUSH1 0x1 PUSH1 0xA0 SHL SUB AND CALLER EQ PUSH2 0x967 JUMPI PUSH1 0x40 MLOAD PUSH3 0x461BCD PUSH1 0xE5 SHL DUP2 MSTORE PUSH1 0x4 ADD PUSH2 0x35C SWAP1 PUSH2 0x1044 JUMP JUMPDEST PUSH1 0x40 MLOAD PUSH4 0xA9059CBB PUSH1 0xE0 SHL DUP2 MSTORE PUSH1 0x1 PUSH1 0x1 PUSH1 0xA0 SHL SUB DUP4 DUP2 AND PUSH1 0x4 DUP4 ADD MSTORE PUSH1 0x24 DUP3 ADD DUP4 SWAP1 MSTORE DUP5 SWAP2 SWAP1 DUP3 AND SWAP1 PUSH4 0xA9059CBB SWAP1 PUSH1 0x44 ADD PUSH1 0x20 PUSH1 0x40 MLOAD DUP1 DUP4 SUB DUP2 PUSH1 0x0 DUP8 DUP1 EXTCODESIZE ISZERO DUP1 ISZERO PUSH2 0x9B4 JUMPI PUSH1 0x0 DUP1 REVERT JUMPDEST POP GAS CALL ISZERO DUP1 ISZERO PUSH2 0x9C8 JUMPI RETURNDATASIZE PUSH1 0x0 DUP1 RETURNDATACOPY RETURNDATASIZE PUSH1 0x0 REVERT JUMPDEST POP POP POP POP PUSH1 0x40 MLOAD RETURNDATASIZE PUSH1 0x1F NOT PUSH1 0x1F DUP3 ADD AND DUP3 ADD DUP1 PUSH1 0x40 MSTORE POP DUP2 ADD SWAP1 PUSH2 0x9EC SWAP2 SWAP1 PUSH2 0xFD3 JUMP JUMPDEST POP POP POP POP POP JUMP JUMPDEST PUSH1 0x0 SLOAD PUSH1 0x1 PUSH1 0x1 PUSH1 0xA0 SHL SUB AND CALLER EQ PUSH2 0xA1D JUMPI PUSH1 0x40 MLOAD PUSH3 0x461BCD PUSH1 0xE5 SHL DUP2 MSTORE PUSH1 0x4 ADD PUSH2 0x35C SWAP1 PUSH2 0x1044 JUMP JUMPDEST PUSH1 0x5 DUP1 SLOAD PUSH1 0x1 PUSH1 0x1 PUSH1 0xA0 SHL SUB NOT AND PUSH1 0x1 PUSH1 0x1 PUSH1 0xA0 SHL SUB SWAP3 SWAP1 SWAP3 AND SWAP2 SWAP1 SWAP2 OR SWAP1 SSTORE JUMP JUMPDEST PUSH1 0x0 JUMPDEST PUSH1 0x8 SLOAD DUP2 LT ISZERO PUSH2 0x93A JUMPI PUSH1 0x0 PUSH1 0x7 PUSH1 0x0 PUSH1 0x8 DUP5 DUP2 SLOAD DUP2 LT PUSH2 0xA73 JUMPI PUSH4 0x4E487B71 PUSH1 0xE0 SHL PUSH1 0x0 MSTORE PUSH1 0x32 PUSH1 0x4 MSTORE PUSH1 0x24 PUSH1 0x0 REVERT JUMPDEST PUSH1 0x0 SWAP2 DUP3 MSTORE PUSH1 0x20 DUP1 DUP4 KECCAK256 SWAP1 SWAP2 ADD SLOAD PUSH1 0x1 PUSH1 0x1 PUSH1 0xA0 SHL SUB AND DUP4 MSTORE DUP3 ADD SWAP3 SWAP1 SWAP3 MSTORE PUSH1 0x40 ADD DUP2 KECCAK256 PUSH1 0x3 DUP2 ADD SLOAD SWAP1 SWAP3 POP TIMESTAMP SWAP2 SWAP1 PUSH3 0x15180 SWAP1 PUSH2 0xAB1 SWAP1 DUP5 PUSH2 0x10D0 JUMP JUMPDEST PUSH2 0xABB SWAP2 SWAP1 PUSH2 0x1091 JUMP JUMPDEST PUSH1 0x2 SLOAD DUP5 SLOAD PUSH1 0x4 SLOAD SWAP3 SWAP4 POP PUSH1 0x0 SWAP3 PUSH2 0xAD3 SWAP1 DUP6 PUSH2 0x10B1 JUMP JUMPDEST PUSH2 0xADD SWAP2 SWAP1 PUSH2 0x10B1 JUMP JUMPDEST PUSH2 0xAE7 SWAP2 SWAP1 PUSH2 0x1091 JUMP JUMPDEST PUSH1 0x2 DUP6 ADD SLOAD SWAP1 SWAP2 POP PUSH2 0xAF9 SWAP1 DUP3 PUSH2 0xF4F JUMP JUMPDEST PUSH1 0x2 DUP6 ADD SSTORE PUSH2 0xB0B DUP3 PUSH3 0x15180 PUSH2 0x10B1 JUMP JUMPDEST DUP5 PUSH1 0x3 ADD SLOAD PUSH2 0xB1A SWAP2 SWAP1 PUSH2 0x1079 JUMP JUMPDEST DUP5 PUSH1 0x3 ADD DUP2 SWAP1 SSTORE POP POP POP POP POP DUP1 DUP1 PUSH2 0xB31 SWAP1 PUSH2 0x10E7 JUMP JUMPDEST SWAP2 POP POP PUSH2 0xA42 JUMP JUMPDEST PUSH1 0x40 DUP1 MLOAD PUSH1 0x1 PUSH1 0x1 PUSH1 0xA0 SHL SUB DUP5 DUP2 AND PUSH1 0x24 DUP4 ADD MSTORE PUSH1 0x44 DUP1 DUP4 ADD DUP6 SWAP1 MSTORE DUP4 MLOAD DUP1 DUP5 SUB SWAP1 SWAP2 ADD DUP2 MSTORE PUSH1 0x64 SWAP1 SWAP3 ADD DUP4 MSTORE PUSH1 0x20 DUP3 ADD DUP1 MLOAD PUSH1 0x1 PUSH1 0x1 PUSH1 0xE0 SHL SUB AND PUSH4 0xA9059CBB PUSH1 0xE0 SHL OR SWAP1 MSTORE SWAP2 MLOAD PUSH1 0x0 SWAP3 DUP4 SWAP3 SWAP1 DUP8 AND SWAP2 PUSH2 0xB95 SWAP2 SWAP1 PUSH2 0x100B JUMP JUMPDEST PUSH1 0x0 PUSH1 0x40 MLOAD DUP1 DUP4 SUB DUP2 PUSH1 0x0 DUP7 GAS CALL SWAP2 POP POP RETURNDATASIZE DUP1 PUSH1 0x0 DUP2 EQ PUSH2 0xBD2 JUMPI PUSH1 0x40 MLOAD SWAP2 POP PUSH1 0x1F NOT PUSH1 0x3F RETURNDATASIZE ADD AND DUP3 ADD PUSH1 0x40 MSTORE RETURNDATASIZE DUP3 MSTORE RETURNDATASIZE PUSH1 0x0 PUSH1 0x20 DUP5 ADD RETURNDATACOPY PUSH2 0xBD7 JUMP JUMPDEST PUSH1 0x60 SWAP2 POP JUMPDEST POP SWAP2 POP SWAP2 POP DUP2 DUP1 ISZERO PUSH2 0xC01 JUMPI POP DUP1 MLOAD ISZERO DUP1 PUSH2 0xC01 JUMPI POP DUP1 DUP1 PUSH1 0x20 ADD SWAP1 MLOAD DUP2 ADD SWAP1 PUSH2 0xC01 SWAP2 SWAP1 PUSH2 0xFD3 JUMP JUMPDEST PUSH2 0x9EC JUMPI PUSH1 0x40 MLOAD PUSH3 0x461BCD PUSH1 0xE5 SHL DUP2 MSTORE PUSH1 0x20 PUSH1 0x4 DUP3 ADD MSTORE PUSH1 0x2D PUSH1 0x24 DUP3 ADD MSTORE PUSH32 0x5472616E7366657248656C7065723A3A736166655472616E736665723A207472 PUSH1 0x44 DUP3 ADD MSTORE PUSH13 0x185B9CD9995C8819985A5B1959 PUSH1 0x9A SHL PUSH1 0x64 DUP3 ADD MSTORE PUSH1 0x84 ADD PUSH2 0x35C JUMP JUMPDEST PUSH1 0x0 DUP1 JUMPDEST PUSH1 0x8 SLOAD PUSH2 0xC76 SWAP1 PUSH1 0x1 SWAP1 PUSH2 0x10D0 JUMP JUMPDEST DUP2 LT ISZERO PUSH2 0xD7C JUMPI CALLER PUSH1 0x1 PUSH1 0x1 PUSH1 0xA0 SHL SUB AND PUSH1 0x8 DUP3 DUP2 SLOAD DUP2 LT PUSH2 0xCA8 JUMPI PUSH4 0x4E487B71 PUSH1 0xE0 SHL PUSH1 0x0 MSTORE PUSH1 0x32 PUSH1 0x4 MSTORE PUSH1 0x24 PUSH1 0x0 REVERT JUMPDEST PUSH1 0x0 SWAP2 DUP3 MSTORE PUSH1 0x20 SWAP1 SWAP2 KECCAK256 ADD SLOAD PUSH1 0x1 PUSH1 0x1 PUSH1 0xA0 SHL SUB AND EQ ISZERO PUSH2 0xCCC JUMPI PUSH1 0x1 SWAP2 POP PUSH2 0xD6A JUMP JUMPDEST DUP2 PUSH2 0xCD6 JUMPI PUSH2 0xD6A JUMP JUMPDEST PUSH1 0x8 PUSH2 0xCE3 DUP3 PUSH1 0x1 PUSH2 0x1079 JUMP JUMPDEST DUP2 SLOAD DUP2 LT PUSH2 0xD01 JUMPI PUSH4 0x4E487B71 PUSH1 0xE0 SHL PUSH1 0x0 MSTORE PUSH1 0x32 PUSH1 0x4 MSTORE PUSH1 0x24 PUSH1 0x0 REVERT JUMPDEST PUSH1 0x0 SWAP2 DUP3 MSTORE PUSH1 0x20 SWAP1 SWAP2 KECCAK256 ADD SLOAD PUSH1 0x8 DUP1 SLOAD PUSH1 0x1 PUSH1 0x1 PUSH1 0xA0 SHL SUB SWAP1 SWAP3 AND SWAP2 DUP4 SWAP1 DUP2 LT PUSH2 0xD3B JUMPI PUSH4 0x4E487B71 PUSH1 0xE0 SHL PUSH1 0x0 MSTORE PUSH1 0x32 PUSH1 0x4 MSTORE PUSH1 0x24 PUSH1 0x0 REVERT JUMPDEST SWAP1 PUSH1 0x0 MSTORE PUSH1 0x20 PUSH1 0x0 KECCAK256 ADD PUSH1 0x0 PUSH2 0x100 EXP DUP2 SLOAD DUP2 PUSH1 0x1 PUSH1 0x1 PUSH1 0xA0 SHL SUB MUL NOT AND SWAP1 DUP4 PUSH1 0x1 PUSH1 0x1 PUSH1 0xA0 SHL SUB AND MUL OR SWAP1 SSTORE POP JUMPDEST DUP1 PUSH2 0xD74 DUP2 PUSH2 0x10E7 JUMP JUMPDEST SWAP2 POP POP PUSH2 0xC67 JUMP JUMPDEST POP PUSH1 0x8 DUP1 SLOAD DUP1 PUSH2 0xD9C JUMPI PUSH4 0x4E487B71 PUSH1 0xE0 SHL PUSH1 0x0 MSTORE PUSH1 0x31 PUSH1 0x4 MSTORE PUSH1 0x24 PUSH1 0x0 REVERT JUMPDEST PUSH1 0x0 DUP3 DUP2 MSTORE PUSH1 0x20 SWAP1 KECCAK256 DUP2 ADD PUSH1 0x0 NOT SWAP1 DUP2 ADD DUP1 SLOAD PUSH1 0x1 PUSH1 0x1 PUSH1 0xA0 SHL SUB NOT AND SWAP1 SSTORE ADD SWAP1 SSTORE POP JUMP JUMPDEST PUSH1 0x0 DUP1 SLOAD PUSH1 0x1 PUSH1 0x1 PUSH1 0xA0 SHL SUB DUP4 DUP2 AND PUSH1 0x1 PUSH1 0x1 PUSH1 0xA0 SHL SUB NOT DUP4 AND DUP2 OR DUP5 SSTORE PUSH1 0x40 MLOAD SWAP2 SWAP1 SWAP3 AND SWAP3 DUP4 SWAP2 PUSH32 0x8BE0079C531659141344CD1FD0A4F28419497F9722A3DAAFE3B4186F6B6457E0 SWAP2 SWAP1 LOG3 POP POP JUMP JUMPDEST PUSH1 0x40 DUP1 MLOAD PUSH1 0x1 PUSH1 0x1 PUSH1 0xA0 SHL SUB DUP6 DUP2 AND PUSH1 0x24 DUP4 ADD MSTORE DUP5 DUP2 AND PUSH1 0x44 DUP4 ADD MSTORE PUSH1 0x64 DUP1 DUP4 ADD DUP6 SWAP1 MSTORE DUP4 MLOAD DUP1 DUP5 SUB SWAP1 SWAP2 ADD DUP2 MSTORE PUSH1 0x84 SWAP1 SWAP3 ADD DUP4 MSTORE PUSH1 0x20 DUP3 ADD DUP1 MLOAD PUSH1 0x1 PUSH1 0x1 PUSH1 0xE0 SHL SUB AND PUSH4 0x23B872DD PUSH1 0xE0 SHL OR SWAP1 MSTORE SWAP2 MLOAD PUSH1 0x0 SWAP3 DUP4 SWAP3 SWAP1 DUP9 AND SWAP2 PUSH2 0xE75 SWAP2 SWAP1 PUSH2 0x100B JUMP JUMPDEST PUSH1 0x0 PUSH1 0x40 MLOAD DUP1 DUP4 SUB DUP2 PUSH1 0x0 DUP7 GAS CALL SWAP2 POP POP RETURNDATASIZE DUP1 PUSH1 0x0 DUP2 EQ PUSH2 0xEB2 JUMPI PUSH1 0x40 MLOAD SWAP2 POP PUSH1 0x1F NOT PUSH1 0x3F RETURNDATASIZE ADD AND DUP3 ADD PUSH1 0x40 MSTORE RETURNDATASIZE DUP3 MSTORE RETURNDATASIZE PUSH1 0x0 PUSH1 0x20 DUP5 ADD RETURNDATACOPY PUSH2 0xEB7 JUMP JUMPDEST PUSH1 0x60 SWAP2 POP JUMPDEST POP SWAP2 POP SWAP2 POP DUP2 DUP1 ISZERO PUSH2 0xEE1 JUMPI POP DUP1 MLOAD ISZERO DUP1 PUSH2 0xEE1 JUMPI POP DUP1 DUP1 PUSH1 0x20 ADD SWAP1 MLOAD DUP2 ADD SWAP1 PUSH2 0xEE1 SWAP2 SWAP1 PUSH2 0xFD3 JUMP JUMPDEST PUSH2 0xF47 JUMPI PUSH1 0x40 MLOAD PUSH3 0x461BCD PUSH1 0xE5 SHL DUP2 MSTORE PUSH1 0x20 PUSH1 0x4 DUP3 ADD MSTORE PUSH1 0x31 PUSH1 0x24 DUP3 ADD MSTORE PUSH32 0x5472616E7366657248656C7065723A3A7472616E7366657246726F6D3A207472 PUSH1 0x44 DUP3 ADD MSTORE PUSH17 0x185B9CD9995C919C9BDB4819985A5B1959 PUSH1 0x7A SHL PUSH1 0x64 DUP3 ADD MSTORE PUSH1 0x84 ADD PUSH2 0x35C JUMP JUMPDEST POP POP POP POP POP POP JUMP JUMPDEST PUSH1 0x0 PUSH2 0xF5B DUP3 DUP5 PUSH2 0x1079 JUMP JUMPDEST SWAP4 SWAP3 POP POP POP JUMP JUMPDEST DUP1 CALLDATALOAD PUSH1 0x1 PUSH1 0x1 PUSH1 0xA0 SHL SUB DUP2 AND DUP2 EQ PUSH2 0xF79 JUMPI PUSH1 0x0 DUP1 REVERT JUMPDEST SWAP2 SWAP1 POP JUMP JUMPDEST PUSH1 0x0 PUSH1 0x20 DUP3 DUP5 SUB SLT ISZERO PUSH2 0xF8F JUMPI DUP1 DUP2 REVERT JUMPDEST PUSH2 0xF5B DUP3 PUSH2 0xF62 JUMP JUMPDEST PUSH1 0x0 DUP1 PUSH1 0x0 PUSH1 0x60 DUP5 DUP7 SUB SLT ISZERO PUSH2 0xFAC JUMPI DUP2 DUP3 REVERT JUMPDEST PUSH2 0xFB5 DUP5 PUSH2 0xF62 JUMP JUMPDEST SWAP3 POP PUSH2 0xFC3 PUSH1 0x20 DUP6 ADD PUSH2 0xF62 JUMP JUMPDEST SWAP2 POP PUSH1 0x40 DUP5 ADD CALLDATALOAD SWAP1 POP SWAP3 POP SWAP3 POP SWAP3 JUMP JUMPDEST PUSH1 0x0 PUSH1 0x20 DUP3 DUP5 SUB SLT ISZERO PUSH2 0xFE4 JUMPI DUP1 DUP2 REVERT JUMPDEST DUP2 MLOAD DUP1 ISZERO ISZERO DUP2 EQ PUSH2 0xF5B JUMPI DUP2 DUP3 REVERT JUMPDEST PUSH1 0x0 PUSH1 0x20 DUP3 DUP5 SUB SLT ISZERO PUSH2 0x1004 JUMPI DUP1 DUP2 REVERT JUMPDEST POP CALLDATALOAD SWAP2 SWAP1 POP JUMP JUMPDEST PUSH1 0x0 DUP3 MLOAD DUP2 JUMPDEST DUP2 DUP2 LT ISZERO PUSH2 0x102B JUMPI PUSH1 0x20 DUP2 DUP7 ADD DUP2 ADD MLOAD DUP6 DUP4 ADD MSTORE ADD PUSH2 0x1011 JUMP JUMPDEST DUP2 DUP2 GT ISZERO PUSH2 0x1039 JUMPI DUP3 DUP3 DUP6 ADD MSTORE JUMPDEST POP SWAP2 SWAP1 SWAP2 ADD SWAP3 SWAP2 POP POP JUMP JUMPDEST PUSH1 0x20 DUP1 DUP3 MSTORE DUP2 DUP2 ADD MSTORE PUSH32 0x4F776E61626C653A2063616C6C6572206973206E6F7420746865206F776E6572 PUSH1 0x40 DUP3 ADD MSTORE PUSH1 0x60 ADD SWAP1 JUMP JUMPDEST PUSH1 0x0 DUP3 NOT DUP3 GT ISZERO PUSH2 0x108C JUMPI PUSH2 0x108C PUSH2 0x1102 JUMP JUMPDEST POP ADD SWAP1 JUMP JUMPDEST PUSH1 0x0 DUP3 PUSH2 0x10AC JUMPI PUSH4 0x4E487B71 PUSH1 0xE0 SHL DUP2 MSTORE PUSH1 0x12 PUSH1 0x4 MSTORE PUSH1 0x24 DUP2 REVERT JUMPDEST POP DIV SWAP1 JUMP JUMPDEST PUSH1 0x0 DUP2 PUSH1 0x0 NOT DIV DUP4 GT DUP3 ISZERO ISZERO AND ISZERO PUSH2 0x10CB JUMPI PUSH2 0x10CB PUSH2 0x1102 JUMP JUMPDEST POP MUL SWAP1 JUMP JUMPDEST PUSH1 0x0 DUP3 DUP3 LT ISZERO PUSH2 0x10E2 JUMPI PUSH2 0x10E2 PUSH2 0x1102 JUMP JUMPDEST POP SUB SWAP1 JUMP JUMPDEST PUSH1 0x0 PUSH1 0x0 NOT DUP3 EQ ISZERO PUSH2 0x10FB JUMPI PUSH2 0x10FB PUSH2 0x1102 JUMP JUMPDEST POP PUSH1 0x1 ADD SWAP1 JUMP JUMPDEST PUSH4 0x4E487B71 PUSH1 0xE0 SHL PUSH1 0x0 MSTORE PUSH1 0x11 PUSH1 0x4 MSTORE PUSH1 0x24 PUSH1 0x0 REVERT INVALID LOG2 PUSH5 0x6970667358 0x22 SLT KECCAK256 BALANCE DUP2 PUSH9 0x315EC279809740BD25 SWAP14 0x5F ADDRESS CODECOPY SWAP4 SWAP6 0xBD MSTORE BALANCE 0x49 KECCAK256 SWAP1 0xE6 0x24 DUP8 0xC9 MULMOD 0xE3 DUP9 0xDF PUSH5 0x736F6C6343 STOP ADDMOD DIV STOP CALLER "
				},
				"gasEstimates": {
					"creation": {
						"codeDepositCost": "886000",
						"executionCost": "infinite",
						"totalCost": "infinite"
					},
					"external": {
						"adminAddress()": "1147",
						"claim()": "infinite",
						"ecioClaimPossible(address)": "infinite",
						"lastRewardTimeStamp()": "1063",
						"lockedTime()": "1084",
						"lpToken()": "1060",
						"owner()": "1164",
						"renounceOwnership()": "23525",
						"rewardToken()": "1125",
						"stake(uint256)": "infinite",
						"totalAmount()": "1041",
						"totalLpTokenAmount()": "1103",
						"transferOwnership(address)": "23653",
						"transferToken(address,address,uint256)": "infinite",
						"updateLpTokenAddress(address)": "22056",
						"updateRewardTokenAddress(address)": "22143",
						"userAddress(uint256)": "2042",
						"userCounter()": "1014",
						"userInfo(address)": "4576",
						"userList(uint256)": "2059",
						"userStakedLpAmount(uint256)": "2957",
						"withdraw()": "infinite"
					},
					"internal": {
						"deleteBlock()": "infinite",
						"updatePool()": "infinite"
					}
				},
				"methodIdentifiers": {
					"adminAddress()": "fc6f9468",
					"claim()": "4e71d92d",
					"ecioClaimPossible(address)": "6e26a967",
					"lastRewardTimeStamp()": "356c7284",
					"lockedTime()": "a8b38205",
					"lpToken()": "5fcbd285",
					"owner()": "8da5cb5b",
					"renounceOwnership()": "715018a6",
					"rewardToken()": "f7c618c1",
					"stake(uint256)": "a694fc3a",
					"totalAmount()": "1a39d8ef",
					"totalLpTokenAmount()": "bce4f054",
					"transferOwnership(address)": "f2fde38b",
					"transferToken(address,address,uint256)": "f5537ede",
					"updateLpTokenAddress(address)": "5fd595c0",
					"updateRewardTokenAddress(address)": "fd1a2397",
					"userAddress(uint256)": "9674a0ac",
					"userCounter()": "f0c37a59",
					"userInfo(address)": "1959a002",
					"userList(uint256)": "9f4216e8",
					"userStakedLpAmount(uint256)": "6a9db411",
					"withdraw()": "3ccfd60b"
				}
			},
			"storageLayout": {
				"storage": [
					{
						"astId": 107,
						"contract": "staking.sol:EcioStaking",
						"label": "_owner",
						"offset": 0,
						"slot": "0",
						"type": "t_address"
					},
					{
						"astId": 700,
						"contract": "staking.sol:EcioStaking",
						"label": "lpToken",
						"offset": 0,
						"slot": "1",
						"type": "t_address"
					},
					{
						"astId": 702,
						"contract": "staking.sol:EcioStaking",
						"label": "totalAmount",
						"offset": 0,
						"slot": "2",
						"type": "t_uint256"
					},
					{
						"astId": 704,
						"contract": "staking.sol:EcioStaking",
						"label": "lastRewardTimeStamp",
						"offset": 0,
						"slot": "3",
						"type": "t_uint256"
					},
					{
						"astId": 711,
						"contract": "staking.sol:EcioStaking",
						"label": "REWARD_PER_DAY",
						"offset": 0,
						"slot": "4",
						"type": "t_uint256"
					},
					{
						"astId": 713,
						"contract": "staking.sol:EcioStaking",
						"label": "rewardToken",
						"offset": 0,
						"slot": "5",
						"type": "t_address"
					},
					{
						"astId": 715,
						"contract": "staking.sol:EcioStaking",
						"label": "adminAddress",
						"offset": 0,
						"slot": "6",
						"type": "t_address"
					},
					{
						"astId": 720,
						"contract": "staking.sol:EcioStaking",
						"label": "userInfo",
						"offset": 0,
						"slot": "7",
						"type": "t_mapping(t_address,t_struct(UserInfo)698_storage)"
					},
					{
						"astId": 723,
						"contract": "staking.sol:EcioStaking",
						"label": "userList",
						"offset": 0,
						"slot": "8",
						"type": "t_array(t_address)dyn_storage"
					},
					{
						"astId": 730,
						"contract": "staking.sol:EcioStaking",
						"label": "lockedTime",
						"offset": 0,
						"slot": "9",
						"type": "t_uint256"
					},
					{
						"astId": 733,
						"contract": "staking.sol:EcioStaking",
						"label": "unlocked",
						"offset": 0,
						"slot": "10",
						"type": "t_uint256"
					}
				],
				"types": {
					"t_address": {
						"encoding": "inplace",
						"label": "address",
						"numberOfBytes": "20"
					},
					"t_array(t_address)dyn_storage": {
						"base": "t_address",
						"encoding": "dynamic_array",
						"label": "address[]",
						"numberOfBytes": "32"
					},
					"t_mapping(t_address,t_struct(UserInfo)698_storage)": {
						"encoding": "mapping",
						"key": "t_address",
						"label": "mapping(address => struct EcioStaking.UserInfo)",
						"numberOfBytes": "32",
						"value": "t_struct(UserInfo)698_storage"
					},
					"t_struct(UserInfo)698_storage": {
						"encoding": "inplace",
						"label": "struct EcioStaking.UserInfo",
						"members": [
							{
								"astId": 689,
								"contract": "staking.sol:EcioStaking",
								"label": "amount",
								"offset": 0,
								"slot": "0",
								"type": "t_uint256"
							},
							{
								"astId": 691,
								"contract": "staking.sol:EcioStaking",
								"label": "rewarded",
								"offset": 0,
								"slot": "1",
								"type": "t_uint256"
							},
							{
								"astId": 693,
								"contract": "staking.sol:EcioStaking",
								"label": "rewardDebt",
								"offset": 0,
								"slot": "2",
								"type": "t_uint256"
							},
							{
								"astId": 695,
								"contract": "staking.sol:EcioStaking",
								"label": "lastCalculatedTimeStamp",
								"offset": 0,
								"slot": "3",
								"type": "t_uint256"
							},
							{
								"astId": 697,
								"contract": "staking.sol:EcioStaking",
								"label": "lastDepositTimeStamp",
								"offset": 0,
								"slot": "4",
								"type": "t_uint256"
							}
						],
						"numberOfBytes": "160"
					},
					"t_uint256": {
						"encoding": "inplace",
						"label": "uint256",
						"numberOfBytes": "32"
					}
				}
			},
			"userdoc": {
				"kind": "user",
				"methods": {},
				"version": 1
			}
		}
	}
}