{
	"data": {
		"bytecode": {
			"linkReferences": {},
			"object": "608060405269d3c21bcecceda1000000600455624f1a006009556001600a553480156200002b57600080fd5b50604051620012ae380380620012ae8339810160408190526200004e9162000119565b6200005933620000ac565b60068054336001600160a01b031991821681179092556001805482166001600160a01b0386811691909117909155600580549092169084161790556000600255620000a490620000ac565b505062000150565b600080546001600160a01b038381166001600160a01b0319831681178455604051919092169283917f8be0079c531659141344cd1fd0a4f28419497f9722a3daafe3b4186f6b6457e09190a35050565b80516001600160a01b03811681146200011457600080fd5b919050565b600080604083850312156200012c578182fd5b6200013783620000fc565b91506200014760208401620000fc565b90509250929050565b61114e80620001606000396000f3fe608060405234801561001057600080fd5b50600436106101425760003560e01c80639674a0ac116100b8578063f0c37a591161007c578063f0c37a59146102aa578063f2fde38b146102b2578063f5537ede146102c5578063f7c618c1146102d8578063fc6f9468146102eb578063fd1a2397146102fe57600080fd5b80639674a0ac146102605780639f4216e814610273578063a694fc3a14610286578063a8b3820514610299578063bce4f054146102a257600080fd5b80635fcbd2851161010a5780635fcbd285146101e35780635fd595c01461020e5780636a9db411146102215780636e26a96714610234578063715018a6146102475780638da5cb5b1461024f57600080fd5b80631959a002146101475780631a39d8ef146101b1578063356c7284146101c85780633ccfd60b146101d15780634e71d92d146101db575b600080fd5b610184610155366004610f7e565b600760205260009081526040902080546001820154600283015460038401546004909401549293919290919085565b604080519586526020860194909452928401919091526060830152608082015260a0015b60405180910390f35b6101ba60025481565b6040519081526020016101a8565b6101ba60035481565b6101d9610311565b005b6101d961046f565b6001546101f6906001600160a01b031681565b6040516001600160a01b0390911681526020016101a8565b6101d961021c366004610f7e565b610544565b6101ba61022f366004610ff3565b610590565b6101ba610242366004610f7e565b6105e4565b6101d9610656565b6000546001600160a01b03166101f6565b6101f661026e366004610ff3565b61068c565b6101f6610281366004610ff3565b6106ca565b6101d9610294366004610ff3565b6106f4565b6101ba60095481565b6002546101ba565b6008546101ba565b6101d96102c0366004610f7e565b6108a2565b6101d96102d3366004610f98565b61093d565b6005546101f6906001600160a01b031681565b6006546101f6906001600160a01b031681565b6101d961030c366004610f7e565b6109f3565b33600090815260076020526040902060048101546103655760405162461bcd60e51b815260206004820152600c60248201526b34b73b30b634b2103ab9b2b960a11b60448201526064015b60405180910390fd5b80546103a05760405162461bcd60e51b815260206004820152600a6024820152691b9bdd081cdd185ad95960b21b604482015260640161035c565b4260095482600401546103b39190611079565b106103f95760405162461bcd60e51b81526020600482015260166024820152753cb7ba9030b9329034b7103637b1b5b2b22a34b6b29760511b604482015260640161035c565b610401610a3f565b600154815461041b916001600160a01b0316903390610b39565b805460025461042a91906110d0565b600255610435610c63565b805460405190815233907f884edad9ce6fa2440d8a54cc123490eb96d2768479d49ff9c7366125a94243649060200160405180910390a250565b336000908152600760205260409020610486610a3f565b6002810154806104d85760405162461bcd60e51b815260206004820152601860248201527f6e6f7420656e6f7567682072657761726420616d6f756e740000000000000000604482015260640161035c565b8082600101546104e89190611079565b60018301556000600283015560055461050b906001600160a01b03163383610b39565b60405181815233907f619caafabdd75649b302ba8419e48cccf64f37f1983ac4727cfb38b57703ffc99060200160405180910390a25050565b6000546001600160a01b0316331461056e5760405162461bcd60e51b815260040161035c90611044565b600180546001600160a01b0319166001600160a01b0392909216919091179055565b60008060076000600885815481106105b857634e487b7160e01b600052603260045260246000fd5b60009182526020808320909101546001600160a01b031683528201929092526040019020549392505050565b6001600160a01b03811660009081526007602052604081206003810154429083908190620151809061061690856110d0565b6106209190611091565b905060025460045485600001548361063891906110b1565b61064291906110b1565b61064c9190611091565b9695505050505050565b6000546001600160a01b031633146106805760405162461bcd60e51b815260040161035c90611044565b61068a6000610dc1565b565b6000600882815481106106af57634e487b7160e01b600052603260045260246000fd5b6000918252602090912001546001600160a01b031692915050565b600881815481106106da57600080fd5b6000918252602090912001546001600160a01b0316905081565b600081116107355760405162461bcd60e51b815260206004820152600e60248201526d1a5b9d985a5b1908185b5bdd5b9d60921b604482015260640161035c565b60015461074d906001600160a01b0316333084610e11565b336000908152600760205260408120906001905b6008548110156107c857336001600160a01b03166008828154811061079657634e487b7160e01b600052603260045260246000fd5b6000918252602090912001546001600160a01b031614156107b657600091505b806107c0816110e7565b915050610761565b506107d1610a3f565b801561083a57600880546001818101835560009283527ff3f7a9fe364faab93b216da50a3214154f22a0a2b415b23a84c8169e8b636ee390910180546001600160a01b031916331790558484558301819055600283015542600483018190556003830155610857565b8154610847908490611079565b8255426004830181905560038301555b826002546108659190611079565b60025560405183815233907fe1fffcc4923d04b559f4d29a8bfc6cda04eb5b0d3c460751c2402c5c5cc9109c9060200160405180910390a2505050565b6000546001600160a01b031633146108cc5760405162461bcd60e51b815260040161035c90611044565b6001600160a01b0381166109315760405162461bcd60e51b815260206004820152602660248201527f4f776e61626c653a206e6577206f776e657220697320746865207a65726f206160448201526564647265737360d01b606482015260840161035c565b61093a81610dc1565b50565b6000546001600160a01b031633146109675760405162461bcd60e51b815260040161035c90611044565b60405163a9059cbb60e01b81526001600160a01b0383811660048301526024820183905284919082169063a9059cbb90604401602060405180830381600087803b1580156109b457600080fd5b505af11580156109c8573d6000803e3d6000fd5b505050506040513d601f19601f820116820180604052508101906109ec9190610fd3565b5050505050565b6000546001600160a01b03163314610a1d5760405162461bcd60e51b815260040161035c90611044565b600580546001600160a01b0319166001600160a01b0392909216919091179055565b60005b60085481101561093a5760006007600060088481548110610a7357634e487b7160e01b600052603260045260246000fd5b60009182526020808320909101546001600160a01b03168352820192909252604001812060038101549092504291906201518090610ab190846110d0565b610abb9190611091565b6002548454600454929350600092610ad390856110b1565b610add91906110b1565b610ae79190611091565b6002850154909150610af99082610f4f565b6002850155610b0b82620151806110b1565b8460030154610b1a9190611079565b8460030181905550505050508080610b31906110e7565b915050610a42565b604080516001600160a01b038481166024830152604480830185905283518084039091018152606490920183526020820180516001600160e01b031663a9059cbb60e01b1790529151600092839290871691610b95919061100b565b6000604051808303816000865af19150503d8060008114610bd2576040519150601f19603f3d011682016040523d82523d6000602084013e610bd7565b606091505b5091509150818015610c01575080511580610c01575080806020019051810190610c019190610fd3565b6109ec5760405162461bcd60e51b815260206004820152602d60248201527f5472616e7366657248656c7065723a3a736166655472616e736665723a20747260448201526c185b9cd9995c8819985a5b1959609a1b606482015260840161035c565b6000805b600854610c76906001906110d0565b811015610d7c57336001600160a01b031660088281548110610ca857634e487b7160e01b600052603260045260246000fd5b6000918252602090912001546001600160a01b03161415610ccc5760019150610d6a565b81610cd657610d6a565b6008610ce3826001611079565b81548110610d0157634e487b7160e01b600052603260045260246000fd5b600091825260209091200154600880546001600160a01b039092169183908110610d3b57634e487b7160e01b600052603260045260246000fd5b9060005260206000200160006101000a8154816001600160a01b0302191690836001600160a01b031602179055505b80610d74816110e7565b915050610c67565b506008805480610d9c57634e487b7160e01b600052603160045260246000fd5b600082815260209020810160001990810180546001600160a01b031916905501905550565b600080546001600160a01b038381166001600160a01b0319831681178455604051919092169283917f8be0079c531659141344cd1fd0a4f28419497f9722a3daafe3b4186f6b6457e09190a35050565b604080516001600160a01b0385811660248301528481166044830152606480830185905283518084039091018152608490920183526020820180516001600160e01b03166323b872dd60e01b1790529151600092839290881691610e75919061100b565b6000604051808303816000865af19150503d8060008114610eb2576040519150601f19603f3d011682016040523d82523d6000602084013e610eb7565b606091505b5091509150818015610ee1575080511580610ee1575080806020019051810190610ee19190610fd3565b610f475760405162461bcd60e51b815260206004820152603160248201527f5472616e7366657248656c7065723a3a7472616e7366657246726f6d3a207472604482015270185b9cd9995c919c9bdb4819985a5b1959607a1b606482015260840161035c565b505050505050565b6000610f5b8284611079565b9392505050565b80356001600160a01b0381168114610f7957600080fd5b919050565b600060208284031215610f8f578081fd5b610f5b82610f62565b600080600060608486031215610fac578182fd5b610fb584610f62565b9250610fc360208501610f62565b9150604084013590509250925092565b600060208284031215610fe4578081fd5b81518015158114610f5b578182fd5b600060208284031215611004578081fd5b5035919050565b60008251815b8181101561102b5760208186018101518583015201611011565b818111156110395782828501525b509190910192915050565b6020808252818101527f4f776e61626c653a2063616c6c6572206973206e6f7420746865206f776e6572604082015260600190565b6000821982111561108c5761108c611102565b500190565b6000826110ac57634e487b7160e01b81526012600452602481fd5b500490565b60008160001904831182151516156110cb576110cb611102565b500290565b6000828210156110e2576110e2611102565b500390565b60006000198214156110fb576110fb611102565b5060010190565b634e487b7160e01b600052601160045260246000fdfea2646970667358221220318168315ec279809740bd259d5f30399395bd5231492090e62487c909e388df64736f6c63430008040033",
			"opcodes": "PUSH1 0x80 PUSH1 0x40 MSTORE PUSH10 0xD3C21BCECCEDA1000000 PUSH1 0x4 SSTORE PUSH3 0x4F1A00 PUSH1 0x9 SSTORE PUSH1 0x1 PUSH1 0xA SSTORE CALLVALUE DUP1 ISZERO PUSH3 0x2B JUMPI PUSH1 0x0 DUP1 REVERT JUMPDEST POP PUSH1 0x40 MLOAD PUSH3 0x12AE CODESIZE SUB DUP1 PUSH3 0x12AE DUP4 CODECOPY DUP2 ADD PUSH1 0x40 DUP2 SWAP1 MSTORE PUSH3 0x4E SWAP2 PUSH3 0x119 JUMP JUMPDEST PUSH3 0x59 CALLER PUSH3 0xAC JUMP JUMPDEST PUSH1 0x6 DUP1 SLOAD CALLER PUSH1 0x1 PUSH1 0x1 PUSH1 0xA0 SHL SUB NOT SWAP2 DUP3 AND DUP2 OR SWAP1 SWAP3 SSTORE PUSH1 0x1 DUP1 SLOAD DUP3 AND PUSH1 0x1 PUSH1 0x1 PUSH1 0xA0 SHL SUB DUP7 DUP2 AND SWAP2 SWAP1 SWAP2 OR SWAP1 SWAP2 SSTORE PUSH1 0x5 DUP1 SLOAD SWAP1 SWAP3 AND SWAP1 DUP5 AND OR SWAP1 SSTORE PUSH1 0x0 PUSH1 0x2 SSTORE PUSH3 0xA4 SWAP1 PUSH3 0xAC JUMP JUMPDEST POP POP PUSH3 0x150 JUMP JUMPDEST PUSH1 0x0 DUP1 SLOAD PUSH1 0x1 PUSH1 0x1 PUSH1 0xA0 SHL SUB DUP4 DUP2 AND PUSH1 0x1 PUSH1 0x1 PUSH1 0xA0 SHL SUB NOT DUP4 AND DUP2 OR DUP5 SSTORE PUSH1 0x40 MLOAD SWAP2 SWAP1 SWAP3 AND SWAP3 DUP4 SWAP2 PUSH32 0x8BE0079C531659141344CD1FD0A4F28419497F9722A3DAAFE3B4186F6B6457E0 SWAP2 SWAP1 LOG3 POP POP JUMP JUMPDEST DUP1 MLOAD PUSH1 0x1 PUSH1 0x1 PUSH1 0xA0 SHL SUB DUP2 AND DUP2 EQ PUSH3 0x114 JUMPI PUSH1 0x0 DUP1 REVERT JUMPDEST SWAP2 SWAP1 POP JUMP JUMPDEST PUSH1 0x0 DUP1 PUSH1 0x40 DUP4 DUP6 SUB SLT ISZERO PUSH3 0x12C JUMPI DUP2 DUP3 REVERT JUMPDEST PUSH3 0x137 DUP4 PUSH3 0xFC JUMP JUMPDEST SWAP2 POP PUSH3 0x147 PUSH1 0x20 DUP5 ADD PUSH3 0xFC JUMP JUMPDEST SWAP1 POP SWAP3 POP SWAP3 SWAP1 POP JUMP JUMPDEST PUSH2 0x114E DUP1 PUSH3 0x160 PUSH1 0x0 CODECOPY PUSH1 0x0 RETURN INVALID PUSH1 0x80 PUSH1 0x40 MSTORE CALLVALUE DUP1 ISZERO PUSH2 0x10 JUMPI PUSH1 0x0 DUP1 REVERT JUMPDEST POP PUSH1 0x4 CALLDATASIZE LT PUSH2 0x142 JUMPI PUSH1 0x0 CALLDATALOAD PUSH1 0xE0 SHR DUP1 PUSH4 0x9674A0AC GT PUSH2 0xB8 JUMPI DUP1 PUSH4 0xF0C37A59 GT PUSH2 0x7C JUMPI DUP1 PUSH4 0xF0C37A59 EQ PUSH2 0x2AA JUMPI DUP1 PUSH4 0xF2FDE38B EQ PUSH2 0x2B2 JUMPI DUP1 PUSH4 0xF5537EDE EQ PUSH2 0x2C5 JUMPI DUP1 PUSH4 0xF7C618C1 EQ PUSH2 0x2D8 JUMPI DUP1 PUSH4 0xFC6F9468 EQ PUSH2 0x2EB JUMPI DUP1 PUSH4 0xFD1A2397 EQ PUSH2 0x2FE JUMPI PUSH1 0x0 DUP1 REVERT JUMPDEST DUP1 PUSH4 0x9674A0AC EQ PUSH2 0x260 JUMPI DUP1 PUSH4 0x9F4216E8 EQ PUSH2 0x273 JUMPI DUP1 PUSH4 0xA694FC3A EQ PUSH2 0x286 JUMPI DUP1 PUSH4 0xA8B38205 EQ PUSH2 0x299 JUMPI DUP1 PUSH4 0xBCE4F054 EQ PUSH2 0x2A2 JUMPI PUSH1 0x0 DUP1 REVERT JUMPDEST DUP1 PUSH4 0x5FCBD285 GT PUSH2 0x10A JUMPI DUP1 PUSH4 0x5FCBD285 EQ PUSH2 0x1E3 JUMPI DUP1 PUSH4 0x5FD595C0 EQ PUSH2 0x20E JUMPI DUP1 PUSH4 0x6A9DB411 EQ PUSH2 0x221 JUMPI DUP1 PUSH4 0x6E26A967 EQ PUSH2 0x234 JUMPI DUP1 PUSH4 0x715018A6 EQ PUSH2 0x247 JUMPI DUP1 PUSH4 0x8DA5CB5B EQ PUSH2 0x24F JUMPI PUSH1 0x0 DUP1 REVERT JUMPDEST DUP1 PUSH4 0x1959A002 EQ PUSH2 0x147 JUMPI DUP1 PUSH4 0x1A39D8EF EQ PUSH2 0x1B1 JUMPI DUP1 PUSH4 0x356C7284 EQ PUSH2 0x1C8 JUMPI DUP1 PUSH4 0x3CCFD60B EQ PUSH2 0x1D1 JUMPI DUP1 PUSH4 0x4E71D92D EQ PUSH2 0x1DB JUMPI JUMPDEST PUSH1 0x0 DUP1 REVERT JUMPDEST PUSH2 0x184 PUSH2 0x155 CALLDATASIZE PUSH1 0x4 PUSH2 0xF7E JUMP JUMPDEST PUSH1 0x7 PUSH1 0x20 MSTORE PUSH1 0x0 SWAP1 DUP2 MSTORE PUSH1 0x40 SWAP1 KECCAK256 DUP1 SLOAD PUSH1 0x1 DUP3 ADD SLOAD PUSH1 0x2 DUP4 ADD SLOAD PUSH1 0x3 DUP5 ADD SLOAD PUSH1 0x4 SWAP1 SWAP5 ADD SLOAD SWAP3 SWAP4 SWAP2 SWAP3 SWAP1 SWAP2 SWAP1 DUP6 JUMP JUMPDEST PUSH1 0x40 DUP1 MLOAD SWAP6 DUP7 MSTORE PUSH1 0x20 DUP7 ADD SWAP5 SWAP1 SWAP5 MSTORE SWAP3 DUP5 ADD SWAP2 SWAP1 SWAP2 MSTORE PUSH1 0x60 DUP4 ADD MSTORE PUSH1 0x80 DUP3 ADD MSTORE PUSH1 0xA0 ADD JUMPDEST PUSH1 0x40 MLOAD DUP1 SWAP2 SUB SWAP1 RETURN JUMPDEST PUSH2 0x1BA PUSH1 0x2 SLOAD DUP2 JUMP JUMPDEST PUSH1 0x40 MLOAD SWAP1 DUP2 MSTORE PUSH1 0x20 ADD PUSH2 0x1A8 JUMP JUMPDEST PUSH2 0x1BA PUSH1 0x3 SLOAD DUP2 JUMP JUMPDEST PUSH2 0x1D9 PUSH2 0x311 JUMP JUMPDEST STOP JUMPDEST PUSH2 0x1D9 PUSH2 0x46F JUMP JUMPDEST PUSH1 0x1 SLOAD PUSH2 0x1F6 SWAP1 PUSH1 0x1 PUSH1 0x1 PUSH1 0xA0 SHL SUB AND DUP2 JUMP JUMPDEST PUSH1 0x40 MLOAD PUSH1 0x1 PUSH1 0x1 PUSH1 0xA0 SHL SUB SWAP1 SWAP2 AND DUP2 MSTORE PUSH1 0x20 ADD PUSH2 0x1A8 JUMP JUMPDEST PUSH2 0x1D9 PUSH2 0x21C CALLDATASIZE PUSH1 0x4 PUSH2 0xF7E JUMP JUMPDEST PUSH2 0x544 JUMP JUMPDEST PUSH2 0x1BA PUSH2 0x22F CALLDATASIZE PUSH1 0x4 PUSH2 0xFF3 JUMP JUMPDEST PUSH2 0x590 JUMP JUMPDEST PUSH2 0x1BA PUSH2 0x242 CALLDATASIZE PUSH1 0x4 PUSH2 0xF7E JUMP JUMPDEST PUSH2 0x5E4 JUMP JUMPDEST PUSH2 0x1D9 PUSH2 0x656 JUMP JUMPDEST PUSH1 0x0 SLOAD PUSH1 0x1 PUSH1 0x1 PUSH1 0xA0 SHL SUB AND PUSH2 0x1F6 JUMP JUMPDEST PUSH2 0x1F6 PUSH2 0x26E CALLDATASIZE PUSH1 0x4 PUSH2 0xFF3 JUMP JUMPDEST PUSH2 0x68C JUMP JUMPDEST PUSH2 0x1F6 PUSH2 0x281 CALLDATASIZE PUSH1 0x4 PUSH2 0xFF3 JUMP JUMPDEST PUSH2 0x6CA JUMP JUMPDEST PUSH2 0x1D9 PUSH2 0x294 CALLDATASIZE PUSH1 0x4 PUSH2 0xFF3 JUMP JUMPDEST PUSH2 0x6F4 JUMP JUMPDEST PUSH2 0x1BA PUSH1 0x9 SLOAD DUP2 JUMP JUMPDEST PUSH1 0x2 SLOAD PUSH2 0x1BA JUMP JUMPDEST PUSH1 0x8 SLOAD PUSH2 0x1BA JUMP JUMPDEST PUSH2 0x1D9 PUSH2 0x2C0 CALLDATASIZE PUSH1 0x4 PUSH2 0xF7E JUMP JUMPDEST PUSH2 0x8A2 JUMP JUMPDEST PUSH2 0x1D9 PUSH2 0x2D3 CALLDATASIZE PUSH1 0x4 PUSH2 0xF98 JUMP JUMPDEST PUSH2 0x93D JUMP JUMPDEST PUSH1 0x5 SLOAD PUSH2 0x1F6 SWAP1 PUSH1 0x1 PUSH1 0x1 PUSH1 0xA0 SHL SUB AND DUP2 JUMP JUMPDEST PUSH1 0x6 SLOAD PUSH2 0x1F6 SWAP1 PUSH1 0x1 PUSH1 0x1 PUSH1 0xA0 SHL SUB AND DUP2 JUMP JUMPDEST PUSH2 0x1D9 PUSH2 0x30C CALLDATASIZE PUSH1 0x4 PUSH2 0xF7E JUMP JUMPDEST PUSH2 0x9F3 JUMP JUMPDEST CALLER PUSH1 0x0 SWAP1 DUP2 MSTORE PUSH1 0x7 PUSH1 0x20 MSTORE PUSH1 0x40 SWAP1 KECCAK256 PUSH1 0x4 DUP2 ADD SLOAD PUSH2 0x365 JUMPI PUSH1 0x40 MLOAD PUSH3 0x461BCD PUSH1 0xE5 SHL DUP2 MSTORE PUSH1 0x20 PUSH1 0x4 DUP3 ADD MSTORE PUSH1 0xC PUSH1 0x24 DUP3 ADD MSTORE PUSH12 0x34B73B30B634B2103AB9B2B9 PUSH1 0xA1 SHL PUSH1 0x44 DUP3 ADD MSTORE PUSH1 0x64 ADD JUMPDEST PUSH1 0x40 MLOAD DUP1 SWAP2 SUB SWAP1 REVERT JUMPDEST DUP1 SLOAD PUSH2 0x3A0 JUMPI PUSH1 0x40 MLOAD PUSH3 0x461BCD PUSH1 0xE5 SHL DUP2 MSTORE PUSH1 0x20 PUSH1 0x4 DUP3 ADD MSTORE PUSH1 0xA PUSH1 0x24 DUP3 ADD MSTORE PUSH10 0x1B9BDD081CDD185AD959 PUSH1 0xB2 SHL PUSH1 0x44 DUP3 ADD MSTORE PUSH1 0x64 ADD PUSH2 0x35C JUMP JUMPDEST TIMESTAMP PUSH1 0x9 SLOAD DUP3 PUSH1 0x4 ADD SLOAD PUSH2 0x3B3 SWAP2 SWAP1 PUSH2 0x1079 JUMP JUMPDEST LT PUSH2 0x3F9 JUMPI PUSH1 0x40 MLOAD PUSH3 0x461BCD PUSH1 0xE5 SHL DUP2 MSTORE PUSH1 0x20 PUSH1 0x4 DUP3 ADD MSTORE PUSH1 0x16 PUSH1 0x24 DUP3 ADD MSTORE PUSH22 0x3CB7BA9030B9329034B7103637B1B5B2B22A34B6B297 PUSH1 0x51 SHL PUSH1 0x44 DUP3 ADD MSTORE PUSH1 0x64 ADD PUSH2 0x35C JUMP JUMPDEST PUSH2 0x401 PUSH2 0xA3F JUMP JUMPDEST PUSH1 0x1 SLOAD DUP2 SLOAD PUSH2 0x41B SWAP2 PUSH1 0x1 PUSH1 0x1 PUSH1 0xA0 SHL SUB AND SWAP1 CALLER SWAP1 PUSH2 0xB39 JUMP JUMPDEST DUP1 SLOAD PUSH1 0x2 SLOAD PUSH2 0x42A SWAP2 SWAP1 PUSH2 0x10D0 JUMP JUMPDEST PUSH1 0x2 SSTORE PUSH2 0x435 PUSH2 0xC63 JUMP JUMPDEST DUP1 SLOAD PUSH1 0x40 MLOAD SWAP1 DUP2 MSTORE CALLER SWAP1 PUSH32 0x884EDAD9CE6FA2440D8A54CC123490EB96D2768479D49FF9C7366125A9424364 SWAP1 PUSH1 0x20 ADD PUSH1 0x40 MLOAD DUP1 SWAP2 SUB SWAP1 LOG2 POP JUMP JUMPDEST CALLER PUSH1 0x0 SWAP1 DUP2 MSTORE PUSH1 0x7 PUSH1 0x20 MSTORE PUSH1 0x40 SWAP1 KECCAK256 PUSH2 0x486 PUSH2 0xA3F JUMP JUMPDEST PUSH1 0x2 DUP2 ADD SLOAD DUP1 PUSH2 0x4D8 JUMPI PUSH1 0x40 MLOAD PUSH3 0x461BCD PUSH1 0xE5 SHL DUP2 MSTORE PUSH1 0x20 PUSH1 0x4 DUP3 ADD MSTORE PUSH1 0x18 PUSH1 0x24 DUP3 ADD MSTORE PUSH32 0x6E6F7420656E6F7567682072657761726420616D6F756E740000000000000000 PUSH1 0x44 DUP3 ADD MSTORE PUSH1 0x64 ADD PUSH2 0x35C JUMP JUMPDEST DUP1 DUP3 PUSH1 0x1 ADD SLOAD PUSH2 0x4E8 SWAP2 SWAP1 PUSH2 0x1079 JUMP JUMPDEST PUSH1 0x1 DUP4 ADD SSTORE PUSH1 0x0 PUSH1 0x2 DUP4 ADD SSTORE PUSH1 0x5 SLOAD PUSH2 0x50B SWAP1 PUSH1 0x1 PUSH1 0x1 PUSH1 0xA0 SHL SUB AND CALLER DUP4 PUSH2 0xB39 JUMP JUMPDEST PUSH1 0x40 MLOAD DUP2 DUP2 MSTORE CALLER SWAP1 PUSH32 0x619CAAFABDD75649B302BA8419E48CCCF64F37F1983AC4727CFB38B57703FFC9 SWAP1 PUSH1 0x20 ADD PUSH1 0x40 MLOAD DUP1 SWAP2 SUB SWAP1 LOG2 POP POP JUMP JUMPDEST PUSH1 0x0 SLOAD PUSH1 0x1 PUSH1 0x1 PUSH1 0xA0 SHL SUB AND CALLER EQ PUSH2 0x56E JUMPI PUSH1 0x40 MLOAD PUSH3 0x461BCD PUSH1 0xE5 SHL DUP2 MSTORE PUSH1 0x4 ADD PUSH2 0x35C SWAP1 PUSH2 0x1044 JUMP JUMPDEST PUSH1 0x1 DUP1 SLOAD PUSH1 0x1 PUSH1 0x1 PUSH1 0xA0 SHL SUB NOT AND PUSH1 0x1 PUSH1 0x1 PUSH1 0xA0 SHL SUB SWAP3 SWAP1 SWAP3 AND SWAP2 SWAP1 SWAP2 OR SWAP1 SSTORE JUMP JUMPDEST PUSH1 0x0 DUP1 PUSH1 0x7 PUSH1 0x0 PUSH1 0x8 DUP6 DUP2 SLOAD DUP2 LT PUSH2 0x5B8 JUMPI PUSH4 0x4E487B71 PUSH1 0xE0 SHL PUSH1 0x0 MSTORE PUSH1 0x32 PUSH1 0x4 MSTORE PUSH1 0x24 PUSH1 0x0 REVERT JUMPDEST PUSH1 0x0 SWAP2 DUP3 MSTORE PUSH1 0x20 DUP1 DUP4 KECCAK256 SWAP1 SWAP2 ADD SLOAD PUSH1 0x1 PUSH1 0x1 PUSH1 0xA0 SHL SUB AND DUP4 MSTORE DUP3 ADD SWAP3 SWAP1 SWAP3 MSTORE PUSH1 0x40 ADD SWAP1 KECCAK256 SLOAD SWAP4 SWAP3 POP POP POP JUMP JUMPDEST PUSH1 0x1 PUSH1 0x1 PUSH1 0xA0 SHL SUB DUP2 AND PUSH1 0x0 SWAP1 DUP2 MSTORE PUSH1 0x7 PUSH1 0x20 MSTORE PUSH1 0x40 DUP2 KECCAK256 PUSH1 0x3 DUP2 ADD SLOAD TIMESTAMP SWAP1 DUP4 SWAP1 DUP2 SWAP1 PUSH3 0x15180 SWAP1 PUSH2 0x616 SWAP1 DUP6 PUSH2 0x10D0 JUMP JUMPDEST PUSH2 0x620 SWAP2 SWAP1 PUSH2 0x1091 JUMP JUMPDEST SWAP1 POP PUSH1 0x2 SLOAD PUSH1 0x4 SLOAD DUP6 PUSH1 0x0 ADD SLOAD DUP4 PUSH2 0x638 SWAP2 SWAP1 PUSH2 0x10B1 JUMP JUMPDEST PUSH2 0x642 SWAP2 SWAP1 PUSH2 0x10B1 JUMP JUMPDEST PUSH2 0x64C SWAP2 SWAP1 PUSH2 0x1091 JUMP JUMPDEST SWAP7 SWAP6 POP POP POP POP POP POP JUMP JUMPDEST PUSH1 0x0 SLOAD PUSH1 0x1 PUSH1 0x1 PUSH1 0xA0 SHL SUB AND CALLER EQ PUSH2 0x680 JUMPI PUSH1 0x40 MLOAD PUSH3 0x461BCD PUSH1 0xE5 SHL DUP2 MSTORE PUSH1 0x4 ADD PUSH2 0x35C SWAP1 PUSH2 0x1044 JUMP JUMPDEST PUSH2 0x68A PUSH1 0x0 PUSH2 0xDC1 JUMP JUMPDEST JUMP JUMPDEST PUSH1 0x0 PUSH1 0x8 DUP3 DUP2 SLOAD DUP2 LT PUSH2 0x6AF JUMPI PUSH4 0x4E487B71 PUSH1 0xE0 SHL PUSH1 0x0 MSTORE PUSH1 0x32 PUSH1 0x4 MSTORE PUSH1 0x24 PUSH1 0x0 REVERT JUMPDEST PUSH1 0x0 SWAP2 DUP3 MSTORE PUSH1 0x20 SWAP1 SWAP2 KECCAK256 ADD SLOAD PUSH1 0x1 PUSH1 0x1 PUSH1 0xA0 SHL SUB AND SWAP3 SWAP2 POP POP JUMP JUMPDEST PUSH1 0x8 DUP2 DUP2 SLOAD DUP2 LT PUSH2 0x6DA JUMPI PUSH1 0x0 DUP1 REVERT JUMPDEST PUSH1 0x0 SWAP2 DUP3 MSTORE PUSH1 0x20 SWAP1 SWAP2 KECCAK256 ADD SLOAD PUSH1 0x1 PUSH1 0x1 PUSH1 0xA0 SHL SUB AND SWAP1 POP DUP2 JUMP JUMPDEST PUSH1 0x0 DUP2 GT PUSH2 0x735 JUMPI PUSH1 0x40 MLOAD PUSH3 0x461BCD PUSH1 0xE5 SHL DUP2 MSTORE PUSH1 0x20 PUSH1 0x4 DUP3 ADD MSTORE PUSH1 0xE PUSH1 0x24 DUP3 ADD MSTORE PUSH14 0x1A5B9D985A5B1908185B5BDD5B9D PUSH1 0x92 SHL PUSH1 0x44 DUP3 ADD MSTORE PUSH1 0x64 ADD PUSH2 0x35C JUMP JUMPDEST PUSH1 0x1 SLOAD PUSH2 0x74D SWAP1 PUSH1 0x1 PUSH1 0x1 PUSH1 0xA0 SHL SUB AND CALLER ADDRESS DUP5 PUSH2 0xE11 JUMP JUMPDEST CALLER PUSH1 0x0 SWAP1 DUP2 MSTORE PUSH1 0x7 PUSH1 0x20 MSTORE PUSH1 0x40 DUP2 KECCAK256 SWAP1 PUSH1 0x1 SWAP1 JUMPDEST PUSH1 0x8 SLOAD DUP2 LT ISZERO PUSH2 0x7C8 JUMPI CALLER PUSH1 0x1 PUSH1 0x1 PUSH1 0xA0 SHL SUB AND PUSH1 0x8 DUP3 DUP2 SLOAD DUP2 LT PUSH2 0x796 JUMPI PUSH4 0x4E487B71 PUSH1 0xE0 SHL PUSH1 0x0 MSTORE PUSH1 0x32 PUSH1 0x4 MSTORE PUSH1 0x24 PUSH1 0x0 REVERT JUMPDEST PUSH1 0x0 SWAP2 DUP3 MSTORE PUSH1 0x20 SWAP1 SWAP2 KECCAK256 ADD SLOAD PUSH1 0x1 PUSH1 0x1 PUSH1 0xA0 SHL SUB AND EQ ISZERO PUSH2 0x7B6 JUMPI PUSH1 0x0 SWAP2 POP JUMPDEST DUP1 PUSH2 0x7C0 DUP2 PUSH2 0x10E7 JUMP JUMPDEST SWAP2 POP POP PUSH2 0x761 JUMP JUMPDEST POP PUSH2 0x7D1 PUSH2 0xA3F JUMP JUMPDEST DUP1 ISZERO PUSH2 0x83A JUMPI PUSH1 0x8 DUP1 SLOAD PUSH1 0x1 DUP2 DUP2 ADD DUP4 SSTORE PUSH1 0x0 SWAP3 DUP4 MSTORE PUSH32 0xF3F7A9FE364FAAB93B216DA50A3214154F22A0A2B415B23A84C8169E8B636EE3 SWAP1 SWAP2 ADD DUP1 SLOAD PUSH1 0x1 PUSH1 0x1 PUSH1 0xA0 SHL SUB NOT AND CALLER OR SWAP1 SSTORE DUP5 DUP5 SSTORE DUP4 ADD DUP2 SWAP1 SSTORE PUSH1 0x2 DUP4 ADD SSTORE TIMESTAMP PUSH1 0x4 DUP4 ADD DUP2 SWAP1 SSTORE PUSH1 0x3 DUP4 ADD SSTORE PUSH2 0x857 JUMP JUMPDEST DUP2 SLOAD PUSH2 0x847 SWAP1 DUP5 SWAP1 PUSH2 0x1079 JUMP JUMPDEST DUP3 SSTORE TIMESTAMP PUSH1 0x4 DUP4 ADD DUP2 SWAP1 SSTORE PUSH1 0x3 DUP4 ADD SSTORE JUMPDEST DUP3 PUSH1 0x2 SLOAD PUSH2 0x865 SWAP2 SWAP1 PUSH2 0x1079 JUMP JUMPDEST PUSH1 0x2 SSTORE PUSH1 0x40 MLOAD DUP4 DUP2 MSTORE CALLER SWAP1 PUSH32 0xE1FFFCC4923D04B559F4D29A8BFC6CDA04EB5B0D3C460751C2402C5C5CC9109C SWAP1 PUSH1 0x20 ADD PUSH1 0x40 MLOAD DUP1 SWAP2 SUB SWAP1 LOG2 POP POP POP JUMP JUMPDEST PUSH1 0x0 SLOAD PUSH1 0x1 PUSH1 0x1 PUSH1 0xA0 SHL SUB AND CALLER EQ PUSH2 0x8CC JUMPI PUSH1 0x40 MLOAD PUSH3 0x461BCD PUSH1 0xE5 SHL DUP2 MSTORE PUSH1 0x4 ADD PUSH2 0x35C SWAP1 PUSH2 0x1044 JUMP JUMPDEST PUSH1 0x1 PUSH1 0x1 PUSH1 0xA0 SHL SUB DUP2 AND PUSH2 0x931 JUMPI PUSH1 0x40 MLOAD PUSH3 0x461BCD PUSH1 0xE5 SHL DUP2 MSTORE PUSH1 0x20 PUSH1 0x4 DUP3 ADD MSTORE PUSH1 0x26 PUSH1 0x24 DUP3 ADD MSTORE PUSH32 0x4F776E61626C653A206E6577206F776E657220697320746865207A65726F2061 PUSH1 0x44 DUP3 ADD MSTORE PUSH6 0x646472657373 PUSH1 0xD0 SHL PUSH1 0x64 DUP3 ADD MSTORE PUSH1 0x84 ADD PUSH2 0x35C JUMP JUMPDEST PUSH2 0x93A DUP2 PUSH2 0xDC1 JUMP JUMPDEST POP JUMP JUMPDEST PUSH1 0x0 SLOAD PUSH1 0x1 PUSH1 0x1 PUSH1 0xA0 SHL SUB AND CALLER EQ PUSH2 0x967 JUMPI PUSH1 0x40 MLOAD PUSH3 0x461BCD PUSH1 0xE5 SHL DUP2 MSTORE PUSH1 0x4 ADD PUSH2 0x35C SWAP1 PUSH2 0x1044 JUMP JUMPDEST PUSH1 0x40 MLOAD PUSH4 0xA9059CBB PUSH1 0xE0 SHL DUP2 MSTORE PUSH1 0x1 PUSH1 0x1 PUSH1 0xA0 SHL SUB DUP4 DUP2 AND PUSH1 0x4 DUP4 ADD MSTORE PUSH1 0x24 DUP3 ADD DUP4 SWAP1 MSTORE DUP5 SWAP2 SWAP1 DUP3 AND SWAP1 PUSH4 0xA9059CBB SWAP1 PUSH1 0x44 ADD PUSH1 0x20 PUSH1 0x40 MLOAD DUP1 DUP4 SUB DUP2 PUSH1 0x0 DUP8 DUP1 EXTCODESIZE ISZERO DUP1 ISZERO PUSH2 0x9B4 JUMPI PUSH1 0x0 DUP1 REVERT JUMPDEST POP GAS CALL ISZERO DUP1 ISZERO PUSH2 0x9C8 JUMPI RETURNDATASIZE PUSH1 0x0 DUP1 RETURNDATACOPY RETURNDATASIZE PUSH1 0x0 REVERT JUMPDEST POP POP POP POP PUSH1 0x40 MLOAD RETURNDATASIZE PUSH1 0x1F NOT PUSH1 0x1F DUP3 ADD AND DUP3 ADD DUP1 PUSH1 0x40 MSTORE POP DUP2 ADD SWAP1 PUSH2 0x9EC SWAP2 SWAP1 PUSH2 0xFD3 JUMP JUMPDEST POP POP POP POP POP JUMP JUMPDEST PUSH1 0x0 SLOAD PUSH1 0x1 PUSH1 0x1 PUSH1 0xA0 SHL SUB AND CALLER EQ PUSH2 0xA1D JUMPI PUSH1 0x40 MLOAD PUSH3 0x461BCD PUSH1 0xE5 SHL DUP2 MSTORE PUSH1 0x4 ADD PUSH2 0x35C SWAP1 PUSH2 0x1044 JUMP JUMPDEST PUSH1 0x5 DUP1 SLOAD PUSH1 0x1 PUSH1 0x1 PUSH1 0xA0 SHL SUB NOT AND PUSH1 0x1 PUSH1 0x1 PUSH1 0xA0 SHL SUB SWAP3 SWAP1 SWAP3 AND SWAP2 SWAP1 SWAP2 OR SWAP1 SSTORE JUMP JUMPDEST PUSH1 0x0 JUMPDEST PUSH1 0x8 SLOAD DUP2 LT ISZERO PUSH2 0x93A JUMPI PUSH1 0x0 PUSH1 0x7 PUSH1 0x0 PUSH1 0x8 DUP5 DUP2 SLOAD DUP2 LT PUSH2 0xA73 JUMPI PUSH4 0x4E487B71 PUSH1 0xE0 SHL PUSH1 0x0 MSTORE PUSH1 0x32 PUSH1 0x4 MSTORE PUSH1 0x24 PUSH1 0x0 REVERT JUMPDEST PUSH1 0x0 SWAP2 DUP3 MSTORE PUSH1 0x20 DUP1 DUP4 KECCAK256 SWAP1 SWAP2 ADD SLOAD PUSH1 0x1 PUSH1 0x1 PUSH1 0xA0 SHL SUB AND DUP4 MSTORE DUP3 ADD SWAP3 SWAP1 SWAP3 MSTORE PUSH1 0x40 ADD DUP2 KECCAK256 PUSH1 0x3 DUP2 ADD SLOAD SWAP1 SWAP3 POP TIMESTAMP SWAP2 SWAP1 PUSH3 0x15180 SWAP1 PUSH2 0xAB1 SWAP1 DUP5 PUSH2 0x10D0 JUMP JUMPDEST PUSH2 0xABB SWAP2 SWAP1 PUSH2 0x1091 JUMP JUMPDEST PUSH1 0x2 SLOAD DUP5 SLOAD PUSH1 0x4 SLOAD SWAP3 SWAP4 POP PUSH1 0x0 SWAP3 PUSH2 0xAD3 SWAP1 DUP6 PUSH2 0x10B1 JUMP JUMPDEST PUSH2 0xADD SWAP2 SWAP1 PUSH2 0x10B1 JUMP JUMPDEST PUSH2 0xAE7 SWAP2 SWAP1 PUSH2 0x1091 JUMP JUMPDEST PUSH1 0x2 DUP6 ADD SLOAD SWAP1 SWAP2 POP PUSH2 0xAF9 SWAP1 DUP3 PUSH2 0xF4F JUMP JUMPDEST PUSH1 0x2 DUP6 ADD SSTORE PUSH2 0xB0B DUP3 PUSH3 0x15180 PUSH2 0x10B1 JUMP JUMPDEST DUP5 PUSH1 0x3 ADD SLOAD PUSH2 0xB1A SWAP2 SWAP1 PUSH2 0x1079 JUMP JUMPDEST DUP5 PUSH1 0x3 ADD DUP2 SWAP1 SSTORE POP POP POP POP POP DUP1 DUP1 PUSH2 0xB31 SWAP1 PUSH2 0x10E7 JUMP JUMPDEST SWAP2 POP POP PUSH2 0xA42 JUMP JUMPDEST PUSH1 0x40 DUP1 MLOAD PUSH1 0x1 PUSH1 0x1 PUSH1 0xA0 SHL SUB DUP5 DUP2 AND PUSH1 0x24 DUP4 ADD MSTORE PUSH1 0x44 DUP1 DUP4 ADD DUP6 SWAP1 MSTORE DUP4 MLOAD DUP1 DUP5 SUB SWAP1 SWAP2 ADD DUP2 MSTORE PUSH1 0x64 SWAP1 SWAP3 ADD DUP4 MSTORE PUSH1 0x20 DUP3 ADD DUP1 MLOAD PUSH1 0x1 PUSH1 0x1 PUSH1 0xE0 SHL SUB AND PUSH4 0xA9059CBB PUSH1 0xE0 SHL OR SWAP1 MSTORE SWAP2 MLOAD PUSH1 0x0 SWAP3 DUP4 SWAP3 SWAP1 DUP8 AND SWAP2 PUSH2 0xB95 SWAP2 SWAP1 PUSH2 0x100B JUMP JUMPDEST PUSH1 0x0 PUSH1 0x40 MLOAD DUP1 DUP4 SUB DUP2 PUSH1 0x0 DUP7 GAS CALL SWAP2 POP POP RETURNDATASIZE DUP1 PUSH1 0x0 DUP2 EQ PUSH2 0xBD2 JUMPI PUSH1 0x40 MLOAD SWAP2 POP PUSH1 0x1F NOT PUSH1 0x3F RETURNDATASIZE ADD AND DUP3 ADD PUSH1 0x40 MSTORE RETURNDATASIZE DUP3 MSTORE RETURNDATASIZE PUSH1 0x0 PUSH1 0x20 DUP5 ADD RETURNDATACOPY PUSH2 0xBD7 JUMP JUMPDEST PUSH1 0x60 SWAP2 POP JUMPDEST POP SWAP2 POP SWAP2 POP DUP2 DUP1 ISZERO PUSH2 0xC01 JUMPI POP DUP1 MLOAD ISZERO DUP1 PUSH2 0xC01 JUMPI POP DUP1 DUP1 PUSH1 0x20 ADD SWAP1 MLOAD DUP2 ADD SWAP1 PUSH2 0xC01 SWAP2 SWAP1 PUSH2 0xFD3 JUMP JUMPDEST PUSH2 0x9EC JUMPI PUSH1 0x40 MLOAD PUSH3 0x461BCD PUSH1 0xE5 SHL DUP2 MSTORE PUSH1 0x20 PUSH1 0x4 DUP3 ADD MSTORE PUSH1 0x2D PUSH1 0x24 DUP3 ADD MSTORE PUSH32 0x5472616E7366657248656C7065723A3A736166655472616E736665723A207472 PUSH1 0x44 DUP3 ADD MSTORE PUSH13 0x185B9CD9995C8819985A5B1959 PUSH1 0x9A SHL PUSH1 0x64 DUP3 ADD MSTORE PUSH1 0x84 ADD PUSH2 0x35C JUMP JUMPDEST PUSH1 0x0 DUP1 JUMPDEST PUSH1 0x8 SLOAD PUSH2 0xC76 SWAP1 PUSH1 0x1 SWAP1 PUSH2 0x10D0 JUMP JUMPDEST DUP2 LT ISZERO PUSH2 0xD7C JUMPI CALLER PUSH1 0x1 PUSH1 0x1 PUSH1 0xA0 SHL SUB AND PUSH1 0x8 DUP3 DUP2 SLOAD DUP2 LT PUSH2 0xCA8 JUMPI PUSH4 0x4E487B71 PUSH1 0xE0 SHL PUSH1 0x0 MSTORE PUSH1 0x32 PUSH1 0x4 MSTORE PUSH1 0x24 PUSH1 0x0 REVERT JUMPDEST PUSH1 0x0 SWAP2 DUP3 MSTORE PUSH1 0x20 SWAP1 SWAP2 KECCAK256 ADD SLOAD PUSH1 0x1 PUSH1 0x1 PUSH1 0xA0 SHL SUB AND EQ ISZERO PUSH2 0xCCC JUMPI PUSH1 0x1 SWAP2 POP PUSH2 0xD6A JUMP JUMPDEST DUP2 PUSH2 0xCD6 JUMPI PUSH2 0xD6A JUMP JUMPDEST PUSH1 0x8 PUSH2 0xCE3 DUP3 PUSH1 0x1 PUSH2 0x1079 JUMP JUMPDEST DUP2 SLOAD DUP2 LT PUSH2 0xD01 JUMPI PUSH4 0x4E487B71 PUSH1 0xE0 SHL PUSH1 0x0 MSTORE PUSH1 0x32 PUSH1 0x4 MSTORE PUSH1 0x24 PUSH1 0x0 REVERT JUMPDEST PUSH1 0x0 SWAP2 DUP3 MSTORE PUSH1 0x20 SWAP1 SWAP2 KECCAK256 ADD SLOAD PUSH1 0x8 DUP1 SLOAD PUSH1 0x1 PUSH1 0x1 PUSH1 0xA0 SHL SUB SWAP1 SWAP3 AND SWAP2 DUP4 SWAP1 DUP2 LT PUSH2 0xD3B JUMPI PUSH4 0x4E487B71 PUSH1 0xE0 SHL PUSH1 0x0 MSTORE PUSH1 0x32 PUSH1 0x4 MSTORE PUSH1 0x24 PUSH1 0x0 REVERT JUMPDEST SWAP1 PUSH1 0x0 MSTORE PUSH1 0x20 PUSH1 0x0 KECCAK256 ADD PUSH1 0x0 PUSH2 0x100 EXP DUP2 SLOAD DUP2 PUSH1 0x1 PUSH1 0x1 PUSH1 0xA0 SHL SUB MUL NOT AND SWAP1 DUP4 PUSH1 0x1 PUSH1 0x1 PUSH1 0xA0 SHL SUB AND MUL OR SWAP1 SSTORE POP JUMPDEST DUP1 PUSH2 0xD74 DUP2 PUSH2 0x10E7 JUMP JUMPDEST SWAP2 POP POP PUSH2 0xC67 JUMP JUMPDEST POP PUSH1 0x8 DUP1 SLOAD DUP1 PUSH2 0xD9C JUMPI PUSH4 0x4E487B71 PUSH1 0xE0 SHL PUSH1 0x0 MSTORE PUSH1 0x31 PUSH1 0x4 MSTORE PUSH1 0x24 PUSH1 0x0 REVERT JUMPDEST PUSH1 0x0 DUP3 DUP2 MSTORE PUSH1 0x20 SWAP1 KECCAK256 DUP2 ADD PUSH1 0x0 NOT SWAP1 DUP2 ADD DUP1 SLOAD PUSH1 0x1 PUSH1 0x1 PUSH1 0xA0 SHL SUB NOT AND SWAP1 SSTORE ADD SWAP1 SSTORE POP JUMP JUMPDEST PUSH1 0x0 DUP1 SLOAD PUSH1 0x1 PUSH1 0x1 PUSH1 0xA0 SHL SUB DUP4 DUP2 AND PUSH1 0x1 PUSH1 0x1 PUSH1 0xA0 SHL SUB NOT DUP4 AND DUP2 OR DUP5 SSTORE PUSH1 0x40 MLOAD SWAP2 SWAP1 SWAP3 AND SWAP3 DUP4 SWAP2 PUSH32 0x8BE0079C531659141344CD1FD0A4F28419497F9722A3DAAFE3B4186F6B6457E0 SWAP2 SWAP1 LOG3 POP POP JUMP JUMPDEST PUSH1 0x40 DUP1 MLOAD PUSH1 0x1 PUSH1 0x1 PUSH1 0xA0 SHL SUB DUP6 DUP2 AND PUSH1 0x24 DUP4 ADD MSTORE DUP5 DUP2 AND PUSH1 0x44 DUP4 ADD MSTORE PUSH1 0x64 DUP1 DUP4 ADD DUP6 SWAP1 MSTORE DUP4 MLOAD DUP1 DUP5 SUB SWAP1 SWAP2 ADD DUP2 MSTORE PUSH1 0x84 SWAP1 SWAP3 ADD DUP4 MSTORE PUSH1 0x20 DUP3 ADD DUP1 MLOAD PUSH1 0x1 PUSH1 0x1 PUSH1 0xE0 SHL SUB AND PUSH4 0x23B872DD PUSH1 0xE0 SHL OR SWAP1 MSTORE SWAP2 MLOAD PUSH1 0x0 SWAP3 DUP4 SWAP3 SWAP1 DUP9 AND SWAP2 PUSH2 0xE75 SWAP2 SWAP1 PUSH2 0x100B JUMP JUMPDEST PUSH1 0x0 PUSH1 0x40 MLOAD DUP1 DUP4 SUB DUP2 PUSH1 0x0 DUP7 GAS CALL SWAP2 POP POP RETURNDATASIZE DUP1 PUSH1 0x0 DUP2 EQ PUSH2 0xEB2 JUMPI PUSH1 0x40 MLOAD SWAP2 POP PUSH1 0x1F NOT PUSH1 0x3F RETURNDATASIZE ADD AND DUP3 ADD PUSH1 0x40 MSTORE RETURNDATASIZE DUP3 MSTORE RETURNDATASIZE PUSH1 0x0 PUSH1 0x20 DUP5 ADD RETURNDATACOPY PUSH2 0xEB7 JUMP JUMPDEST PUSH1 0x60 SWAP2 POP JUMPDEST POP SWAP2 POP SWAP2 POP DUP2 DUP1 ISZERO PUSH2 0xEE1 JUMPI POP DUP1 MLOAD ISZERO DUP1 PUSH2 0xEE1 JUMPI POP DUP1 DUP1 PUSH1 0x20 ADD SWAP1 MLOAD DUP2 ADD SWAP1 PUSH2 0xEE1 SWAP2 SWAP1 PUSH2 0xFD3 JUMP JUMPDEST PUSH2 0xF47 JUMPI PUSH1 0x40 MLOAD PUSH3 0x461BCD PUSH1 0xE5 SHL DUP2 MSTORE PUSH1 0x20 PUSH1 0x4 DUP3 ADD MSTORE PUSH1 0x31 PUSH1 0x24 DUP3 ADD MSTORE PUSH32 0x5472616E7366657248656C7065723A3A7472616E7366657246726F6D3A207472 PUSH1 0x44 DUP3 ADD MSTORE PUSH17 0x185B9CD9995C919C9BDB4819985A5B1959 PUSH1 0x7A SHL PUSH1 0x64 DUP3 ADD MSTORE PUSH1 0x84 ADD PUSH2 0x35C JUMP JUMPDEST POP POP POP POP POP POP JUMP JUMPDEST PUSH1 0x0 PUSH2 0xF5B DUP3 DUP5 PUSH2 0x1079 JUMP JUMPDEST SWAP4 SWAP3 POP POP POP JUMP JUMPDEST DUP1 CALLDATALOAD PUSH1 0x1 PUSH1 0x1 PUSH1 0xA0 SHL SUB DUP2 AND DUP2 EQ PUSH2 0xF79 JUMPI PUSH1 0x0 DUP1 REVERT JUMPDEST SWAP2 SWAP1 POP JUMP JUMPDEST PUSH1 0x0 PUSH1 0x20 DUP3 DUP5 SUB SLT ISZERO PUSH2 0xF8F JUMPI DUP1 DUP2 REVERT JUMPDEST PUSH2 0xF5B DUP3 PUSH2 0xF62 JUMP JUMPDEST PUSH1 0x0 DUP1 PUSH1 0x0 PUSH1 0x60 DUP5 DUP7 SUB SLT ISZERO PUSH2 0xFAC JUMPI DUP2 DUP3 REVERT JUMPDEST PUSH2 0xFB5 DUP5 PUSH2 0xF62 JUMP JUMPDEST SWAP3 POP PUSH2 0xFC3 PUSH1 0x20 DUP6 ADD PUSH2 0xF62 JUMP JUMPDEST SWAP2 POP PUSH1 0x40 DUP5 ADD CALLDATALOAD SWAP1 POP SWAP3 POP SWAP3 POP SWAP3 JUMP JUMPDEST PUSH1 0x0 PUSH1 0x20 DUP3 DUP5 SUB SLT ISZERO PUSH2 0xFE4 JUMPI DUP1 DUP2 REVERT JUMPDEST DUP2 MLOAD DUP1 ISZERO ISZERO DUP2 EQ PUSH2 0xF5B JUMPI DUP2 DUP3 REVERT JUMPDEST PUSH1 0x0 PUSH1 0x20 DUP3 DUP5 SUB SLT ISZERO PUSH2 0x1004 JUMPI DUP1 DUP2 REVERT JUMPDEST POP CALLDATALOAD SWAP2 SWAP1 POP JUMP JUMPDEST PUSH1 0x0 DUP3 MLOAD DUP2 JUMPDEST DUP2 DUP2 LT ISZERO PUSH2 0x102B JUMPI PUSH1 0x20 DUP2 DUP7 ADD DUP2 ADD MLOAD DUP6 DUP4 ADD MSTORE ADD PUSH2 0x1011 JUMP JUMPDEST DUP2 DUP2 GT ISZERO PUSH2 0x1039 JUMPI DUP3 DUP3 DUP6 ADD MSTORE JUMPDEST POP SWAP2 SWAP1 SWAP2 ADD SWAP3 SWAP2 POP POP JUMP JUMPDEST PUSH1 0x20 DUP1 DUP3 MSTORE DUP2 DUP2 ADD MSTORE PUSH32 0x4F776E61626C653A2063616C6C6572206973206E6F7420746865206F776E6572 PUSH1 0x40 DUP3 ADD MSTORE PUSH1 0x60 ADD SWAP1 JUMP JUMPDEST PUSH1 0x0 DUP3 NOT DUP3 GT ISZERO PUSH2 0x108C JUMPI PUSH2 0x108C PUSH2 0x1102 JUMP JUMPDEST POP ADD SWAP1 JUMP JUMPDEST PUSH1 0x0 DUP3 PUSH2 0x10AC JUMPI PUSH4 0x4E487B71 PUSH1 0xE0 SHL DUP2 MSTORE PUSH1 0x12 PUSH1 0x4 MSTORE PUSH1 0x24 DUP2 REVERT JUMPDEST POP DIV SWAP1 JUMP JUMPDEST PUSH1 0x0 DUP2 PUSH1 0x0 NOT DIV DUP4 GT DUP3 ISZERO ISZERO AND ISZERO PUSH2 0x10CB JUMPI PUSH2 0x10CB PUSH2 0x1102 JUMP JUMPDEST POP MUL SWAP1 JUMP JUMPDEST PUSH1 0x0 DUP3 DUP3 LT ISZERO PUSH2 0x10E2 JUMPI PUSH2 0x10E2 PUSH2 0x1102 JUMP JUMPDEST POP SUB SWAP1 JUMP JUMPDEST PUSH1 0x0 PUSH1 0x0 NOT DUP3 EQ ISZERO PUSH2 0x10FB JUMPI PUSH2 0x10FB PUSH2 0x1102 JUMP JUMPDEST POP PUSH1 0x1 ADD SWAP1 JUMP JUMPDEST PUSH4 0x4E487B71 PUSH1 0xE0 SHL PUSH1 0x0 MSTORE PUSH1 0x11 PUSH1 0x4 MSTORE PUSH1 0x24 PUSH1 0x0 REVERT INVALID LOG2 PUSH5 0x6970667358 0x22 SLT KECCAK256 BALANCE DUP2 PUSH9 0x315EC279809740BD25 SWAP14 0x5F ADDRESS CODECOPY SWAP4 SWAP6 0xBD MSTORE BALANCE 0x49 KECCAK256 SWAP1 0xE6 0x24 DUP8 0xC9 MULMOD 0xE3 DUP9 0xDF PUSH5 0x736F6C6343 STOP ADDMOD DIV STOP CALLER "
		},
		"gasEstimates": {
			"creation": {
				"codeDepositCost": "886000",
				"executionCost": "infinite",
				"totalCost": "infinite"
			},
			"external": {
				"adminAddress()": "1147",
				"claim()": "infinite",
				"ecioClaimPossible(address)": "infinite",
				"lastRewardTimeStamp()": "1063",
				"lockedTime()": "1084",
				"lpToken()": "1060",
				"owner()": "1164",
				"renounceOwnership()": "23525",
				"rewardToken()": "1125",
				"stake(uint256)": "infinite",
				"totalAmount()": "1041",
				"totalLpTokenAmount()": "1103",
				"transferOwnership(address)": "23653",
				"transferToken(address,address,uint256)": "infinite",
				"updateLpTokenAddress(address)": "22056",
				"updateRewardTokenAddress(address)": "22143",
				"userAddress(uint256)": "2042",
				"userCounter()": "1014",
				"userInfo(address)": "4576",
				"userList(uint256)": "2059",
				"userStakedLpAmount(uint256)": "2957",
				"withdraw()": "infinite"
			},
			"internal": {
				"deleteBlock()": "infinite",
				"updatePool()": "infinite"
			}
		},
		"methodIdentifiers": {
			"adminAddress()": "fc6f9468",
			"claim()": "4e71d92d",
			"ecioClaimPossible(address)": "6e26a967",
			"lastRewardTimeStamp()": "356c7284",
			"lockedTime()": "a8b38205",
			"lpToken()": "5fcbd285",
			"owner()": "8da5cb5b",
			"renounceOwnership()": "715018a6",
			"rewardToken()": "f7c618c1",
			"stake(uint256)": "a694fc3a",
			"totalAmount()": "1a39d8ef",
			"totalLpTokenAmount()": "bce4f054",
			"transferOwnership(address)": "f2fde38b",
			"transferToken(address,address,uint256)": "f5537ede",
			"updateLpTokenAddress(address)": "5fd595c0",
			"updateRewardTokenAddress(address)": "fd1a2397",
			"userAddress(uint256)": "9674a0ac",
			"userCounter()": "f0c37a59",
			"userInfo(address)": "1959a002",
			"userList(uint256)": "9f4216e8",
			"userStakedLpAmount(uint256)": "6a9db411",
			"withdraw()": "3ccfd60b"
		}
	},
	"abi": [
		{
			"inputs": [
				{
					"internalType": "address",
					"name": "_lpToken",
					"type": "address"
				},
				{
					"internalType": "address",
					"name": "_rewardToken",
					"type": "address"
				}
			],
			"stateMutability": "nonpayable",
			"type": "constructor"
		},
		{
			"anonymous": false,
			"inputs": [
				{
					"indexed": true,
					"internalType": "address",
					"name": "user",
					"type": "address"
				},
				{
					"indexed": false,
					"internalType": "uint256",
					"name": "amount",
					"type": "uint256"
				}
			],
			"name": "Deposit",
			"type": "event"
		},
		{
			"anonymous": false,
			"inputs": [
				{
					"indexed": true,
					"internalType": "address",
					"name": "previousOwner",
					"type": "address"
				},
				{
					"indexed": true,
					"internalType": "address",
					"name": "newOwner",
					"type": "address"
				}
			],
			"name": "OwnershipTransferred",
			"type": "event"
		},
		{
			"anonymous": false,
			"inputs": [
				{
					"indexed": true,
					"internalType": "address",
					"name": "user",
					"type": "address"
				},
				{
					"indexed": false,
					"internalType": "uint256",
					"name": "amount",
					"type": "uint256"
				}
			],
			"name": "Reward",
			"type": "event"
		},
		{
			"anonymous": false,
			"inputs": [
				{
					"indexed": true,
					"internalType": "address",
					"name": "user",
					"type": "address"
				},
				{
					"indexed": false,
					"internalType": "uint256",
					"name": "amount",
					"type": "uint256"
				}
			],
			"name": "Withdraw",
			"type": "event"
		},
		{
			"inputs": [],
			"name": "adminAddress",
			"outputs": [
				{
					"internalType": "address",
					"name": "",
					"type": "address"
				}
			],
			"stateMutability": "view",
			"type": "function"
		},
		{
			"inputs": [],
			"name": "claim",
			"outputs": [],
			"stateMutability": "nonpayable",
			"type": "function"
		},
		{
			"inputs": [
				{
					"internalType": "address",
					"name": "_useraddress",
					"type": "address"
				}
			],
			"name": "ecioClaimPossible",
			"outputs": [
				{
					"internalType": "uint256",
					"name": "",
					"type": "uint256"
				}
			],
			"stateMutability": "view",
			"type": "function"
		},
		{
			"inputs": [],
			"name": "lastRewardTimeStamp",
			"outputs": [
				{
					"internalType": "uint256",
					"name": "",
					"type": "uint256"
				}
			],
			"stateMutability": "view",
			"type": "function"
		},
		{
			"inputs": [],
			"name": "lockedTime",
			"outputs": [
				{
					"internalType": "uint256",
					"name": "",
					"type": "uint256"
				}
			],
			"stateMutability": "view",
			"type": "function"
		},
		{
			"inputs": [],
			"name": "lpToken",
			"outputs": [
				{
					"internalType": "address",
					"name": "",
					"type": "address"
				}
			],
			"stateMutability": "view",
			"type": "function"
		},
		{
			"inputs": [],
			"name": "owner",
			"outputs": [
				{
					"internalType": "address",
					"name": "",
					"type": "address"
				}
			],
			"stateMutability": "view",
			"type": "function"
		},
		{
			"inputs": [],
			"name": "renounceOwnership",
			"outputs": [],
			"stateMutability": "nonpayable",
			"type": "function"
		},
		{
			"inputs": [],
			"name": "rewardToken",
			"outputs": [
				{
					"internalType": "address",
					"name": "",
					"type": "address"
				}
			],
			"stateMutability": "view",
			"type": "function"
		},
		{
			"inputs": [
				{
					"internalType": "uint256",
					"name": "amount",
					"type": "uint256"
				}
			],
			"name": "stake",
			"outputs": [],
			"stateMutability": "nonpayable",
			"type": "function"
		},
		{
			"inputs": [],
			"name": "totalAmount",
			"outputs": [
				{
					"internalType": "uint256",
					"name": "",
					"type": "uint256"
				}
			],
			"stateMutability": "view",
			"type": "function"
		},
		{
			"inputs": [],
			"name": "totalLpTokenAmount",
			"outputs": [
				{
					"internalType": "uint256",
					"name": "",
					"type": "uint256"
				}
			],
			"stateMutability": "view",
			"type": "function"
		},
		{
			"inputs": [
				{
					"internalType": "address",
					"name": "newOwner",
					"type": "address"
				}
			],
			"name": "transferOwnership",
			"outputs": [],
			"stateMutability": "nonpayable",
			"type": "function"
		},
		{
			"inputs": [
				{
					"internalType": "address",
					"name": "_contractAddress",
					"type": "address"
				},
				{
					"internalType": "address",
					"name": "_to",
					"type": "address"
				},
				{
					"internalType": "uint256",
					"name": "_amount",
					"type": "uint256"
				}
			],
			"name": "transferToken",
			"outputs": [],
			"stateMutability": "nonpayable",
			"type": "function"
		},
		{
			"inputs": [
				{
					"internalType": "address",
					"name": "_address",
					"type": "address"
				}
			],
			"name": "updateLpTokenAddress",
			"outputs": [],
			"stateMutability": "nonpayable",
			"type": "function"
		},
		{
			"inputs": [
				{
					"internalType": "address",
					"name": "_address",
					"type": "address"
				}
			],
			"name": "updateRewardTokenAddress",
			"outputs": [],
			"stateMutability": "nonpayable",
			"type": "function"
		},
		{
			"inputs": [
				{
					"internalType": "uint256",
					"name": "userNum",
					"type": "uint256"
				}
			],
			"name": "userAddress",
			"outputs": [
				{
					"internalType": "address",
					"name": "",
					"type": "address"
				}
			],
			"stateMutability": "view",
			"type": "function"
		},
		{
			"inputs": [],
			"name": "userCounter",
			"outputs": [
				{
					"internalType": "uint256",
					"name": "",
					"type": "uint256"
				}
			],
			"stateMutability": "view",
			"type": "function"
		},
		{
			"inputs": [
				{
					"internalType": "address",
					"name": "",
					"type": "address"
				}
			],
			"name": "userInfo",
			"outputs": [
				{
					"internalType": "uint256",
					"name": "amount",
					"type": "uint256"
				},
				{
					"internalType": "uint256",
					"name": "rewarded",
					"type": "uint256"
				},
				{
					"internalType": "uint256",
					"name": "rewardDebt",
					"type": "uint256"
				},
				{
					"internalType": "uint256",
					"name": "lastCalculatedTimeStamp",
					"type": "uint256"
				},
				{
					"internalType": "uint256",
					"name": "lastDepositTimeStamp",
					"type": "uint256"
				}
			],
			"stateMutability": "view",
			"type": "function"
		},
		{
			"inputs": [
				{
					"internalType": "uint256",
					"name": "",
					"type": "uint256"
				}
			],
			"name": "userList",
			"outputs": [
				{
					"internalType": "address",
					"name": "",
					"type": "address"
				}
			],
			"stateMutability": "view",
			"type": "function"
		},
		{
			"inputs": [
				{
					"internalType": "uint256",
					"name": "userNum",
					"type": "uint256"
				}
			],
			"name": "userStakedLpAmount",
			"outputs": [
				{
					"internalType": "uint256",
					"name": "",
					"type": "uint256"
				}
			],
			"stateMutability": "view",
			"type": "function"
		},
		{
			"inputs": [],
			"name": "withdraw",
			"outputs": [],
			"stateMutability": "nonpayable",
			"type": "function"
		}
	]
}